:10000000C5EF01F057495245205452494D4D4552D4
:100010000A2050726F672E204176616E7A616461AA
:100020000000EA6A610EE96EEF500DE0020E016E0B
:10003000006A002EFED7012EFBD7970E006E002E11
:10004000FED7EF2EF3D712006839F00B006E0F0EBB
:100050008C1400108C6E00008C8000D000D08C902E
:1000600012008350006E00380F0B016E12000F0E4D
:100070009514F009956E8C8400008C800000F1DFEF
:1000800001C068F08C9000008C8000D0EADF01C0D5
:1000900067F08C900F0E9514956E6839006EF00E17
:1000A000001600506711016E5BEF00F0959095927D
:1000B00095948C92DCD701C067F001BEFBD78C927F
:1000C00065B18C8200008C9400008C906639676F5B
:1000D0000F0E671767C068F0B7DF66510F0B676FC9
:1000E000686FB2DF1200280E5A6E0C0E5B6E010EA6
:1000F0005C6E060E5D6E8C908C928C940F0E951437
:10010000956E9590959295940F0E616F8ADF010E12
:10011000596E5950030808E3030E686F95DF050E0A
:10012000616F7FDF592AF5D7020E686F8DDF050EEC
:10013000616F77DF596A595003080DE3036A59501C
:100140005A0FE96E000E0320EA6EEFCF66F0656B82
:10015000ADDF592AF0D756EF02F0622D01D003D05F
:10016000400E636F01D0636B010E615D63276351C5
:100170008009646F656B666F99DF12006051070A32
:1001800007E00B0A0AE0060A10E0020A14E018D0A1
:10019000010E616F626FE1DF18D0656B010E666F53
:1001A00085DF020E616F3DDF10D0010E616F020E20
:1001B000626FD3DF0AD0656B100E666F77DF05D0F4
:1001C000010E656F60C066F071DF12000900F55224
:1001D0000CE0F6CF59F0F7CF5AF0F5CF60F0CEDF54
:1001E00059C0F6FF5AC0F7FFF1D760EF02F05F5039
:1001F0006119800B636F5FAE05D05E1E5F1E5E2AC5
:10020000D8B45F2A61AF05D0601F611F602BD8B4DE
:10021000612B5E506003F3CF01F0F4CF00F0610377
:10022000F35000265F506003F3500020026E63AF6E
:1002300005D0011E021E012AD8B4022AACEF01F03B
:10024000EF520FE0EACF5FF0E9CF5EF0EFCF60F062
:1002500095DF5FC0EAFF5EC0E9FFE92AD8B4EA2A69
:10026000EFD7C1EF01F05B80210E5924E96E000E3B
:100270005A20EA6EEF6A948482B485D0948082A07A
:100280000CD0948082B0FDD7210E5924E96E000E67
:100290005A20EA6EEF065B800ED0948282A20BD0C9
:1002A000948282B2FDD7210E5924E96E000E5A20A5
:1002B000EA6EEF2A5B80210E5924E96E000E5A2067
:1002C000EA6EEFAE18D0210E5924016E000E5A20AE
:1002D000036E01C05CF05D6E200E5924E96E000EC5
:1002E0005A20EA6EEFCF5EF003C0EAFF01C0E9FFDB
:1002F0005E50EF6E1CD0210E5924E96E000E5A207C
:10030000EA6EEFCF5CF0200E5924E96E000E5A2001
:10031000EA6EEF505CBE0BD05C5C09E008E3210E96
:100320005924E96E000E5A20EA6EEF6A000E5BA0B7
:1003300029D0210E5924E96E000E5A20EA6E5D6A1A
:10034000EFCF5CF05CBE5D065DC05FF05CC05EF050
:10035000616B020E606F4BD702C003F0015059244D
:10036000E96E5A500220EA6EECCF5DF0ED52EFCF0D
:100370005CF00C0E606F02DF5DC0EAFF5CC0E9FF5D
:100380005FD75B9078D76BEF02F0F86AD09E700E63
:10039000D36ED350056A046AC150C00B0F09C16EF9
:1003A000070EB46E520E286E650E296E610E2A6E0F
:1003B0006C0E2B6E690E2C6E7A0E2D6E610E2E6EEB
:1003C000720E2F6E200E306E430E316E6F0E326E37
:1003D000720E336E740E346E650E356E366A430ED1
:1003E000376E6F0E386E6E0E396E660E3A6E690E8F
:1003F0003B6E670E3C6E750E3D6E720E3E6E610E6C
:100400003F6E630E406E690E416E6F0E426E6E0E51
:10041000436E650E446E730E456E466A076A280E7B
:10042000066E096A370E086E0A6A0B6A0C6A0D6A54
:100430000E6A0F6A106A116A126A136A146A156AE0
:10044000166A176A186A196A1A6A1B6A1C6A1D6A90
:100450001E6A1F6A206A216A226A236A246A256A40
:10046000010E266E276A080E476E7C0E486E090E36
:10047000496E7C0E4A6E0A0E4B6E7C0E4C6E0B0E55
:100480004D6E7C0E4E6E4F6A0C0E506E7C0E516E91
:100490000D0E526E7C0E536E0E0E546E7C0E556E0B
:1004A0000F0E566E7C0E576E586A1DD6030E616F86
:1004B000010E626F52DE040EF66E000EF76E86D6E7
:1004C000040E596EFA0E616FACDD592EFBD75A6AD5
:1004D000060E596EC8D6275003E0010A02E002D08A
:0804E00001D000D0F4D70300A5
:020000040030CA
:0E00000020C93E1E0087A1000FC00FE00F4078
:00000001FF
;PIC18F4550
;CRC=2AFC  CREATED="08-nov.-23 22:49"
