:1000000048EF02F057495245205452494D4D455250
:100010000A2050726F672E204176616E7A616461AA
:1000200000000C4573636F67696F202569000C45FC
:1000300073636F67696F20256900EA6A960EE96E3F
:10004000EF500DE0020E016E006A002EFED7012E69
:10005000FBD7970E006E002EFED7EF2EF3D71200BF
:100060009D39F00B006E0F0E8C1400108C6E00008A
:100070008C8000D000D08C9012008350006E00382D
:100080000F0B016E12000F0E9514F009956E8C8403
:1000900000008C800000F1DF01C09DF08C9000001A
:1000A0008C8000D0EADF01C09CF08C900F0E95147C
:1000B000956E9D39006EF00E001600509C11016E79
:1000C00067EF00F09590959295948C92DCD701C0E3
:1000D0009CF001BEFBD78C929AB18C8200008C946C
:1000E00000008C909B399C6F0F0E9C179CC09DF05C
:1000F000B7DF9B510F0B9C6F9D6FB2DF1200280E74
:100100008F6F0C0E906F010E916F060E926F8C9098
:100110008C928C940F0E9514956E95909592959463
:100120000F0E966F8ADF010E8E6F8E51030808E363
:10013000030E9D6F95DF050E966F7FDF8E2BF5D733
:10014000020E9D6F8DDF050E966F77DF8E6B8E51E1
:1001500003080DE3036A8E518F0FE96E000E032032
:10016000EA6EEFCF9BF09A6BADDF8E2BF0D724EFCA
:1001700003F0972D01D003D0400E986F01D0986BFB
:10018000010E965D982798518009996F9A6B9B6F25
:1001900099DF12009551070A07E00B0A0AE0060AE8
:1001A00010E0020A14E018D0010E966F976FE1DF9D
:1001B00018D09A6B010E9B6F85DF020E966F3DDFA4
:1001C00010D0010E966F020E976FD3DF0AD09A6B94
:1001D000100E9B6F77DF05D0010E9A6F95C09BF0D4
:1001E00071DF12000900F5520CE0F6CF8EF0F7CF68
:1001F0008FF0F5CF95F0CEDF8EC0F6FF8FC0F7FF02
:10020000F1D72EEF03F094519619800B986F94AFAD
:1002100005D0931F941F932BD8B4942B96AF05D081
:10022000951F961F952BD8B4962B93519503F3CF1A
:1002300001F0F4CF00F09603F3500026945195039B
:10024000F3500020026E98AF05D0011E021E012A55
:10025000D8B4022AB8EF01F0EF520FE0EACF94F0E1
:10026000E9CF93F0EFCF95F095DF94C0EAFF93C00C
:10027000E9FFE92AD8B4EA2AEFD7CDEF01F090815F
:10028000210E8E25E96E000E8F21EA6EEF6A9484AE
:1002900082B485D0948082A00CD0948082B0FDD7A7
:1002A000210E8E25E96E000E8F21EA6EEF069081F9
:1002B0000ED0948282A20BD0948282B2FDD7210EFE
:1002C0008E25E96E000E8F21EA6EEF2A9081210EB5
:1002D0008E25E96E000E8F21EA6EEFAE18D0210E4A
:1002E0008E25016E000E8F21036E01C091F0926F7A
:1002F000200E8E25E96E000E8F21EA6EEFCF93F06F
:1003000003C0EAFF01C0E9FF9351EF6E1CD0210E3C
:100310008E25E96E000E8F21EA6EEFCF91F0200E50
:100320008E25E96E000E8F21EA6EEF5091BF0BD043
:10033000915D09E008E3210E8E25E96E000E8F2104
:10034000EA6EEF6A000E90A129D0210E8E25E96E8B
:10035000000E8F21EA6E926BEFCF91F091BF920762
:1003600092C094F091C093F0966B020E956F4BD7AC
:1003700002C003F001508E25E96E8F510220EA6E13
:10038000ECCF92F0ED52EFCF91F00C0E956F02DFB3
:1003900092C0EAFF91C0E9FF5FD7909178D7120031
:1003A0000900F6CF90F0F7CF91F0F5CF95F0F2DE9F
:1003B00090C0F6FF91C0F7FF8F2FF2D71200965131
:1003C000016A955D03E295C000F00CD0006A080E4A
:1003D000976F953700369651005CD8B0006E0136A5
:1003E000972FF7D71200200E90A9300E916F8FC073
:1003F00000F08FAF08D0001E002A00C08FF02D0E35
:10040000916F908F908101508FC095F0640E966F20
:10041000D6DF00C08FF0300E0124926F8FC095F0B0
:100420000A0E966FCCDF300E0024946F300E01243C
:10043000936F91C000F0300E925D04E0908390BF06
:10044000908512D091C092F0200E916F300E935D86
:1004500004E0908190BF908307D0D8A4908104E1FC
:1004600092C093F0200E926F90B505D090B306D055
:1004700090B107D009D091C095F08CDE92C095F074
:1004800089DE93C095F086DE94C095F083DE12007D
:10049000F86AD09E700ED36ED350056A046AC150BC
:1004A000C00B0F09C16E070EB46E070E066E7C0EF0
:1004B000076E0B0E086E7C0E096E520E2C6E650ECA
:1004C0002D6E610E2E6E6C0E2F6E690E306E7A0ED2
:1004D000316E610E326E720E336E200E346E430E2C
:1004E000356E6F0E366E720E376E740E386E650E88
:1004F000396E3A6A430E3B6E6F0E3C6E6E0E3D6E69
:10050000660E3E6E690E3F6E670E406E750E416E52
:10051000720E426E610E436E630E446E690E456E3E
:100520006F0E466E6E0E476E650E486E730E496E08
:100530004A6A0B6A2C0E0A6E0D6A3B0E0C6E0E6A2E
:100540000F6A106A116A126A136A146A156A166AC7
:10055000176A186A196A1A6A1B6A1C6A1D6A1E6A77
:100560001F6A206A216A226A236A246A256A266A27
:10057000276A286A296A010E2A6E2B6A4D0E6D6F52
:10058000650E6E6F640E6F6F690E706F640E716F23
:10059000610E726F736B430E746F610E756F6E0E2A
:1005A000766F740E776F690E786F640E796F610ED7
:1005B0007A6F640E7B6F7C6B520E7D6F650E7E6F63
:1005C000610E7F6F6C0E806F690E816F7A0E826F85
:1005D000610E836F720E846F200E856F500E866FD2
:1005E000650E876F6C0E886F610E896F640E8A6F5F
:1005F0006F0E8B6F3F0E8C6F8D6B4C6A6D0E4B6E5A
:100600004E6A740E4D6E506A7D0E4F6E516A526A7C
:10061000536A546A556A566A576A586A596A5A6AD6
:100620005B6A5C6A5D6A5E6A5F6A606B616B626B83
:10063000636B646B656B666B676B686B696B6A6B2E
:10064000020E6B6F6C6B5BD5030E966F010E976F8E
:1006500090DD040EF66E000EF76EC4D5040E8E6F9C
:10066000FA0E966FEADC8E2FFBD70C0E956F92DD9B
:100670008F6B0A0E8E6F03DE010E2B248E6F220EFF
:10068000F66E000EF76E090E8F6F8ADE8EC08FF049
:10069000180E906FA8DE080E8E6FFA0E966FCDDCE6
:1006A0008E2FFBD78F6B4B0E8E6FE9DD010E6C2505
:1006B0008E6F2E0EF66E000EF76E090E8F6F70DEC7
:1006C0008EC08FF0180E906F8EDE080E8E6FFA0EB1
:0C06D000966FB3DC8E2FFBD7CBD7030056
:020000040030CA
:0E00000020C93E1E0087A1000FC00FE00F4078
:00000001FF
;PIC18F4550
;CRC=7F35  CREATED="04-nov.-23 23:05"
