:0400000081EF0BF091
:08000800046ED8CF05F0E0CF33
:1000100006F00001E9CF0CF0EACF07F0E1CF08F0DD
:10002000E2CF09F0D9CF0AF0DACF0BF0F3CF12F01C
:10003000F4CF13F0FACF14F0F5CF15F0F6CF16F099
:10004000F7CF17F000C00EF001C00FF002C010F0A3
:1000500003C011F09DAA30EF00F09EBA05EF03F047
:100060000EC000F00FC001F010C002F011C003F08C
:100070000CC0E9FF07C0EAFF078E08C0E1FF09C016
:10008000E2FF0AC0D9FF0BC0DAFF12C0F3FF13C0B2
:10009000F4FF14C0FAFF15C0F5FF16C0F6FF17C035
:1000A000F7FF045006C0E0FF05C0D8FF1000F76A54
:1000B000BE0FF66E000EF7220900F5501200207CEC
:1000C000057C047C027C017CF76AD80FF66E000E7A
:1000D000F7220900F550120050656C61646F20280A
:1000E0006D6D293A0000F76AF60FF66E000EF722E2
:1000F0000900F55012004C6F6E6769747564202812
:100100006D6D293A0000F76A160FF66E010EF722A0
:100110000900F550120043616E74696461643A002D
:100120009EA8FED7AD6E1200EACF9AF0E9CF99F003
:1001300093AF08D0998F99A9992B921F931F922B57
:10014000D8B4932B9339F009956F9527E20F966FEA
:10015000320F986F93510F0B962796279827E90F28
:10016000976F9727972792390F0B972798279737DD
:100170009837981F983792510F0B98279537070E8D
:10018000946F0A0E97079827FDE396079727FDE3DC
:1001900095079627FDE394079527FDE3EA6A940EF9
:1001A000E96E070E9915999DED52991507E199B9D8
:1001B000EE5299B903D0200E006E20D0E926000E31
:1001C000EA22E950980803E1EA5201E1998DEF50E3
:1001D000006E08E199BD06D099B914D099B702D044
:1001E000200E0BD099AF06D02D0E006EED50999DCC
:1001F000999F04D099879999300E002600509EA8A7
:10020000FED7AD6EEE5099ADDCD71FEF03F0C7C03F
:10021000CAF0C6C0CCF0C5C0CBF0C95303E1C85189
:10022000000816E2CCC003F0CBC0E9FFCCC0EAFF67
:10023000CA51EF5C05E1CBC001F0CCC002F00BD09D
:10024000CB2BD8B4CC2BC851D8B4C907C807E5D735
:10025000000E016E026E1200C751C919800BCB6FE0
:10026000C7AF05D0C61FC71FC62BD8B4C72BC9AF91
:1002700005D0C81FC91FC82BD8B4C92BC651C80385
:10028000F3CF01F0F4CF00F0C903F3500026C751BB
:10029000C803F3500020026ECBAF05D0011E021E32
:1002A000012AD8B4022AA6EF02F09E6B9D6B300E95
:1002B000A06F310EA16F320EA26F330EA36F340EFA
:1002C000A46F350EA56F360EA66F370EA76F380ECA
:1002D000A86F390EA96F610EAA6F620EAB6F630E25
:1002E000AC6F640EAD6F650EAE6F660EAF6F670ECE
:1002F000B06F680EB16F690EB26F6A0EB36F6B0E9E
:10030000B46F6C0EB56F6D0EB66F6E0EB76F6F0E6D
:10031000B86F700EB96F710EBA6F730EBB6F740E3B
:10032000BC6F750EBD6F760EBE6F770EBF6F780E09
:10033000C06F790EC16F7A0EC26FC36B93C098F015
:1003400092C097F098C003F097C0E9FF98C0EAFF09
:10035000EF50200804E1972BD8B4982BF3D798C01E
:1003600003F097C0E9FF98C0EAFFEF502D0809E0BD
:1003700098C003F097C0E9FF98C0EAFFEF502B0840
:1003800009E198C0EAFF9751972BD8B4982BE96EF2
:10039000EF5001D02B0E9F6F9F512D080AE096BFA2
:1003A00008D0962D01D005D096BF05D096512408CF
:1003B00002E209D184D096534CE0965110081FE117
:1003C00098C003F097C0E9FF98C0EAFFEF503008EB
:1003D00016E1010E9725E96E000E9821EA6EEF50A6
:1003E000780809E0010E9725E96E000E9821EA6E63
:1003F000EF50580804E1020E9727000E98239651FB
:1004000008080DE198C003F097C0E9FF98C0EAFF23
:10041000EF50300804E1010E9727000E9823965103
:10042000020816E198C003F097C0E9FF98C0EAFF00
:10043000EF5030080DE1010E9725E96E000E98216E
:10044000EA6EEF50620804E1020E9727000E98232F
:1004500036D098C003F097C0E9FF98C0EAFFEF508C
:10046000300803E00A0E966F2AD0010E9725E96E38
:10047000000E9821EA6EEF50780809E0010E9725EA
:10048000E96E000E9821EA6EEF50580807E1100E51
:10049000966F020E9727000E982311D0010E972514
:1004A000E96E000E9821EA6EEF50620806E1020E36
:1004B000966F9727000E982302D0080E966F98C06B
:1004C0009AF097C099F098C003F097C0E9FF98C0E0
:1004D000EAFFEF50300804E1972BD8B4982BF3D7FC
:1004E00098C003F097C0E9FF98C0EAFFEFCFC4F0CF
:1004F000C451400806E2C4515A0803E3C45120091C
:1005000001D0C451C46FC66BA00EC56FC4C0C7F084
:10051000C96B96C0C8F0C8BFC90779DE02C09CF09D
:1005200001C09BF09B5302E19C5347E0036A965144
:10053000006EE8BE0306C46F03C0C5F09EC0C7F0DE
:100540009DC0C6F003C0C9F0C86F86D601C0C4F014
:10055000A00E9B5D006E000E9C59036E005001249E
:10056000016E0250032201C09DF003C09EF0972B44
:10057000D8B4982B98C003F097C0E9FF98C0EAFF61
:10058000EFCFC4F0C451400806E2C4515A0803E357
:10059000C451200901D0C451C46FC66BA00EC56FF1
:1005A000C4C0C7F0C96B96C0C8F0C8BFC9072FDE6A
:1005B00002C09CF001C09BF0B5D79751995D14E142
:1005C00098519A5D11E100019451951109E094C090
:1005D000E9FF95C0EAFF93C0ECFFED5292C0EFFF38
:1005E000000E016E026E10D09451951109E094C076
:1005F000E9FF95C0EAFF98C0ECFFED5297C0EFFF0E
:100600009DC001F09EC002F012009EAAFED7AECFA0
:100610007EF07E512B0815E1215206E120501D0885
:1006200003E32D0E7DDD0CD02B0E9EA8FED7AD6E04
:10063000090EE96E21C093F020C092F075D522809A
:1006400063D022B261D07E512A085EE18D6B8D515C
:1006500001080DE3036A8D517F0FE96E000E032040
:10066000EA6E9EAAFED7AECFEFFF8D2BF0D7816B3F
:100670008E6B8E5104080DE3036A8E51820FE96E72
:10068000000E0320EA6E9EAAFED7AECFEFFF8E2BA0
:10069000F0D7876B8F6B8F5103080DE3036A8F517F
:1006A000880FE96E000E0320EA6E9EAAFED7AECF39
:1006B000EFFF8F2BF0D78C6B936B7F0E926F956B48
:1006C000900E946F0A0E966FF0DD02C024F001C008
:1006D00023F0936B820E926F956B900E946F0A0EBF
:1006E000966FE3DD02C026F001C025F0936B880E03
:1006F000926F956B900E946F0A0E966FD6DD02C0C6
:1007000028F001C027F022829E9A30EF00F00C20E2
:100710002057495245205452494D4D45520A2050C8
:10072000726F672E204176616E7A616461000C43BE
:100730006172726574652045736361736F004E75F5
:1007400065766F20436172726574652D3E002020CE
:1007500020202020202020202020202020000C20CD
:100760002020526563696269656E646F20202000F5
:100770002020202020202020202020202020202079
:1007800000000C4361626C653A2025356C75206D64
:100790006D004E75657661204F7264656E20202D68
:1007A0003E0020202020202020202020202020204B
:1007B00020000C2025346C75204361626C65287321
:1007C0002920200A2020202025356C75206D6D20E1
:1007D000202020000C4F5244454E2046494E414CAB
:1007E000495A4144410A205675656C766120507221
:1007F0006F6E746F202100000C4361626C652025D0
:10080000346C75202F25346C750A00002D2D2D00B9
:100810002D2D2D000C436F6C6F71756520656C205C
:100820004341424C450A656E20737520706F7369B1
:1008300063696F6E00000C456E726F6C6C617220A4
:10084000202020202D3E0A446574656E65722020AC
:10085000202020203C2D00000C52656361726761EE
:1008600020436F6D706C6574610A436F6E74696EBE
:1008700075617220202020202D3E0000F2CF54F020
:10088000F29EA96AA69CA69EA680A85054BEF28E8F
:10089000526EF2CF55F0F29E010EA96EA69CA69E56
:1008A000A680A85055BEF28E536E546A5450521012
:1008B00053C003F0016E53C002F0BCEF0BF068515F
:1008C000070B006E6831016E013201321F0E0116F6
:1008D00001506A25E96E000E6B21EA6E016A012A59
:1008E000002A01D00136002EFDD7695303E00150E4
:1008F000EF1203D0011E0150EF161200EA6A740EC7
:10090000E96EEF500DE0020E016E006A002EFED778
:10091000012EFBD7970E006E002EFED7EF2EF3D7D9
:1009200012007BB102D08A9801D08A8893987BB359
:1009300002D08A9A01D08A8A939A7BB502D08A9C87
:1009400001D08A8C939C7BB702D08A9E01D08A8E7C
:10095000939E00008A84939400D000D08A9493944C
:1009600012007C6B9388000E81B8010E7C13938A71
:10097000000E81BA010E006ED890003600507C1334
:10098000938C000E81BC010E006E00360036FC0E0A
:10099000001600507C13938E000E81BE010E006E77
:1009A000003600360036F80E001600507C137CC06E
:1009B00001F012009388938A938C938E8A8293928B
:1009C00000008A8493940000CCDF01C07BF08A94FD
:1009D000939400008A84939400D0C3DF01C07AF01E
:1009E0008A9493949398939A939C939E7B39006EE8
:1009F000F00E001600507A11016E05EF05F0939489
:100A0000939093928A909390D5D701C07AF001BECB
:100A1000FBD7785302E18A9001D08A80939000003E
:100A20008A92939200008A94939479397A6F0F0E88
:100A30007A177AC07BF075DF79510F0B7A6F7B6F75
:100A400070DF1200280E536E0C0E546E010E556EA0
:100A5000060E566E8A9493948A9093908A929392FB
:100A60009398939A939C939E9394939093920F0E42
:100A7000746F44DF010E526E5250030808E3030EF8
:100A80007B6F4FDF050E746F39DF522AF5D7020EE8
:100A90007B6F47DF050E746F31DF526A52500308D7
:100AA0000DE3036A5250530FE96E000E0320EA6E05
:100AB000EFCF79F0786BA3DF522AF0D7FDEF0BF080
:100AC000752D01D003D0400E766F01D0766B010EEC
:100AD000745D762776518009776F786B796F8FDF39
:100AE00012007351070A07E00B0A0AE0060A10E039
:100AF000020A14E018D0010E746F756FE1DF18D090
:100B0000786B010E796F7BDF020E746FF7DE10D009
:100B1000010E746F020E756FD3DF0AD0786B100E62
:100B2000796F6DDF05D0010E786F73C079F067DFE4
:100B300012000900F5520CE0F6CF5AF0F7CF5BF047
:100B4000F5CF73F0CEDF5AC0F6FF5BC0F7FFF1D7E9
:100B50001200600E636B626F010E6225646F000EFF
:100B60006321656F63C003F06251E96E03C0EAFF61
:100B7000EFCF66F0F250006EF29EA96A66C0A8FF41
:100B8000A69CA69EA6840F01550EA76EAA0EA76E60
:100B9000A682A6B2FED7A6940050F21265C003F05A
:100BA00000016451E96E03C0EAFFEFCF66F0F25036
:100BB000006EF29E010EA96E66C0A8FFA69CA69EBE
:100BC000A6840F01550EA76EAA0EA76EA682A6B226
:100BD000FED7A6940050F212000133EF06F06851E0
:100BE0006A03F3CF01F0F4CF00F06B03F35000265B
:100BF00069516A03F3500020026E1200016A026A12
:100C0000006A036A6B5102E16A5118E0100E6C6FC2
:100C1000D89068376937003603366B51035C02E1C0
:100C20006A51005C07E36A51005ED8A003066B516D
:100C3000035ED880013602366C2FEAD712005C5270
:100C400002E15D5210E05E5205E05DC021F05CC043
:100C500020F004D05C50205E5D50215A21C061F02C
:100C600020C060F076D75F6A5F50040855E321C06A
:100C700069F020C068F06B6B050E6A6FB0DF02C0D0
:100C800061F001C060F002C069F001C068F0270E99
:100C90006B6F100E6A6FB2DF02C003F00150035297
:100CA00003E101505F5C1CE2D8905F34036A57ECAB
:100CB00000F00900F5CF03F0606F03C061F0686FCA
:100CC000010E696F0F0E6B6F890E6A6FF8DD60C0E1
:100CD00068F0696B0F0E6B6F920E6A6FF0DD1AD0C1
:100CE000D8905F34036A57EC00F00900F5CF03F0A9
:100CF000606F03C061F0686F696B0F0E6B6F890ED8
:100D00006A6FDDDD60C068F0696B0F0E6B6F920E6D
:100D10006A6FD5DD5F2AA8D71200216A206A140EF7
:100D2000F66E080EF76E05DFC282C2B2FED7C4CFE0
:100D300002F0C3CF01F0C4CF5AF0C3CF59F0C45072
:100D4000030807E303E15950830803E3036A010E34
:100D500002D0036A000E0310E7E0556A546A536A32
:100D6000526A360EF66E080EF76E0001E2DE2DC0F6
:100D700068F0010E696F0F0E6B6F890E6A6F9FDD51
:100D80002DC068F0696B0F0E6B6F920E6A6F97DD66
:100D900029C068F0010E696F0F0E6B6F890E6A6FC4
:100DA0008EDD29C068F0696B0F0E6B6F920E6A6F53
:100DB00086DD5690586A576A586A576AC282C2B22C
:100DC000FED7C4CF02F0C3CF01F0C4CF5AF0C3CFD7
:100DD00059F0C450030807E303E15950830803E3C3
:100DE000036A010E02D0036A000E0310D8B47CD04F
:100DF000958E83AE04D05680036A010E05D0958887
:100E000083A802D05690000E575032082EE1585257
:100E10002CE156A02AD029C068F0010E696F0F0E90
:100E20006B6F890E6A6F4BDD29C068F0696B0F0E1E
:100E30006B6F920E6A6F43DD29C068F0696B0F0E0D
:100E40006B6F890E6A6F3BDD29C068F0696B0F0E0E
:100E50006B6F920E6A6F33DD010E5226D8B0532AA3
:100E6000D8B4542AD8B4552A28D05750640825E15C
:100E7000585223E156A021D02DC068F0010E696FB1
:100E80000F0E6B6F890E6A6F1ADD2DC068F0696BEB
:100E90000F0E6B6F920E6A6F12DD2DC068F0696BDA
:100EA0000F0E6B6F890E6A6F0ADD2DC068F0696BDB
:100EB0000F0E6B6F920E6A6F02DD010E746F1EDDF6
:100EC000585205E15750640802E356B006D0586AFC
:100ED000576A58C003F0575006D058C003F0575017
:100EE000572AD8B4582A6AD7580EF66E080EF76EED
:100EF00020DE958E83BE19D0C282C2B2FED7C4CF87
:100F000002F0C3CF01F0C4CF5AF0C3CF59F0C450A0
:100F1000030806E303E15950830802E3010E01D000
:100F2000000E000A01E01DD7E4D72DC068F0696B00
:100F30000F0E6B6F890E6A6FC2DC2DC068F0696B93
:100F40000F0E6B6F920E6A6FBADC29C068F0696B86
:100F50000F0E6B6F890E6A6FB2DC29C068F0696B87
:100F60000F0E6B6F920E6A6FAADC586A576AC282C4
:100F7000C2B2FED7C4CF02F0C3CF01F0C4CF5AF043
:100F8000C3CF59F0C450030807E303E15950830865
:100F900003E3036A010E02D0036A000E0310D8A413
:100FA00073D0525207E1535205E1545203E15552B6
:100FB000D8B46AD0575032082CE158522AE129C0DF
:100FC00068F0010E696F0F0E6B6F890E6A6F77DC28
:100FD00029C068F0696B0F0E6B6F920E6A6F6FDC41
:100FE00029C068F0696B0F0E6B6F890E6A6F67DC42
:100FF00029C068F0696B0F0E6B6F920E6A6F5FDC31
:10100000FF0E5226D8A05326D8A05426D8A0552685
:1010100026D05750640823E1585221E12DC068F0D2
:10102000010E696F0F0E6B6F890E6A6F48DC2DC061
:1010300068F0696B0F0E6B6F920E6A6F40DC2DC00B
:1010400068F0696B0F0E6B6F890E6A6F38DC2DC00C
:1010500068F0696B0F0E6B6F920E6A6F30DC010ED9
:10106000746F4CDC585203E15750640806E2586A2A
:10107000576A58C003F0575006D058C003F0575075
:10108000572AD8B4582A73D753C05DF052C05CF0C9
:10109000010E5E6ED4DD5DEF0CF00900F6CF5BF063
:1010A000F7CF5CF0F5CF73F01CDD5BC0F6FF5CC0E2
:1010B000F7FF5A2EF2D71200EACF72F0E9CF71F0A3
:1010C0006B39F0096D6F6D27E20F6E6F320F706F25
:1010D0006B510F0B6E276E277027E90F6F6F6F270D
:1010E0006F276A390F0B6F2770276F377037701FA4
:1010F00070376A510F0B70276D37070E6C6F0A0E31
:101100006F077027FDE36E076F27FDE36D076E27FE
:10111000FDE36C076D27FDE3EA6A6C0EE96E070ECE
:101120007115719DE926000EEA22E950700803E16D
:10113000EA5201E1718DEF50006E08E171BD06D0F9
:1011400071B913D071B702D0200E03D07187719995
:10115000300E0026EACF6BF0E9CF6AF000C073F0E2
:10116000C0DC6BC0EAFF6AC0E9FFEE5071ADDDD7AD
:1011700012005F6A5E6A5BC05DF05AC05CF02FC00F
:1011800068F0696B0F0E6B6F890E6A6F5FEC04F08D
:101190002FC068F0696B0F0E6B6F920E6A6F5FEC79
:1011A00004F02BC068F0696B0F0E6B6F890E6A6FCD
:1011B0005FEC04F02BC068F0696B0F0E6B6F920E42
:1011C0006A6F5FEC04F0656B646B676B666B5F5214
:1011D0000AE15E5208E167515D5CD8A072D003E17C
:1011E0005C50665D6EE2645132082BE1655329E183
:1011F00029C068F0010E696F0F0E6B6F890E6A6F60
:101200005FEC04F029C068F0696B0F0E6B6F920EF3
:101210006A6F5FEC04F029C068F0696B0F0E6B6FAA
:10122000890E6A6F5FEC04F029C068F0696B0F0EDD
:101230006B6F920E6A6F5FEC04F0662BD8B4672B6D
:101240002AD06451640827E1655325E12DC068F078
:10125000010E696F0F0E6B6F890E6A6F5FEC04F001
:101260002DC068F0696B0F0E6B6F920E6A6F5FECAA
:1012700004F02DC068F0696B0F0E6B6F890E6A6FFA
:101280005FEC04F02DC068F0696B0F0E6B6F920E6F
:101290006A6F5FEC04F0010E746F7EEC04F065532E
:1012A00003E16451640806E2656B646B65C003F09A
:1012B000645106D065C003F06451642BD8B4652B2B
:1012C00086D71200596A010E586E5950575C70E368
:1012D00003E15850565C6CE3F80EF66E070EF76E9D
:1012E000070E5A6EDADE010EE96E59C06BF058C077
:1012F0006AF0E2DE200E736F71EC05F02F0E736F53
:1013000071EC05F0010EE96E57C06BF056C06AF043
:10131000D3DE0A0E736F71EC05F053C05BF052C060
:101320005AF027DF0C0EF66E080EF76E02DC55C081
:101330005BF054C05AF01DDF736971EC05F07369FE
:1013400071EC05F0736971EC05F0736971EC05F0EF
:10135000736971EC05F0736971EC05F0736971ECF8
:1013600005F0736971EC05F0736971EC05F0736950
:1013700071EC05F053C05BF052C05AF0FADE100E6B
:10138000F66E080EF76E99EC05F0D89052345A6E4E
:1013900053345B6E54505A2655505B225BC05DF04F
:1013A0005AC05CF05E6A4BDC582AD8B4592A8DD7F3
:1013B000020E5A6EFA0E746F7EEC04F05A2EFAD7B3
:1013C0001200EF5210E0EACF6BF0E9CF6AF0EFCFF6
:1013D00073F071EC05F06BC0EAFF6AC0E9FFE92A1F
:1013E000D8B4EA2AEED760EF0AF05E805E925F6AB8
:1013F000606B59C003F058C0E9FF59C0EAFFECCF59
:1014000069F0ED52EFCF68F069515B5C10E303E1E6
:101410005A50685D0CE259C003F058C0E9FF59C04A
:10142000EAFF5BC0ECFFED525A50EF6E1ED059C080
:1014300003F058C0E9FF59C0EAFFECCF69F0ED5264
:10144000EFCF68F05D50695D10E303E168515C5CCB
:101450000CE258C0E9FF59C0EAFF5DC0ECFFED5255
:101460005CC0EFFF5DC003F05C505DC062F05CC02B
:1014700061F0625303E16151090811E262C069F051
:1014800061C068F06B6B0A0E6A6FFEEC05F002C07B
:1014900062F001C061F05F505F2A602BEAD756C04E
:1014A00001F057C003F056C068F057C069F00C0E49
:1014B000736F71EC05F057C0EAFF56C0E9FF81D7A2
:1014C0000A0E736F71EC05F0646B636B60BF0BD138
:1014D0006051800A006E5F50800A005C02E0D8B064
:1014E00002D1666B010E656F010E746F7EEC04F025
:1014F000632BD8B4642B632D06D0645304E15E8063
:10150000036A010E11D06351F40805E1642D03D084
:101510005E82010E09D06351E80806E164510308B8
:1015200003E1646B636B63515EA022D0060E746F9F
:10153000020E756F60EC05F059C003F058C0E9FF6A
:1015400059C0EAFFECCF69F0ED52EFCF68F0010E21
:101550006A6F300E736F71EC05F06A2FFAD7080EC0
:10156000E96E69C06BF068C06AF0A6DD5E9010D0CD
:101570005EA20ED00B0ED8806055686F746F020E9D
:10158000756F60EC05F05F0E736F71EC05F05E92A5
:10159000958E83BE03D0958883A811D0958E83AE97
:1015A00003D06051600702D06051602B646B636BA5
:1015B000958E83BEFDD7958883B8FAD793D0958A48
:1015C00083BA03D0958C83AC8DD0676B60BF13D08A
:1015D0006051675D10E26751672B66C069F065C0B6
:1015E00068F06B6B0A0E6A6FEFEC05F002C066F0F4
:1015F00001C065F0EBD7958C83AC3BD058C0E9FFB8
:1016000059C0EAFFECCF69F0ED52EFCF68F06A6B9A
:101610006B6B6551685F6651695B000E6A5B6B5B63
:101620006BBF1BD06B5309E16A5307E15B50695DE7
:1016300014E303E15A50685D10E358C0E9FF59C054
:10164000EAFF6551EF5C006E6651EC58036E005086
:10165000ED52EF6E03C0ECFF0BD059C003F058C041
:10166000E9FF59C0EAFF5BC0ECFFED525AC0EFFF43
:1016700031D0958A83AA2ED059C003F058C0E9FF13
:1016800059C0EAFFECCF69F0ED52EFCF68F0655139
:1016900068276651692369515D5C13E303E1685172
:1016A0005C5C0FE358C0E9FF59C0EAFF6551EF24C5
:1016B000016E6651EC20036EED5201C0EFFFEC6E3F
:1016C00009D058C0E9FF59C0EAFF5DC0ECFFED52F8
:1016D0005CC0EFFF646B636B958C83BCFDD7958A10
:1016E00083BAFAD7F3D65F50800A006E6051800A41
:1016F000005C04E2010E016E03D002D0000E016E08
:101700001200F86AD09E078E700ED36ED350B89632
:101710000C0EAF6EA20EAC6E900EAB6E216A206AFC
:1017200022902292366A356AC150C00B0F09C16EF1
:10173000070EB46E1A6A1B6A236A246A256A266A2F
:10174000276A286A190E296E7C0E2A6E180E2B6ED7
:101750007C0E2C6E110E2D6E7C0E2E6E120E2F6EC8
:101760007C0E306E1A0E316E7C0E326E1B0E336E96
:101770007C0E346E3EEF04F002C021F001C020F078
:10178000376A375004081EE3D8903734036A57ECA1
:1017900000F00900F5CF03F0526E03C053F0686FFC
:1017A000696B0F0E6B6F890E6A6F5FEC04F052C0AD
:1017B00068F0696B0F0E6B6F920E6A6F5FEC04F04E
:1017C000372ADFD7C00EF2129D8AC050C00BC06E00
:1017D000C08EC280010E926EC150C00B1E09C16E38
:1017E000000E016EC250C30B0110C26E060E006ED9
:1017F000002EFED7000022EF05F00E0EF66E070E4B
:10180000F76E99EC05F0040E526EFA0E746F7EECD2
:1018100004F0522EFAD7215203E120501D0808E2AD
:10182000215026084BE2FF0A03E12050100846E24F
:101830002E0EF66E070EF76E99EC05F0396A386ACF
:10184000958E83BE35D0010E746F020E756F60ECFD
:1018500005F0382C09D0395207E13E0EF66E070E1E
:10186000F76E99EC05F00BD03850F40808E1392CEC
:1018700006D04E0EF66E070EF76E99EC05F0010ECF
:10188000746F7EEC04F0395002080BE2FF0A03E1AA
:101890003850E80806E2396A386A39C003F038502F
:1018A00006D039C003F03850382AD8B4392AC8D7FE
:1018B000958E83BEFDD78DEF06F0ADD75D6A5C6A6D
:1018C0005E6A1FEC06F022A045D05E0EF66E070E93
:1018D000F76E000199EC05F0010E3A6E22B223D0AA
:1018E000010E746F020E756F60EC05F0700EF66EEF
:1018F000070EF76E99EC05F03AC074F0020E756FA2
:1019000060EC05F02D0E736F71EC05F0640E746FD2
:101910007EEC04F03A50100803E2010E3A6E02D059
:101920003A503A2ADBD723C052F024C053F025C0E6
:1019300054F026C055F027C056F028C057F0C2DC3E
:10194000229022922A0E90EC00F0640E746F7EECCE
:1019500004F03AD1820EF66E070EF76E080E5A6E3C
:1019600000014DEC08F0000EE96E21C06BF020C0C4
:101970006AF05CEC08F08E0EF66E070EF76E030E42
:101980005A6E4DEC08F03C6A3B6A958E83BE38D0A7
:10199000010E746F020E756F60EC05F03B2C09D0E0
:1019A0003C5207E1920EF66E070EF76E99EC05F0C9
:1019B0000BD03B50F40808E13C2C06D0A20EF66E8A
:1019C000070EF76E99EC05F022A001D07CD7010E2E
:1019D000746F7EEC04F03C5002080BE2FF0A03E156
:1019E0003B50E80806E23C6A3B6A3CC003F03B50CF
:1019F00006D03CC003F03B503B2AD8B43C2AC5D7A4
:101A0000958E83BEFDD7050E3D6E3E6A3F6A406AE5
:101A1000416A426AEA6A430EE96E0D0E016EF76A88
:101A2000000E000164EC00F00A000900F5CFEEFFA3
:101A3000012EFBD7576A430E566E596A3D0E586EFB
:101A40005B6A5A6A5D6A140E5C6ECFDC015201E07B
:101A50003AD7EA6A430EE96E0F0E016EF76A000E7E
:101A6000000173EC00F00A000900F5CFEEFF012E33
:101A7000FBD7D8903D34026E3E34036E0250205C9A
:101A8000546E03502158556E576A430E566E596A6C
:101A90003F0E586E5B6A0A0E5A6E55C05DF054C018
:101AA0005CF0A3DC015201E0B5D7EA6A430EE96EAF
:101AB0000A0E016EF76A000E000183EC00F00A00C6
:101AC0000900F5CFEEFF012EFBD7D8903D34026E12
:101AD0003E34036E02503F24016E4050032201C089
:101AE00054F003C055F021C069F020C068F003C075
:101AF0006BF001C06AF0FEEC05F002C055F001C0C9
:101B000054F0576A430E566E596A410E586E5B6A1E
:101B1000010E5A6E02C05DF001C05CF066DC01523D
:101B200001E097D70C0E736F71EC05F0200E736F08
:101B300071EC05F0010EE96E42C06BF041C06AF035
:101B40005CEC08F0B80EF66E070EF76E100E5A6ECB
:101B50004DEC08F0000EE96E40C06BF03FC06AF03B
:101B60005CEC08F0CC0EF66E070EF76E070E5A6EA0
:101B70004DEC08F0958E83BE08D0958883A804D0DC
:101B8000958883B8FDD791D7F5D7958E83BEFDD7BD
:101B90003DC052F03EC053F03FC054F040C055F03D
:101BA00041C056F042C057F062EC09F0D40EF66E18
:101BB000070EF76E99EC05F0080E526EFA0E746F70
:0C1BC0007EEC04F0522EFAD726D603006B
:020000040030CA
:0E00000020C93E1E0087A1000FC00FE00F4078
:00000001FF
;PIC18F4550
;CRC=688D  CREATED="17-dic.-23 02:43"
