:040000008BEF04F08E
:08000800046ED8CF05F0E0CF33
:1000100006F00001E9CF0CF0EACF07F0E1CF08F0DD
:10002000E2CF09F0D9CF0AF0DACF0BF0F3CF12F01C
:10003000F4CF13F0FACF14F0F5CF15F0F6CF16F099
:10004000F7CF17F000C00EF001C00FF002C010F0A3
:1000500003C011F09DAA30EF00F09EBA83EF00F0CC
:100060000EC000F00FC001F010C002F011C003F08C
:100070000CC0E9FF07C0EAFF078E08C0E1FF09C016
:10008000E2FF0AC0D9FF0BC0DAFF12C0F3FF13C0B2
:10009000F4FF14C0FAFF15C0F5FF16C0F6FF17C035
:1000A000F7FF045006C0E0FF05C0D8FF1000F76A54
:1000B000BE0FF66E000EF7220900F55012004361E4
:1000C0006E74696461643A00F76AD80FF66E000EC8
:1000D000F7220900F55012004C6F6E676974756461
:1000E00020286D6D293A0000F76AF80FF66E000EB1
:1000F000F7220900F550120050656C61646F2028EA
:100100006D6D293A00009E9A30EF00F05749524534
:10011000205452494D4D45520A2050726F672E208F
:100120004176616E7A61646100000C2121204E4F9E
:1001300020534520444554454354410A4341424CD1
:100140004520444953504F4E49424C4500000C4312
:1001500061626C653A2025356C64206D6D0A4E75C0
:10016000657661204F7264656E20202D2D3E000063
:100170000C2025346C64204361626C65287329204F
:10018000200A2020202025356C64206D6D20202041
:1001900020000C4F5244454E2046494E414C495A8E
:1001A0004144410A205675656C76612050726F6E2D
:1001B000746F202100000C25730A2D2D2D2D2D206C
:1001C00020202020202D2D2D2D2D00000C494D50BC
:1001D00052494D49454E444F202325336C750A2D15
:1001E0000000EA6A5E0EE96EEF500DE0020E016E4D
:1001F000006A002EFED7012EFBD7970E006E002E50
:10020000FED7EF2EF3D712006539F00B006E0F0EFC
:100210008A1400108A6E00008A8000D000D08A9074
:1002200012008150006E00380F0B016E12000F0E8D
:100230009314F009936E8A8400008A800000F1DF35
:1002400001C065F08A9000008A8000D0EADF01C01A
:1002500064F08A900F0E9314936E6539006EF00E61
:10026000001600506411016E3BEF01F093909392E1
:1002700093948A92DCD701C064F001BEFBD78A92C6
:1002800062B18A8200008A9400008A906339646FA8
:100290000F0E641764C065F0B7DF63510F0B646F16
:1002A000656FB2DF1200280E3F6E0C0E406E010E1D
:1002B000416E060E426E8A908A928A940F0E9314B3
:1002C000936E9390939293940F0E5E6E8ADF010E5D
:1002D0003E6E3E50030808E3030E656F95DF050E82
:1002E0005E6E7FDF3E2AF5D7020E656F8DDF050E4D
:1002F0005E6E77DF3E6A3E5003080DE3036A3E50B0
:100300003F0FE96E000E0320EA6EEFCF63F0626BE1
:10031000ADDF3E2AF0D7CBEF04F05F2C01D003D045
:10032000400E606F01D0606B010E5E5C6027605113
:100330008009616F626B636F99DF12005D50070A7D
:1003400007E00B0A0AE0060A10E0020A14E018D0DF
:10035000010E5E6E5F6EE1DF18D0626B010E636F9F
:1003600085DF020E5E6E3DDF10D0010E5E6E020E66
:100370005F6ED3DF0AD0626B100E636F77DF05D03C
:10038000010E626F5DC063F071DF12000900F5526B
:100390000CE0F6CF3EF0F7CF3FF0F5CF5DF0CEDFCB
:1003A0003EC0F6FF3FC0F7FFF1D712000900F6CFBD
:1003B00055F0F7CF56F0F5CF5DF0C0DF55C0F6FF32
:1003C00056C0F7FF542EF2D71200EACF46F0E9CF1D
:1003D00045F03FAE08D0458E45A8452A3E1E3F1E3B
:1003E0003E2AD8B43F2A3F38F009416E4126E20F39
:1003F000426E320F446E3F500F0B42264226442677
:10040000E90F436E432643263E380F0B432644260E
:1004100043364436441E44363E500F0B4426413684
:10042000070E406E0A0E43064426FDE342064326AD
:10043000FDE341064226FDE340064126FDE3EA6A6C
:10044000400EE96E070E4514459CED52451407E138
:1004500045B8EE5245B803D0200E006E20D0E926F4
:10046000000EEA22E950440803E1EA5201E1458C1A
:10047000EF50006E08E145BC06D045B81BD045B62C
:1004800002D0200E0BD045AE06D02D0E006EED50E2
:10049000459C459E04D045864598300E0026EACFFF
:1004A0003FF0E9CF3EF000C05DF048DF3FC0EAFF1B
:1004B0003EC0E9FFEE5045ACD5D71200016A026A92
:1004C000006A036A555002E1545018E0100E566E4F
:1004D000D89052365336003603365550035C02E14D
:1004E0005450005C07E35450005ED8A003065550FA
:1004F000035ED88001360236562EEAD71200EF523C
:100500000FE0EACF55F0E9CF54F0EFCF5DF016DF02
:1005100055C0EAFF54C0E9FFE92AD8B4EA2AEFD768
:1005200065EF03F0EACF5CF0E9CF5BF05538F009F6
:10053000576E5726E20F586E320F5A6E55500F0BFA
:10054000582658265A26E90F596E592659265438E6
:100550000F0B59265A2659365A365A1E5A365450B7
:100560000F0B5A265736070E566E0A0E59065A2694
:10057000FDE358065926FDE357065826FDE35606C7
:100580005726FDE3EA6A560EE96E070E5B145B9C84
:10059000E926000EEA22E9505A0803E1EA5201E195
:1005A0005B8CEF50006E08E15BBC06D05BB813D0EB
:1005B0005BB602D0200E03D05B865B98300E00261F
:1005C000EACF55F0E9CF54F000C05DF0B7DE55C07A
:1005D000EAFF54C0E9FFEE505BACDDD71200525089
:1005E0005402F3CF01F0F4CF00F05502F35000268F
:1005F00053505402F3500020026ED6EF03F04A80AD
:100600004A824B6A4C6A45C003F044C0E9FF45C0CA
:10061000EAFFECCF53F0ED52EFCF52F05350475C6E
:1006200010E303E14650525C0CE245C003F044C0C5
:10063000E9FF45C0EAFF47C0ECFFED5246C0EFFFBF
:100640001BD045C003F044C0E9FF45C0EAFFECCF32
:1006500053F0ED52EFCF52F04950535C0DE303E1FC
:100660005250485C09E244C0E9FF45C0EAFF49C076
:10067000ECFFED5248C0EFFF49C04EF048C04DF0CE
:100680004E5203E14D50090810E24EC053F04DC0E8
:1006900052F0556A0A0E546E11DF02C04EF001C0CE
:1006A0004DF04B504B2A4C2AEBD742C001F043C0CF
:1006B00003F042C052F043C053F00C0E5D6E3EDEBC
:1006C00043C0EAFF42C0E9FF1AD7B90EF66E010E29
:1006D000F76E110E546E6ADE4CBEE4D04C50800AA8
:1006E000006E4B50800A005C02E0D8B0DBD0506A4C
:1006F000010E4F6E4AA02DD0060E5E6E020E5F6E8A
:100700000CDE45C003F044C0E9FF45C0EAFFECCF72
:1007100053F0ED52EFCF52F0010E546E300E5D6E7D
:100720000DDE542EFBD7080EE96E53C055F052C0B3
:1007300054F0F8DE4A904AA20CD00B0ED8804C54EC
:10074000526E5E6E020E5F6EE8DD2A0E5D6EF6DDA5
:100750004A92958E83BE03D0958883A811D0958E3A
:1007600083AE03D04C504C0602D04C504C2A4A80E9
:100770004A82958E83BEFDD7958883B8FAD791D0EB
:10078000958A83BA03D0958C83AC8BD0516A4CBECA
:1007900012D04C50515C0FE25150512A50C053F0CE
:1007A0004FC052F0556A0A0E546E19D702C050F06D
:1007B00001C04FF0ECD7958C83AC3BD044C0E9FF2F
:1007C00045C0EAFFECCF53F0ED52EFCF52F0546A40
:1007D000556A4F50525E5050535A000E545A555A53
:1007E00055BE1BD0555209E1545207E14750535CA6
:1007F00014E303E14650525C10E344C0E9FF45C0F6
:10080000EAFF4F50EF5C006E5050EC58036E005002
:10081000ED52EF6E03C0ECFF0BD045C003F044C0B7
:10082000E9FF45C0EAFF47C0ECFFED5246C0EFFFCD
:1008300031D0958A83AA2ED045C003F044C0E9FF89
:1008400045C0EAFFECCF53F0ED52EFCF52F04F50DE
:100850005226505053225350495C13E303E1525047
:10086000485C0FE344C0E9FF45C0EAFF4F50EF2466
:10087000016E5050EC20036EED5201C0EFFFEC6EA4
:1008800009D044C0E9FF45C0EAFF49C0ECFFED5282
:1008900048C0EFFF4A80958C83BCFDD7958A83BA08
:1008A000FAD71AD74B50800A006E4C50800A005C71
:1008B00004E2010E016E03D002D0000E016E1200A0
:1008C000456A010E446E45503F5C23E303E144500A
:1008D0003E5C1FE3CC0EF66E010EF76E0E0E546EEC
:1008E00065DD020EE96E45C055F044C054F01ADED5
:1008F0000A0E5D6E23DD2D0E5D6E20DD0C0E466E44
:10090000FA0E5E6E6EDC462EFBD7442AD8B4452A1A
:10091000DAD7F4EF05F0F86AD09E078E700ED36E2A
:10092000D3501A6A196AC150C00B0F09C16E070E65
:10093000B46EC00EF2129D8AC050C00BC06EC08E45
:10094000C280010E926EC150C00B0E09C16E000E26
:10095000016EC250C30B0110C26E060E006E002E57
:10096000FED70000180E1B6E7C0E1C6E190E1D6E3D
:100970007C0E1E6EF40E1F6E010E206E1A0E216E7E
:100980007C0E226E1B0E236E7C0E246EF40E256EE2
:10099000010E266E88D4030E5E6E010E5F6EBDDC06
:1009A0000C0EF66E010EF76EF1DC040E3E6EFA0EC2
:1009B0005E6E17DC3E2EFBD7270E286E100E276EBC
:1009C000C282C2B2FED7C4CF02F0C3CF01F0C4CFFF
:1009D0003FF0C3CF3EF0C450030807E303E13E50AD
:1009E000830803E3036A010E02D0036A000E0310BA
:1009F00005E0285210E127501D080DE32A0EF66E7F
:100A0000010EF76EC3DC080E3E6EFA0E5E6EF1EC60
:100A100000F03E2EFAD74E0EF66E010EF76E080E5F
:100A2000546E0001C3DC010EE96E28C03FF027C000
:100A30003EF0CBDC5A0EF66E010EF76E140E546EBD
:100A4000B5DC958E83AEFDD7958E83BEFDD7296A22
:100A50002A6A2B6A2C6A2D6A2E6AEA6A2F0EE96EC0
:100A60000A0E016EF76A000E000157EC00F00A0052
:100A70000900F5CFEEFF012EFBD728C053F027C0A9
:100A800052F0556A1E0E546E19DD02C041F001C0CD
:100A900040F0436A2F0E426E456A290E446E476A43
:100AA000010E466E02C049F001C048F0A8DD0152B7
:100AB00001E0B1D7EA6A2F0EE96E0F0E016EF76AF8
:100AC000000E000164EC00F00A000900F5CFEEFF13
:100AD000012EFBD728C053F027C052F02AC055F092
:100AE00029C054F0EBDC02C041F001C040F0436A81
:100AF0002F0E426E456A2B0E446E476A1E0E466EDE
:100B000002C049F001C048F07ADD015201E0A5D7EA
:100B1000EA6A2F0EE96E0D0E016EF76A000E0001F3
:100B200074EC00F00A000900F5CFEEFF012EFBD7B0
:100B30002CC053F02BC052F0556A0A0E546EBEDC26
:100B400002C041F001C040F0436A2F0E426E456A78
:100B50002D0E446E476A466A02C049F001C048F053
:100B60004EDD015201E0A6D70C0E5D6E9EEC01F049
:100B7000200E5D6E9EEC01F0020EE96E2AC03FF081
:100B800029C03EF022DC760EF66E010EF76E100ED6
:100B9000546E0CDC010EE96E2CC03FF02BC03EF011
:100BA00014DC8A0EF66E010EF76E070E546ED6EC4C
:100BB00001F0958E83BE08D0958883A804D09588CF
:100BC00083B8FDD7A5D7F5D7958E83BEFDD729C0AD
:100BD0003EF02AC03FF02BC040F02CC041F02DC0A9
:100BE00042F02EC043F06CD6920EF66E010EF76EF8
:100BF000C6EC01F0080E3E6EFA0E5E6EF1EC00F0EF
:080C00003E2EFAD7D9D60300FD
:020000040030CA
:0E00000020C93E1E0087A1000FC00FE00F4078
:00000001FF
;PIC18F4550
;CRC=5830  CREATED="04-dic.-23 15:53"
