:0400000028EF0CF0E9
:08000800046ED8CF05F0E0CF33
:1000100006F00001E9CF0CF0EACF07F0E1CF08F0DD
:10002000E2CF09F0D9CF0AF0DACF0BF0F3CF12F01C
:10003000F4CF13F0FACF14F0F5CF15F0F6CF16F099
:10004000F7CF17F000C00EF001C00FF002C010F0A3
:1000500003C011F09DAA30EF00F09EBA01EF03F04B
:100060000EC000F00FC001F010C002F011C003F08C
:100070000CC0E9FF07C0EAFF078E08C0E1FF09C016
:10008000E2FF0AC0D9FF0BC0DAFF12C0F3FF13C0B2
:10009000F4FF14C0FAFF15C0F5FF16C0F6FF17C035
:1000A000F7FF045006C0E0FF05C0D8FF1000F76A54
:1000B000BE0FF66E000EF7220900F5501200207CEC
:1000C000057C047C027C017CF76AD80FF66E000E7A
:1000D000F7220900F550120050656C61646F20280A
:1000E0006D6D293A0000F76AF60FF66E000EF722E2
:1000F0000900F55012004C6F6E6769747564202812
:100100006D6D293A0000F76A160FF66E010EF722A0
:100110000900F550120043616E74696461643A002D
:10012000EACF99F0E9CF98F092AF08D0988F98A9CC
:10013000982B911F921F912BD8B4922B9239F009D2
:10014000946F9427E20F956F320F976F92510F0BB8
:10015000952795279727E90F966F96279627913928
:100160000F0B9627972796379737971F97379151F9
:100170000F0B97279437070E936F0A0E9607972752
:10018000FDE395079627FDE394079527FDE3930785
:100190009427FDE3EA6A930EE96E070E9815989D81
:1001A000ED52981507E198B9EE5298B903D0200E98
:1001B000006E20D0E926000EEA22E950970803E1FC
:1001C000EA5201E1988DEF50006E08E198BD06D02B
:1001D00098B914D098B702D0200E0BD098AF06D0A3
:1001E0002D0E006EED50989D989F04D09887989999
:1001F000300E002600509EA8FED7AD6EEE5098AD92
:10020000DCD718EF03F0C6C0C9F0C5C0CBF0C4C03E
:10021000CAF0C85303E1C751000816E2CBC003F08F
:10022000CAC0E9FFCBC0EAFFC951EF5C05E1CAC013
:1002300001F0CBC002F00BD0CA2BD8B4CB2BC751E6
:10024000D8B4C807C707E5D7000E016E026E1200CA
:10025000C651C819800BCA6FC6AF05D0C51FC61FCF
:10026000C52BD8B4C62BC8AF05D0C71FC81FC72B16
:10027000D8B4C82BC551C703F3CF01F0F4CF00F0B9
:10028000C803F3500026C651C703F3500020026E86
:10029000CAAF05D0011E021E012AD8B4022AA2EF5D
:1002A00002F09D6B9C6B300E9F6F310EA06F320E73
:1002B000A16F330EA26F340EA36F350EA46F360EEE
:1002C000A56F370EA66F380EA76F390EA86F610E97
:1002D000A96F620EAA6F630EAB6F640EAC6F650EF2
:1002E000AD6F660EAE6F670EAF6F680EB06F690EC2
:1002F000B16F6A0EB26F6B0EB36F6C0EB46F6D0E92
:10030000B56F6E0EB66F6F0EB76F700EB86F710E61
:10031000B96F730EBA6F740EBB6F750EBC6F760E2D
:10032000BD6F770EBE6F780EBF6F790EC06F7A0EFD
:10033000C16FC26B92C097F091C096F097C003F066
:1003400096C0E9FF97C0EAFFEF50200804E1962B22
:10035000D8B4972BF3D797C003F096C0E9FF97C0A6
:10036000EAFFEF502D0809E097C003F096C0E9FFBF
:1003700097C0EAFFEF502B0809E197C0EAFF9651BA
:10038000962BD8B4972BE96EEF5001D02B0E9E6FB1
:100390009E512D080AE095BF08D0952D01D005D0BB
:1003A00095BF05D09551240802E209D184D0955318
:1003B0004CE0955110081FE197C003F096C0E9FF8B
:1003C00097C0EAFFEF50300816E1010E9625E96E5E
:1003D000000E9721EA6EEF50780809E0010E96258D
:1003E000E96E000E9721EA6EEF50580804E1020E04
:1003F0009627000E9723955108080DE197C003F04A
:1004000096C0E9FF97C0EAFFEF50300804E1010E03
:100410009627000E97239551020816E197C003F026
:1004200096C0E9FF97C0EAFFEF5030080DE1010EDA
:100430009625E96E000E9721EA6EEF50620804E1FE
:10044000020E9627000E972336D097C003F096C071
:10045000E9FF97C0EAFFEF50300803E00A0E956FFE
:100460002AD0010E9625E96E000E9721EA6EEF5014
:10047000780809E0010E9625E96E000E9721EA6ED4
:10048000EF50580807E1100E956F020E9627000EE8
:10049000972311D0010E9625E96E000E9721EA6E82
:1004A000EF50620806E1020E956F9627000E972323
:1004B00002D0080E956F97C099F096C098F097C03B
:1004C00003F096C0E9FF97C0EAFFEF50300804E15F
:1004D000962BD8B4972BF3D797C003F096C0E9FFBB
:1004E00097C0EAFFEFCFC3F0C351400806E2C35103
:1004F0005A0803E3C351200901D0C351C36FC56B30
:100500009F0EC46FC3C0C6F0C86B95C0C7F0C7BF0D
:10051000C80779DE02C09BF001C09AF09A5302E14D
:100520009B5347E0036A9551006EE8BE0306C36F14
:1005300003C0C4F09DC0C6F09CC0C5F003C0C8F0A5
:10054000C76F86D601C0C3F09F0E9A5D006E000E85
:100550009B59036E00500124016E0250032201C01A
:100560009CF003C09DF0962BD8B4972B97C003F056
:1005700096C0E9FF97C0EAFFEFCFC3F0C351400830
:1005800006E2C3515A0803E3C351200901D0C35105
:10059000C36FC56B9F0EC46FC3C0C6F0C86B95C058
:1005A000C7F0C7BFC8072FDE02C09BF001C09AF09A
:1005B000B5D79651985D14E19751995D11E100010D
:1005C0009351941109E093C0E9FF94C0EAFF92C0EF
:1005D000ECFFED5291C0EFFF000E016E026E10D0E5
:1005E0009351941109E093C0E9FF94C0EAFF97C0CA
:1005F000ECFFED5296C0EFFF9CC001F09DC002F0F1
:1006000012009EAAFED7AECF7DF07D512B0A05E0E9
:10061000060A14E0070A14E071D02B0E9EA8FED73C
:10062000AD6E090EE96E20C092F01FC091F078D532
:100630000A0E9EA8FED7AD6E218060D021905ED0BC
:100640008C6B8C5101080DE3036A8C517E0FE96EAF
:10065000000E0320EA6E9EAAFED7AECFEFFF8C2BD2
:10066000F0D7806B8D6B8D5104080DE3036A8D51BB
:10067000810FE96E000E0320EA6E9EAAFED7AECF70
:10068000EFFF8D2BF0D7866B8E6B8E5103080DE339
:10069000036A8E51870FE96E000E0320EA6E9EAA50
:1006A000FED7AECFEFFF8E2BF0D78B6B926B7E0E0B
:1006B000916F946B8F0E936F0A0E956FF2DD02C0EF
:1006C00023F001C022F0926B810E916F946B8F0E1C
:1006D000936F0A0E956FE5DD02C025F001C024F08E
:1006E000926B870E916F946B8F0E936F0A0E956FBE
:1006F000D8DD02C027F001C026F021829E9A30EF9B
:1007000000F00C202057495245205452494D4D4588
:10071000520A2050726F672E204176616E7A6164B2
:1007200061000C4361727265746520457363617387
:100730006F004E7565766F20436172726574652D2A
:100740003E002020202020202020202020202020AB
:1007500020000C202020526563696269656E646F19
:1007600020202000202020202020202020202020A9
:100770002020202000000C4361626C653A20253562
:100780006C75206D6D004E75657661204F726465E5
:100790006E20202D3E002020202020202020202000
:1007A0002020202020000C2025346C75204361621D
:1007B0006C6528732920200A2020202025356C759F
:1007C000206D6D20202020000C4F5244454E2046C5
:1007D000494E414C495A4144410A205675656C7650
:1007E000612050726F6E746F202100000C436162B3
:1007F0006C652025346C75202F25346C750A00003B
:100800003D3D3D003D3D3D000C436F6C6F71756596
:1008100020656C204341424C450A656E207375206B
:10082000706F736963696F6E00000C456E726F6C58
:100830006C61722020202020202D3E0A44657465C2
:100840006E65722020202020203C2D00456E726FA6
:100850006C6C61722020202020202D3E0000202082
:10086000202025356C75206D6D20202020004465EA
:1008700074656E6572202020202020203C2D000011
:100880000C5265636172676120436F6D706C6574B3
:10089000610A436F6E74696E75617220202020209A
:1008A0002D3E00006751070B006E6731016E01326B
:1008B00001321F0E011601506925E96E000E6A21F2
:1008C000EA6E016A012A002A01D00136002EFDD706
:1008D000685303E00150EF1203D0011E0150EF16E0
:1008E0001200EA6A730EE96EEF500DE0020E016E1F
:1008F000006A002EFED7012EFBD7970E006E002E49
:10090000FED7EF2EF3D712007AB102D08A9801D029
:100910008A8893987AB302D08A9A01D08A8A939A65
:100920007AB502D08A9C01D08A8C939C7AB702D087
:100930008A9E01D08A8E939E00008A84939400D070
:1009400000D08A94939412007B6B9388000E81B838
:10095000010E7B13938A000E81BA010E006ED890AF
:10096000003600507B13938C000E81BC010E006E8C
:1009700000360036FC0E001600507B13938E000EDE
:1009800081BE010E006E003600360036F80E0016ED
:1009900000507B137BC001F012009388938A938CE4
:1009A000938E8A82939200008A8493940000CCDF15
:1009B00001C07AF08A94939400008A84939400D0C2
:1009C000C3DF01C079F08A9493949398939A939C8F
:1009D000939E7A39006EF00E001600507911016E68
:1009E000F8EF04F09394939093928A909390D5D7D4
:1009F00001C079F001BEFBD7775302E18A9001D0A4
:100A00008A80939000008A92939200008A94939433
:100A10007839796F0F0E791779C07AF075DF7851D0
:100A20000F0B796F7A6F70DF1200280E526E0C0E6A
:100A3000536E010E546E060E556E8A9493948A90EE
:100A400093908A9293929398939A939C939E939463
:100A5000939093920F0E736F44DF010E516E5150BD
:100A6000030808E3030E7A6F4FDF050E736F39DF5B
:100A7000512AF5D7020E7A6F47DF050E736F31DF0B
:100A8000516A515003080DE3036A5150520FE96E49
:100A9000000E0320EA6EEFCF78F0776BA3DF512AC8
:100AA000F0D7A1EF0CF0742D01D003D0400E756F7C
:100AB00001D0756B010E735D752775518009766FD6
:100AC000776B786F8FDF12007251070A07E00B0A0D
:100AD0000AE0060A10E0020A14E018D0010E736F53
:100AE000746FE1DF18D0776B010E786F7BDF020E39
:100AF000736FF7DE10D0010E736F020E746FD3DFC9
:100B00000AD0776B100E786F6DDF05D0010E776F0E
:100B100072C078F067DF12000900F5520CE0F6CFE2
:100B200059F0F7CF5AF0F5CF72F0CEDF59C0F6FF8B
:100B30005AC0F7FFF1D712000900F6CF5AF0F7CFED
:100B40005BF0F5CF72F0C0DF5AC0F6FF5BC0F7FF75
:100B5000592EF2D71200D8B203D0EA6A6C0EE96EB1
:100B6000006A016A026A036A6C6B6D6B6E6B6F6B75
:100B70006B516A11691168112CE0200E706FD890CA
:100B800064376537663767376C376D376E376F3761
:100B90006B516F5D08E16A516E5D05E169516D5DF4
:100BA00002E168516C5D0FE368516C5F6951D8A038
:100BB000693D6D5F6A51D8A06A3D6E5F6B51D8A0E8
:100BC0006B3D6F5FD8800036013602360336702FDA
:100BD000D6D76CC0EFFF6DC0ECFF6EC0ECFF6FC0EE
:100BE000ECFF1200E9505C6E3B0E636F9A0E626F71
:100BF000CA0E616F606B0A0E5E6ED882EA6A580E8A
:100C0000E96E5BC067F05AC066F059C065F058C025
:100C100064F063C06BF062C06AF061C069F060C0EC
:100C200068F099DF015000520FE15E50010A0CE0BC
:100C30005C500BE00F0B5E5C01E00CE25CBE0AD086
:100C40005CBC03D0200E02D05C6A300E002600C0CF
:100C500072F03ADFD89263C067F062C066F061C09C
:100C600065F060C064F06B6B6A6B696B0A0E686F4D
:100C700072DF03C063F002C062F001C061F000C027
:100C800060F05E2EBAD707EF07F0206A1F6A080EE1
:100C9000F66E080EF76E40DFC282C2B2FED7C4CF36
:100CA00002F0C3CF01F0C4CF59F0C3CF58F0C45005
:100CB000030807E303E15850830803E3036A010EC6
:100CC00002D0036A000E0310E7E0546A536A526AC6
:100CD000516A2A0EF66E080EF76E00011DDF2CC059
:100CE00067F0010E686F0F0E6A6F890E696FDADDAB
:100CF0002CC067F0686B0F0E6A6F920E696FD2DDC1
:100D000028C067F0010E686F0F0E6A6F890E696F59
:100D1000C9DD28C067F0686B0F0E6A6F920E696FAD
:100D2000C1DD5590576A566A576A566AC282C2B286
:100D3000FED7C4CF02F0C3CF01F0C4CF59F0C3CF68
:100D400058F0C450030807E303E15850830803E355
:100D5000036A010E02D0036A000E0310D8B4A6D0B5
:100D6000958E83AE02D055800ED0958883A80BD087
:100D70005590010E736F020E746F95DE4C0EF66E79
:100D8000080EF76EC9DE5650320853E1575251E152
:100D900028C067F0010E686F0F0E6A6F890E696FC9
:100DA00081DD28C067F0686B0F0E6A6F920E696F65
:100DB00079DD28C067F0686B0F0E6A6F890E696F66
:100DC00071DD28C067F0686B0F0E6A6F920E696F55
:100DD00069DD010E736F746F66DE010E5126D8B0A7
:100DE000522AD8B4532AD8B4542A5E0EF66E080E8E
:100DF000F76E040E596EA0DE050EE96E54C05BF06E
:100E000053C05AF052C059F051C058F0EBD6660E9C
:100E1000F66E080EF76E070E596E8EDE010E736FBA
:100E2000020E746F40DE6E0EF66E080EF76E74DE04
:100E300026D05650640823E1575221E12CC067F0B8
:100E4000010E686F0F0E6A6F890E696F2BDD2CC063
:100E500067F0686B0F0E6A6F920E696F23DD2CC00E
:100E600067F0686B0F0E6A6F890E696F1BDD2CC00F
:100E700067F0686B0F0E6A6F920E696F13DD010EDB
:100E8000736F2FDD575205E15650640802E355B0E9
:100E900006D0576A566A57C003F0565006D057C05E
:100EA00003F05650562AD8B4572A40D7800EF66E13
:100EB000080EF76E31DE958E83BE19D0C282C2B2A3
:100EC000FED7C4CF02F0C3CF01F0C4CF59F0C3CFD7
:100ED00058F0C450030806E303E15850830802E3C6
:100EE000010E01D0000E000A01E0F3D6E4D72CC0B9
:100EF00067F0686B0F0E6A6F890E696FD3DC2CC0C8
:100F000067F0686B0F0E6A6F920E696FCBDC28C0BA
:100F100067F0686B0F0E6A6F890E696FC3DC28C0BB
:100F200067F0686B0F0E6A6F920E696FBBDC576AD1
:100F3000566AC282C2B2FED7C4CF02F0C3CF01F05C
:100F4000C4CF59F0C3CF58F0C450030807E303E1FE
:100F50005850830803E3036A010E02D0036A000EAF
:100F60000310D8A473D0515207E1525205E15352F5
:100F700003E15452D8B46AD0565032082CE157528B
:100F80002AE128C067F0010E686F0F0E6A6F890EA4
:100F9000696F88DC28C067F0686B0F0E6A6F920E6D
:100FA000696F80DC28C067F0686B0F0E6A6F890E6E
:100FB000696F78DC28C067F0686B0F0E6A6F920E5D
:100FC000696F70DCFF0E5126D8A05226D8A0532698
:100FD000D8A0542626D05650640823E1575221E168
:100FE0002CC067F0010E686F0F0E6A6F890E696F73
:100FF00059DC2CC067F0686B0F0E6A6F920E696F38
:1010000051DC2CC067F0686B0F0E6A6F890E696F38
:1010100049DC2CC067F0686B0F0E6A6F920E696F27
:1010200041DC010E736F5DDC575203E156506408DA
:1010300006E2576A566A57C003F0565006D057C0AA
:1010400003F05650562AD8B4572A73D701EF0DF043
:10105000550E586A576E010E5724596E000E5820CF
:101060005A6E58C003F05750E96E03C0EAFFEFCF45
:101070005BF0F250006EF29EA96A5BC0A8FFA69CCE
:10108000A69EA6840F01550EA76EAA0EA76EA68275
:10109000A6B2FED7A6940050F2125AC003F059C06F
:1010A000E9FF5AC0EAFFEFCFA8FFF2CF00F0F29EAF
:1010B000010EA96EA69CA69EA684550EA76EAA0E2A
:1010C000A76EA682A6B2FED7A6940050F212000127
:1010D000AEEF08F067516903F3CF01F0F4CF00F0F1
:1010E0006A03F350002668516903F3500020026E32
:1010F0001200016A026A006A036A6A5102E16951D8
:1011000018E0100E6B6FD8906737683700360336DB
:101110006A51035C02E16951005C07E36951005EBA
:10112000D8A003066A51035ED880013602366B2FC1
:10113000EAD71200515202E1525210E0535205E038
:1011400052C020F051C01FF004D051501F5E5250C9
:10115000205A20C056F01FC055F07AD7546A545018
:10116000040859E320C068F01FC067F06A6B050EE1
:10117000696FB0DF02C056F001C055F002C068F0E0
:1011800001C067F0270E6A6F100E696FB2DF02C0F0
:1011900003F00150035203E10150545C1EE2D89069
:1011A0005434036A57EC00F00900F5CF03F0556E94
:1011B00003C056F0676F010E686F0F0E6A6F890EDD
:1011C000696F52EC04F055C067F0686B0F0E6A6FE0
:1011D000920E696F52EC04F01CD0D8905434036A1C
:1011E00057EC00F00900F5CF03F0556E03C056F040
:1011F000676F686B0F0E6A6F890E696F52EC04F0AF
:1012000055C067F0686B0F0E6A6F920E696F52ECF3
:1012100004F0542AA4D707EF0DF0EACF71F0E9CF1C
:1012200070F06A39F0096C6F6C27E20F6D6F320F46
:101230006F6F6A510F0B6D276D276F27E90F6E6F68
:101240006E276E2769390F0B6E276F276E376F3742
:101250006F1F6F3769510F0B6F276C37070E6B6F5E
:101260000A0E6E076F27FDE36D076E27FDE36C071F
:101270006D27FDE36B076C27FDE3EA6A6B0EE96EF1
:10128000070E7015709DE926000EEA22E9506F08DE
:1012900003E1EA5201E1708DEF50006E08E170BD8C
:1012A00006D070B913D070B702D0200E03D070876B
:1012B0007099300E0026EACF6AF0E9CF69F000C0DD
:1012C00072F002DC6AC0EAFF69C0E9FFEE5070AD5F
:1012D000DDD712005E6A5D6A5AC05CF059C05BF0EF
:1012E0002EC067F0686B0F0E6A6F890E696F52EC43
:1012F00004F02EC067F0686B0F0E6A6F920E696F74
:1013000052EC04F02AC067F0686B0F0E6A6F890E0A
:10131000696F52EC04F02AC067F0686B0F0E6A6FB9
:10132000920E696F52EC04F0646B636B666B656BD5
:101330005E520AE15D5208E166515C5CD8A072D051
:1013400003E15B50655D6EE2635132082BE164534B
:1013500029E128C067F0010E686F0F0E6A6F890ED1
:10136000696F52EC04F028C067F0686B0F0E6A6F6B
:10137000920E696F52EC04F028C067F0686B0F0E94
:101380006A6F890E696F52EC04F028C067F0686BD1
:101390000F0E6A6F920E696F52EC04F0652BD8B491
:1013A000662B2AD06351640827E1645325E12CC0E1
:1013B00067F0010E686F0F0E6A6F890E696F52EC4D
:1013C00004F02CC067F0686B0F0E6A6F920E696FA5
:1013D00052EC04F02CC067F0686B0F0E6A6F890E38
:1013E000696F52EC04F02CC067F0686B0F0E6A6FE7
:1013F000920E696F52EC04F0010E736F71EC04F001
:10140000645303E16351640806E2646B636B64C078
:1014100003F0635106D064C003F06351632BD8B46A
:10142000642B86D71200586A010E576E5850565CCE
:101430006BE303E15750555C67E3EC0EF66E070E65
:10144000F76E070E596E9CEC05F0010EE96E58C060
:101450006AF057C069F0E1DE200E726F64EC05F0AF
:101460002F0E726F64EC05F0010EE96E56C06AF043
:1014700055C069F0D2DE0A0E726F64EC05F052C0FE
:101480005AF051C059F026DF000EF66E080EF76EC6
:101490008CEC05F054C05AF053C059F01BDF726950
:1014A00064EC05F0726964EC05F0726964EC05F0B7
:1014B000726964EC05F0726964EC05F0726964ECC1
:1014C00005F0726964EC05F0726964EC05F072690C
:1014D00064EC05F0726964EC05F052C05AF051C03A
:1014E00059F0F8DE040EF66E080EF76E8CEC05F07F
:1014F000020E596EFA0E736F71EC04F0592EFAD782
:10150000572AD8B4582A92D712009EA8FED7AD6E9B
:101510004AEF0DF0EF5210E0EACF6AF0E9CF69F040
:10152000EFCF72F064EC05F06AC0EAFF69C0E9FF32
:10153000E92AD8B4EA2AEED708EF0BF05D805D9275
:101540005E6A5F6A58C003F057C0E9FF58C0EAFFFF
:10155000ECCF68F0ED52EFCF67F068515A5C10E3C2
:1015600003E15950675D0CE258C003F057C0E9FF32
:1015700058C0EAFF5AC0ECFFED525950EF6E1ED032
:1015800058C003F057C0E9FF58C0EAFFECCF68F03D
:10159000ED52EFCF67F05C50685D10E303E16751F7
:1015A0005B5C0CE257C0E9FF58C0EAFF5CC0ECFF8F
:1015B000ED525BC0EFFF5CC003F05B505CC061F0BC
:1015C0005BC060F0615303E16051090810E261C043
:1015D00068F060C067F06A6B0A0E696F8ADD02C04E
:1015E00061F001C060F05E505E2A5F2AEBD755C003
:1015F00001F056C003F055C067F056C068F00C0EFD
:10160000726F64EC05F056C0EAFF55C0E9FF82D75F
:101610000A0E726F64EC05F0636B626B5FBE0AD1F9
:101620005F50800A006E5E50800A005C02E0D8B015
:1016300001D1656B010E646F010E736F71EC04F0E4
:10164000622BD8B4632B622D06D0635304E15D8016
:10165000036A010E11D06251F40805E1632D03D035
:101660005D82010E09D06251E80806E1635103086A
:1016700003E1636B626B62515DA022D0060E736F53
:10168000020E746F53EC05F058C003F057C0E9FF29
:1016900058C0EAFFECCF68F0ED52EFCF67F0010ED3
:1016A000696F300E726F64EC05F0692FFAD7080E7F
:1016B000E96E68C06AF067C069F0AFDD5D9010D078
:1016C0005DA20ED00B0ED8805F54676F736F020E51
:1016D000746F53EC05F05F0E726F64EC05F05D9271
:1016E000958E83BE03D0958883A811D0958E83AE46
:1016F00003D05F505F0602D05F505F2A636B626B5E
:10170000958E83BEFDD7958883B8FAD792D0958AF7
:1017100083BA03D0958C83AC8CD0666B5FBE12D03D
:101720005F50665D0FE26651662B65C068F064C06D
:1017300067F06A6B0A0E696FCDDC02C065F001C00C
:1017400064F0ECD7958C83AC3BD057C0E9FF58C010
:10175000EAFFECCF68F0ED52EFCF67F0696B6A6B90
:101760006451675F6551685B000E695B6A5B6ABFC5
:101770001BD06A5309E1695307E15A50685D14E3CD
:1017800003E15950675D10E357C0E9FF58C0EAFF15
:101790006451EF5C006E6551EC58036E0050ED52E1
:1017A000EF6E03C0ECFF0BD058C003F057C0E9FF49
:1017B00058C0EAFF5AC0ECFFED5259C0EFFF31D0DC
:1017C000958A83AA2ED058C003F057C0E9FF58C0AD
:1017D000EAFFECCF68F0ED52EFCF67F06451672776
:1017E0006551682368515C5C13E303E167515B5CFE
:1017F0000FE357C0E9FF58C0EAFF6451EF24016EC0
:101800006551EC20036EED5201C0EFFFEC6E09D084
:1018100057C0E9FF58C0EAFF5CC0ECFFED525BC067
:10182000EFFF636B626B958C83BCFDD7958A83BA9F
:10183000FAD7F4D65E50800A006E5F50800A005CD2
:1018400004E2010E016E03D002D0000E016E120000
:10185000F86AD09E078E700ED36ED350B8960C0ED9
:10186000AF6EA20EAC6E900EAB6E206A1F6A219016
:101870002192356A346AC150C00B0F09C16E070E40
:10188000B46E196A1A6A226A236A246A256A266A69
:10189000276A190E286E7C0E296E180E2A6E7C0E91
:1018A0002B6E110E2C6E7C0E2D6E120E2E6E7C0E7B
:1018B0002F6E1A0E306E7C0E316E1B0E326E7C0E49
:1018C000336E206A050E1F6E366A365004081EE31A
:1018D000D8903634036A57EC00F00900F5CF03F0D6
:1018E000516E03C052F0676F686B0F0E6A6F890EFE
:1018F000696F52EC04F051C067F0686B0F0E6A6FAD
:10190000920E696F52EC04F0362ADFD7C00EF21245
:101910009D8AC050C00BC06EC08EC280010E926EF8
:10192000C150C00B1E09C16E000E016EC250C30B28
:101930000110C26E060E006E002EFED7000015EFDD
:1019400005F0020EF66E070EF76E8CEC05F0040E35
:10195000516EFA0E736F71EC04F0512EFAD72052CB
:1019600003E11F501D0808E2205026084BE2FF0A41
:1019700003E11F50100846E2220EF66E070EF76EC6
:101980008CEC05F0386A376A958E83BE35D0010E2F
:10199000736F020E746F53EC05F0372C09D0385278
:1019A00007E1320EF66E070EF76E8CEC05F00BD0E9
:1019B0003750F40808E1382C06D0420EF66E070EB8
:1019C000F76E8CEC05F0010E736F71EC04F038507B
:1019D00002080BE2FF0A03E13750E80806E2386A22
:1019E000376A38C003F0375006D038C003F037509C
:1019F000372AD8B4382AC8D7958E83BEFDD745EF8D
:101A000006F0ADD7526A516A536A9AEF08F021A0E6
:101A100046D0520EF66E070EF76E00018CEC05F004
:101A2000010E396E21B225D0010E736F020E746F54
:101A300053EC05F0640EF66E070EF76E8CEC05F0B5
:101A400039C073F0020E746F53EC05F0726964ECE8
:101A500005F0640E736F71EC04F021B001D0D7D79C
:101A60003950100803E2010E396E02D03950392A7C
:101A7000D9D722C051F023C052F024C053F025C062
:101A800054F026C055F027C056F0CDDC21902192AD
:101A90002A0E3BD5640E736F71EC04F03AD1760ECA
:101AA000F66E070EF76E080E596E00019CEC05F0FD
:101AB000000EE96E20C06AF01FC069F00DEC09F05D
:101AC000820EF66E070EF76E030E596E9CEC05F053
:101AD0003B6A3A6A958E83BE38D0010E736F020E50
:101AE000746F53EC05F03A2C09D03B5207E1860E97
:101AF000F66E070EF76E8CEC05F00BD03A50F4083A
:101B000008E13B2C06D0960EF66E070EF76E8CECB5
:101B100005F021A001D07BD7010E736F71EC04F0AA
:101B20003B5002080BE2FF0A03E13A50E80806E2E4
:101B30003B6A3A6A3BC003F03A5006D03BC003F020
:101B40003A503A2AD8B43B2AC5D7958E83BEFDD7E2
:101B5000050E3C6E3D6A3E6A3F6A406A416AEA6A27
:101B6000420EE96E0D0E016EF76A000E000164EC84
:101B700000F00A000900F5CFEEFF012EFBD7566AF0
:101B8000420E556E586A3C0E576E5A6A596A5C6A24
:101B9000140E5B6ED3DC015201E039D7EA6A420EC3
:101BA000E96E0F0E016EF76A000E000173EC00F093
:101BB0000A000900F5CFEEFF012EFBD7D8903C3488
:101BC000026E3D34036E02501F5C536E035020586A
:101BD000546E566A420E556E586A3E0E576E5A6AD9
:101BE0000A0E596E54C05CF053C05BF0A7DC015282
:101BF00001E0B5D7EA6A420EE96E0A0E016EF76A95
:101C0000000E000183EC00F00A000900F5CFEEFFA2
:101C1000012EFBD7D8903C34026E3D34036E025047
:101C20003E24016E3F50032201C053F003C054F024
:101C300020C068F01FC067F003C06AF001C069F0FF
:101C400079EC08F002C054F001C053F0566A420E1D
:101C5000556E586A400E576E5A6A010E596E02C090
:101C60005CF001C05BF06ADC015201E097D70C0E1A
:101C7000726F64EC05F0200E726F64EC05F0010EDB
:101C8000E96E41C06AF040C069F00DEC09F0AC0E9D
:101C9000F66E070EF76E100E596E9CEC05F0000EF6
:101CA000E96E3FC06AF03EC069F00DEC09F0C00E6D
:101CB000F66E070EF76E070E596E9CEC05F0958ECA
:101CC00083BE08D0958883A804D0958883B8FDD7B3
:101CD00091D7F5D7958E83BEFDD73CC051F03DC05E
:101CE00052F03EC053F03FC054F040C055F041C0E8
:101CF00056F013EC0AF0C80EF66E070EF76E8CEC79
:101D000005F0080E516EFA0E736F71EC04F0512E4F
:061D1000FAD725D60300FE
:020000040030CA
:0E00000020C93E1E0087A1000FC00FE00F4078
:00000001FF
;PIC18F4550
;CRC=DE7C  CREATED="18-dic.-23 02:20"
