:04000000D4EF07F042
:08000800046ED8CF05F0E0CF33
:1000100006F00001E9CF0CF0EACF07F0E1CF08F0DD
:10002000E2CF09F0D9CF0AF0DACF0BF0F3CF12F01C
:10003000F4CF13F0FACF14F0F5CF15F0F6CF16F099
:10004000F7CF17F000C00EF001C00FF002C010F0A3
:1000500003C011F09DAA30EF00F09EBAF4EF02F059
:100060000EC000F00FC001F010C002F011C003F08C
:100070000CC0E9FF07C0EAFF078E08C0E1FF09C016
:10008000E2FF0AC0D9FF0BC0DAFF12C0F3FF13C0B2
:10009000F4FF14C0FAFF15C0F5FF16C0F6FF17C035
:1000A000F7FF045006C0E0FF05C0D8FF1000F76A54
:1000B000BE0FF66E000EF7220900F55012005065D3
:1000C0006C61646F20286D6D293A0000F76ADC0FBF
:1000D000F66E000EF7220900F55012004C6F6E67A5
:1000E0006974756420286D6D293A0000F76AFC0F69
:1000F000F66E000EF7220900F550120043616E748F
:10010000696461643A00EACF8EF0E9CF8DF087AF81
:1001100008D08D8F8DA98D2B861F871F862BD8B475
:10012000872B8739F009896F8927E20F8A6F320F91
:100130008C6F87510F0B8A278A278C27E90F8B6FCB
:100140008B278B2786390F0B8B278C278B378C3788
:100150008C1F8C3786510F0B8C278937070E886FC1
:100160000A0E8B078C27FDE38A078B27FDE389079F
:100170008A27FDE388078927FDE3EA6A880EE96E8E
:10018000070E8D158D9DED528D1507E18DB9EE523F
:100190008DB903D0200E006E20D0E926000EEA2291
:1001A000E9508C0803E1EA5201E18D8DEF50006EB9
:1001B00008E18DBD06D08DB914D08DB702D0200EC8
:1001C0000BD08DAF06D02D0E006EED508D9D8D9F06
:1001D00004D08D878D99300E002600509EA8FED742
:1001E000AD6EEE508DADDCD706EF03F0BBC0BEF0B8
:1001F000BAC0C0F0B9C0BFF0BD5303E1BC510008A4
:1002000016E2C0C003F0BFC0E9FFC0C0EAFFBE51A4
:10021000EF5C05E1BFC001F0C0C002F00BD0BF2B06
:10022000D8B4C02BBC51D8B4BD07BC07E5D7000E6D
:10023000016E026E1200BB51BD19800BBF6FBBAFC8
:1002400005D0BA1FBB1FBA2BD8B4BB2BBDAF05D08E
:10025000BC1FBD1FBC2BD8B4BD2BBA51BC03F3CF00
:1002600001F0F4CF00F0BD03F3500026BB51BC03F6
:10027000F3500020026EBFAF05D0011E021E012AFE
:10028000D8B4022A95EF02F0926B916B300E946F06
:10029000310E956F320E966F330E976F340E986F46
:1002A000350E996F360E9A6F370E9B6F380E9C6F16
:1002B000390E9D6F610E9E6F620E9F6F630EA06F71
:1002C000640EA16F650EA26F660EA36F670EA46F1A
:1002D000680EA56F690EA66F6A0EA76F6B0EA86FEA
:1002E0006C0EA96F6D0EAA6F6E0EAB6F6F0EAC6FBA
:1002F000700EAD6F710EAE6F730EAF6F740EB06F88
:10030000750EB16F760EB26F770EB36F780EB46F55
:10031000790EB56F7A0EB66FB76B87C08CF086C05A
:100320008BF08CC003F08BC0E9FF8CC0EAFFEF506C
:10033000200804E18B2BD8B48C2BF3D78CC003F0AE
:100340008BC0E9FF8CC0EAFFEF502D0809E08CC09C
:1003500003F08BC0E9FF8CC0EAFFEF502B0809E1E6
:100360008CC0EAFF8B518B2BD8B48C2BE96EEF50ED
:1003700001D02B0E936F93512D080AE08ABF08D04D
:100380008A2D01D005D08ABF05D08A51240802E207
:1003900009D184D08A534CE08A5110081FE18CC0E7
:1003A00003F08BC0E9FF8CC0EAFFEF50300816E184
:1003B000010E8B25E96E000E8C21EA6EEF50780855
:1003C00009E0010E8B25E96E000E8C21EA6EEF50DC
:1003D000580804E1020E8B27000E8C238A5108086E
:1003E0000DE18CC003F08BC0E9FF8CC0EAFFEF5039
:1003F000300804E1010E8B27000E8C238A5102087D
:1004000016E18CC003F08BC0E9FF8CC0EAFFEF500F
:1004100030080DE1010E8B25E96E000E8C21EA6E8D
:10042000EF50620804E1020E8B27000E8C2336D0B9
:100430008CC003F08BC0E9FF8CC0EAFFEF5030089E
:1004400003E00A0E8A6F2AD0010E8B25E96E000E9A
:100450008C21EA6EEF50780809E0010E8B25E96ED9
:10046000000E8C21EA6EEF50580807E1100E8A6FDB
:10047000020E8B27000E8C2311D0010E8B25E96E06
:10048000000E8C21EA6EEF50620806E1020E8A6FC0
:100490008B27000E8C2302D0080E8A6F8CC08EF042
:1004A0008BC08DF08CC003F08BC0E9FF8CC0EAFFDD
:1004B000EF50300804E18B2BD8B48C2BF3D78CC0D1
:1004C00003F08BC0E9FF8CC0EAFFEFCFB8F0B85162
:1004D000400806E2B8515A0803E3B851200901D098
:1004E000B851B86FBA6B940EB96FB8C0BBF0BD6BA2
:1004F0008AC0BCF0BCBFBD0779DE02C090F001C06D
:100500008FF08F5302E1905347E0036A8A51006EE7
:10051000E8BE0306B86F03C0B9F092C0BBF091C04B
:10052000BAF003C0BDF0BC6F86D601C0B8F0940E1F
:100530008F5D006E000E9059036E00500124016E15
:100540000250032201C091F003C092F08B2BD8B46B
:100550008C2B8CC003F08BC0E9FF8CC0EAFFEFCF7F
:10056000B8F0B851400806E2B8515A0803E3B85150
:10057000200901D0B851B86FBA6B940EB96FB8C0EA
:10058000BBF0BD6B8AC0BCF0BCBFBD072FDE02C094
:1005900090F001C08FF0B5D78B518D5D14E18C5177
:1005A0008E5D11E100018851891109E088C0E9FFE1
:1005B00089C0EAFF87C0ECFFED5286C0EFFF000E56
:1005C000016E026E10D08851891109E088C0E9FFE0
:1005D00089C0EAFF8CC0ECFFED528BC0EFFF91C0E9
:1005E00001F092C002F012009EAAFED7AECF72F0C8
:1005F00072512B080DE12B0E9EA8FED7AD6E090E91
:10060000E96E20C087F01FC086F07DD5218063D0C1
:1006100021B261D072512A085EE1816B81510108DB
:100620000DE3036A8151730FE96E000E0320EA6E39
:100630009EAAFED7AECFEFFF812BF0D7756B826BF2
:10064000825104080DE3036A8251760FE96E000EB1
:100650000320EA6E9EAAFED7AECFEFFF822BF0D723
:100660007B6B836B835103080DE3036A83517C0F1B
:10067000E96E000E0320EA6E9EAAFED7AECFEFFF12
:10068000832BF0D7816B876B730E866F896B840E1B
:10069000886F0A0E8A6FF8DD02C023F001C022F0D5
:1006A000876B760E866F896B840E886F0A0E8A6F51
:1006B000EBDD02C025F001C024F0876B7C0E866F55
:1006C000896B840E886F0A0E8A6FDEDD02C027F008
:1006D00001C026F021829E9A30EF00F05749524522
:1006E000205452494D4D45520A2050726F672E20BA
:1006F0004176616E7A61646100000C2121204E4FC9
:1007000020534520444554454354410A4341424CFB
:100710004520444953504F4E49424C4500000C205F
:100720002020526563696269656E646F2020200035
:1007300020202020202020202020202020202020B9
:1007400000000C4361626C653A2025356C64206DB5
:100750006D0A4E75657661204F7264656E20202D9E
:100760002D3E00000C2025346C64204361626C65D2
:1007700028732920200A2020202025356C64206D34
:100780006D20202020000C4F5244454E2046494EFB
:10079000414C495A4144410A205675656C766120A6
:1007A00050726F6E746F202100000C25730A2D2D7E
:1007B0002D2D2D2020202020202D2D2D2D2D000011
:1007C0000C4361626C652025346C75202F25346CD8
:1007D0007500EA6A680EE96EEF500DE0020E016ED8
:1007E000006A002EFED7012EFBD7970E006E002E5A
:1007F000FED7EF2EF3D712006FB102D08A9801D046
:100800008A8893986FB302D08A9A01D08A8A939A81
:100810006FB502D08A9C01D08A8C939C6FB702D0AE
:100820008A9E01D08A8E939E00008A84939400D081
:1008300000D08A9493941200706B9388000E81B854
:10084000010E7013938A000E81BA010E006ED890CB
:10085000003600507013938C000E81BC010E006EA8
:1008600000360036FC0E001600507013938E000EFA
:1008700081BE010E006E003600360036F80E0016FE
:100880000050701370C001F012009388938A938C0B
:10089000938E8A82939200008A8493940000CCDF26
:1008A00001C06FF08A94939400008A84939400D0DE
:1008B000C3DF01C06EF08A9493949398939A939CAB
:1008C000939E6F39006EF00E001600506E11016E8F
:1008D00070EF04F09394939093928A909390D5D76D
:1008E00001C06EF001BEFBD76C5302E18A9001D0CB
:1008F0008A80939000008A92939200008A94939445
:100900006D396E6F0F0E6E176EC06FF075DF6D5123
:100910000F0B6E6F6F6F70DF1200280E496E0C0E9A
:100920004A6E010E4B6E060E4C6E8A9493948A901A
:1009300093908A9293929398939A939C939E939474
:10094000939093920F0E686F44DF010E486E4850EB
:10095000030808E3030E6F6F4FDF050E686F39DF82
:10096000482AF5D7020E6F6F47DF050E686F31DF3B
:10097000486A485003080DE3036A4850490FE96E7E
:10098000000E0320EA6EEFCF6DF06C6BA3DF482AF8
:10099000F0D71FEF08F0692D01D003D0400E6A6F29
:1009A00001D06A6B010E685D6A276A5180096B6F1E
:1009B0006C6B6D6F8FDF12006751070A07E00B0A3F
:1009C0000AE0060A10E0020A14E018D0010E686F6F
:1009D000696FE1DF18D06C6B010E6D6F7BDF020E6B
:1009E000686FF7DE10D0010E686F020E696FD3DFFB
:1009F0000AD06C6B100E6D6F6DDF05D0010E6C6F41
:100A000067C06DF067DF12000900F5520CE0F6CF09
:100A100048F0F7CF49F0F5CF67F0CEDF48C0F6FFDA
:100A200049C0F7FFF1D712000900F6CF5FF0F7CF0A
:100A300060F0F5CF67F0C0DF5FC0F6FF60C0F7FF82
:100A40005E2EF2D71200EACF66F0E9CF65F05F388C
:100A5000F009616F6127E20F626F320F646F5F50C0
:100A60000F0B622762276427E90F636F63276327F1
:100A70005E380F0B6327642763376437641F64375E
:100A80005E500F0B64276137070E606F0A0E630715
:100A90006427FDE362076327FDE361076227FDE347
:100AA00060076127FDE3EA6A600EE96E070E6515CF
:100AB000659DE926000EEA22E950640803E1EA5246
:100AC00001E1658DEF50006E08E165BD06D065B9A6
:100AD00013D065B702D0200E03D065876599300E1C
:100AE0000026EACF5FF0E9CF5EF000C067F064DF78
:100AF0005FC0EAFF5EC0E9FFEE5065ADDDD71200D2
:100B00004F6A010E4E6E4F504D5C2AE303E14E508A
:100B10004C5C26E3C00EF66E070EF76E070E5E6E97
:100B200083DF010EE96E4FC05FF04EC05EF08BDFD9
:100B3000200E676F41DF2F0E676F3EDF010EE96EFB
:100B40004DC05FF04CC05EF07EDF0C0E506EFA0EB2
:100B5000686F3FDE502EFBD74E2AD8B44F2AD3D72A
:100B600012009EA8FED7AD6E9BEF08F0EACF50F0C2
:100B7000E9CF4FF049AE08D04F8E4FA84F2A481EFC
:100B8000491E482AD8B4492A4938F0094B6E4B26E9
:100B9000E20F4C6E320F4E6E49500F0B4C264C2616
:100BA0004E26E90F4D6E4D264D2648380F0B4D262B
:100BB0004E264D364E364E1E4E3648500F0B4E26A4
:100BC0004B36070E4A6E0A0E4D064E26FDE34C06C6
:100BD0004D26FDE34B064C26FDE34A064B26FDE37E
:100BE000EA6A4A0EE96E070E4F144F9CED524F14FD
:100BF00007E14FB8EE524FB803D0200E006E20D060
:100C0000E926000EEA22E9504E0803E1EA5201E12A
:100C10004F8CEF50006E08E14FBC06D04FB81BD090
:100C20004FB602D0200E0BD04FAE06D02D0E006E68
:100C3000ED504F9C4F9E04D04F864F98300E0026AB
:100C4000EACF49F0E9CF48F000C067F0B5DE49C00F
:100C5000EAFF48C0E9FFEE504FACD5D71200016A59
:100C6000026A006A036A5F5002E15E5018E0100EEB
:100C7000606FD8905C365D36003603365F50035C9B
:100C800002E15E50005C07E35E50005ED8A0030600
:100C90005F50035ED88001360236602FEAD712001B
:100CA000EF520FE0EACF5FF0E9CF5EF0EFCF67F0F1
:100CB00083DE5FC0EAFF5EC0E9FFE92AD8B4EA2A12
:100CC000EFD7D9EF06F05C505E02F3CF01F0F4CF1E
:100CD00000F05F02F35000265D505E02F3500020EA
:100CE000026E4AEF07F054805482556A566A4FC02C
:100CF00003F04EC0E9FF4FC0EAFFECCF5DF0ED52CC
:100D0000EFCF5CF05D50515C10E303E150505C5C50
:100D10000CE24FC003F04EC0E9FF4FC0EAFF51C0E4
:100D2000ECFFED5250C0EFFF1BD04FC003F04EC0A0
:100D3000E9FF4FC0EAFFECCF5DF0ED52EFCF5CF082
:100D400053505D5C0DE303E15C50525C09E24EC020
:100D5000E9FF4FC0EAFF53C0ECFFED5252C0EFFF76
:100D600053C058F052C057F0585203E15750090889
:100D700010E258C05DF057C05CF05F6A0A0E5E6E0C
:100D80006EDF02C058F001C057F05550552A562A60
:100D9000EBD74CC001F04DC003F04CC05CF04DC02F
:100DA0005DF00C0E676F08DE4DC0EAFF4CC0E9FF36
:100DB00077D7AD0EF66E070EF76E110E5E6E34DE4F
:100DC00056BEE4D05650800A006E5550800A005C32
:100DD00002E0D8B0DBD05A6A010E596E54A02DD073
:100DE000060E686F020E696FD6DD4FC003F04EC06D
:100DF000E9FF4FC0EAFFECCF5DF0ED52EFCF5CF0C2
:100E0000010E5E6E300E676FD7DD5E2EFBD7080ECB
:100E1000E96E5DC05FF05CC05EF015DE549054A2D8
:100E20000CD00B0ED88056545C6E686F020E696F42
:100E3000B2DD2A0E676FC0DD5492958E83BE03D05B
:100E4000958883A811D0958E83AE03D05650560650
:100E500002D05650562A54805482958E83BEFDD7B8
:100E6000958883B8FAD791D0958A83BA03D0958CA8
:100E700083AC8BD05B6A56BE12D056505B5C0FE2DF
:100E80005B505B2A5AC05DF059C05CF05F6A0A0E85
:100E90005E6E19D702C05AF001C059F0ECD7958C9C
:100EA00083AC3BD04EC0E9FF4FC0EAFFECCF5DF012
:100EB000ED52EFCF5CF05E6A5F6A59505C5E5A504B
:100EC0005D5A000E5E5A5F5A5FBE1BD05F5209E149
:100ED0005E5207E151505D5C14E303E150505C5CED
:100EE00010E34EC0E9FF4FC0EAFF5950EF5C006EBF
:100EF0005A50EC58036E0050ED52EF6E03C0ECFFF9
:100F00000BD04FC003F04EC0E9FF4FC0EAFF51C005
:100F1000ECFFED5250C0EFFF31D0958A83AA2ED05E
:100F20004FC003F04EC0E9FF4FC0EAFFECCF5DF0C9
:100F3000ED52EFCF5CF059505C265A505D225D5067
:100F4000535C13E303E15C50525C0FE34EC0E9FFD6
:100F50004FC0EAFF5950EF24016E5A50EC20036E47
:100F6000ED5201C0EFFFEC6E09D04EC0E9FF4FC05B
:100F7000EAFF53C0ECFFED5252C0EFFF5480958C56
:100F800083BCFDD7958A83BAFAD71AD75550800A01
:100F9000006E5650800A005C04E2010E016E03D020
:100FA00002D0000E016E1200F86AD09E078E700EFD
:100FB000D36ED350B8960C0EAF6EA20EAC6E900EE0
:100FC000AB6E206A1F6A21902192296A286AC1505B
:100FD000C00B0F09C16E070EB46E196A1A6A226A35
:100FE000236A246A256A266A276AC00EF2129D8A3D
:100FF000C050C00BC06EC08EC280010E926EC15038
:10100000C00B0E09C16E000E016EC250C30B011061
:10101000C26E060E006E002EFED70000180E2A6E5D
:101020007C0E2B6E190E2C6E7C0E2D6E1A0E2E6EF3
:101030007C0E2F6E1B0E306E7C0E316E6ED4030E46
:10104000686F010E696FA7DCDC0EF66E060EF76E98
:10105000DBDC040E486EFA0E686FE9EC03F0482EF4
:10106000FAD7270E206E100E1F6EC282C2B2FED7B4
:10107000C4CF02F0C3CF01F0C4CF49F0C3CF48F0D2
:10108000C450030807E303E14850830803E3036AFD
:10109000010E02D0036A000E031005E0205210E199
:1010A0001F5009080DE3FA0EF66E060EF76EACDC63
:1010B000080E486EFA0E686FE9EC03F0482EFAD776
:1010C00021A03AD01E0EF66E070EF76E00019CDCD2
:1010D000010E326E21B21FD0010E686F020E696FD1
:1010E0005ADC300EF66E070EF76E8EDC32C068F0FA
:1010F000020E696F50DC2D0E676F5EDC640E686F48
:10110000E9EC03F03250100803E2010E326E02D017
:101110003250322ADFD722C048F023C049F024C021
:101120004AF025C04BF026C04CF027C04DF0E8DC5B
:1011300021922A0E16D5FED0420EF66E070EF76EDD
:10114000080E5E6E000170DC010EE96E20C049F0F1
:101150001FC048F00BDD4E0EF66E070EF76E140E34
:101160005E6E62DC958E83BE04D021A001D0A8D72C
:10117000F9D7958E83BEFDD7050E336E346A356A76
:10118000366A376A386AEA6A390EE96E0D0E016E00
:10119000F76A000E000157EC00F00A000900F5CFD5
:1011A000EEFF012EFBD74D6A390E4C6E4F6A330E9F
:1011B0004E6E516A506A536A140E526E94DD01529B
:1011C00001E07ED7EA6A390EE96E0F0E016EF76A0A
:1011D000000E000166EC00F00A000900F5CFEEFFFA
:1011E000012EFBD7D8903334026E3434036E025094
:1011F0001F5C4A6E035020584B6E4D6A390E4C6E80
:101200004F6A350E4E6E516A0A0E506E4BC053F047
:101210004AC052F068DD015201E0B5D7EA6A390EE2
:10122000E96E0A0E016EF76A000E000176EC00F01E
:101230000A000900F5CFEEFF012EFBD7D89033341A
:10124000026E3434036E02503524016E3650032290
:1012500001C04AF003C04BF020C05DF01FC05CF03D
:1012600003C05FF001C05EF0FADC02C04BF001C0C9
:101270004AF04D6A390E4C6E4F6A370E4E6E516A07
:10128000010E506E02C053F001C052F02CDD01522D
:1012900001E098D70C0E676FDCEC04F0200E676F4E
:1012A000DCEC04F0020EE96E38C049F037C048F0BB
:1012B0005DDC6A0EF66E070EF76E100E5E6E14ECB5
:1012C00005F0010EE96E36C049F035C048F04EDC3D
:1012D0007E0EF66E070EF76E070E5E6E14EC05F0CE
:1012E000958E83BE08D0958883A804D0958883B84E
:1012F000FDD794D7F5D7958E83BEFDD733C048F080
:1013000034C049F035C04AF036C04BF037C04CF01D
:1013100038C04DF080EC05F0860EF66E070EF76EC5
:1013200004EC05F0080E486EFA0E686FE9EC03F065
:08133000482EFAD796D60300FF
:020000040030CA
:0E00000020C93E1E0087A1000FC00FE00F4078
:00000001FF
;PIC18F4550
;CRC=2C8C  CREATED="09-dic.-23 19:20"
