:04000000CCEF0BF046
:08000800046ED8CF05F0E0CF33
:1000100006F00001E9CF0CF0EACF07F0E1CF08F0DD
:10002000E2CF09F0D9CF0AF0DACF0BF0F3CF12F01C
:10003000F4CF13F0FACF14F0F5CF15F0F6CF16F099
:10004000F7CF17F000C00EF001C00FF002C010F0A3
:1000500003C011F09DAA30EF00F09EBA05EF03F047
:100060000EC000F00FC001F010C002F011C003F08C
:100070000CC0E9FF07C0EAFF078E08C0E1FF09C016
:10008000E2FF0AC0D9FF0BC0DAFF12C0F3FF13C0B2
:10009000F4FF14C0FAFF15C0F5FF16C0F6FF17C035
:1000A000F7FF045006C0E0FF05C0D8FF1000F76A54
:1000B000BE0FF66E000EF7220900F5501200207CEC
:1000C000057C047C027C017CF76AD80FF66E000E7A
:1000D000F7220900F550120050656C61646F20280A
:1000E0006D6D293A0000F76AF60FF66E000EF722E2
:1000F0000900F55012004C6F6E6769747564202812
:100100006D6D293A0000F76A160FF66E010EF722A0
:100110000900F550120043616E74696461643A002D
:100120009EA8FED7AD6E1200EACF9AF0E9CF99F003
:1001300093AF08D0998F99A9992B921F931F922B57
:10014000D8B4932B9339F009956F9527E20F966FEA
:10015000320F986F93510F0B962796279827E90F28
:10016000976F9727972792390F0B972798279737DD
:100170009837981F983792510F0B98279537070E8D
:10018000946F0A0E97079827FDE396079727FDE3DC
:1001900095079627FDE394079527FDE3EA6A940EF9
:1001A000E96E070E9915999DED52991507E199B9D8
:1001B000EE5299B903D0200E006E20D0E926000E31
:1001C000EA22E950980803E1EA5201E1998DEF50E3
:1001D000006E08E199BD06D099B914D099B702D044
:1001E000200E0BD099AF06D02D0E006EED50999DCC
:1001F000999F04D099879999300E002600509EA8A7
:10020000FED7AD6EEE5099ADDCD71FEF03F0C7C03F
:10021000CAF0C6C0CCF0C5C0CBF0C95303E1C85189
:10022000000816E2CCC003F0CBC0E9FFCCC0EAFF67
:10023000CA51EF5C05E1CBC001F0CCC002F00BD09D
:10024000CB2BD8B4CC2BC851D8B4C907C807E5D735
:10025000000E016E026E1200C751C919800BCB6FE0
:10026000C7AF05D0C61FC71FC62BD8B4C72BC9AF91
:1002700005D0C81FC91FC82BD8B4C92BC651C80385
:10028000F3CF01F0F4CF00F0C903F3500026C751BB
:10029000C803F3500020026ECBAF05D0011E021E32
:1002A000012AD8B4022AA6EF02F09E6B9D6B300E95
:1002B000A06F310EA16F320EA26F330EA36F340EFA
:1002C000A46F350EA56F360EA66F370EA76F380ECA
:1002D000A86F390EA96F610EAA6F620EAB6F630E25
:1002E000AC6F640EAD6F650EAE6F660EAF6F670ECE
:1002F000B06F680EB16F690EB26F6A0EB36F6B0E9E
:10030000B46F6C0EB56F6D0EB66F6E0EB76F6F0E6D
:10031000B86F700EB96F710EBA6F730EBB6F740E3B
:10032000BC6F750EBD6F760EBE6F770EBF6F780E09
:10033000C06F790EC16F7A0EC26FC36B93C098F015
:1003400092C097F098C003F097C0E9FF98C0EAFF09
:10035000EF50200804E1972BD8B4982BF3D798C01E
:1003600003F097C0E9FF98C0EAFFEF502D0809E0BD
:1003700098C003F097C0E9FF98C0EAFFEF502B0840
:1003800009E198C0EAFF9751972BD8B4982BE96EF2
:10039000EF5001D02B0E9F6F9F512D080AE096BFA2
:1003A00008D0962D01D005D096BF05D096512408CF
:1003B00002E209D184D096534CE0965110081FE117
:1003C00098C003F097C0E9FF98C0EAFFEF503008EB
:1003D00016E1010E9725E96E000E9821EA6EEF50A6
:1003E000780809E0010E9725E96E000E9821EA6E63
:1003F000EF50580804E1020E9727000E98239651FB
:1004000008080DE198C003F097C0E9FF98C0EAFF23
:10041000EF50300804E1010E9727000E9823965103
:10042000020816E198C003F097C0E9FF98C0EAFF00
:10043000EF5030080DE1010E9725E96E000E98216E
:10044000EA6EEF50620804E1020E9727000E98232F
:1004500036D098C003F097C0E9FF98C0EAFFEF508C
:10046000300803E00A0E966F2AD0010E9725E96E38
:10047000000E9821EA6EEF50780809E0010E9725EA
:10048000E96E000E9821EA6EEF50580807E1100E51
:10049000966F020E9727000E982311D0010E972514
:1004A000E96E000E9821EA6EEF50620806E1020E36
:1004B000966F9727000E982302D0080E966F98C06B
:1004C0009AF097C099F098C003F097C0E9FF98C0E0
:1004D000EAFFEF50300804E1972BD8B4982BF3D7FC
:1004E00098C003F097C0E9FF98C0EAFFEFCFC4F0CF
:1004F000C451400806E2C4515A0803E3C45120091C
:1005000001D0C451C46FC66BA00EC56FC4C0C7F084
:10051000C96B96C0C8F0C8BFC90779DE02C09CF09D
:1005200001C09BF09B5302E19C5347E0036A965144
:10053000006EE8BE0306C46F03C0C5F09EC0C7F0DE
:100540009DC0C6F003C0C9F0C86F86D601C0C4F014
:10055000A00E9B5D006E000E9C59036E005001249E
:10056000016E0250032201C09DF003C09EF0972B44
:10057000D8B4982B98C003F097C0E9FF98C0EAFF61
:10058000EFCFC4F0C451400806E2C4515A0803E357
:10059000C451200901D0C451C46FC66BA00EC56FF1
:1005A000C4C0C7F0C96B96C0C8F0C8BFC9072FDE6A
:1005B00002C09CF001C09BF0B5D79751995D14E142
:1005C00098519A5D11E100019451951109E094C090
:1005D000E9FF95C0EAFF93C0ECFFED5292C0EFFF38
:1005E000000E016E026E10D09451951109E094C076
:1005F000E9FF95C0EAFF98C0ECFFED5297C0EFFF0E
:100600009DC001F09EC002F012009EAAFED7AECFA0
:100610007EF07E512B0815E1215206E120501D0885
:1006200003E32D0E7DDD0CD02B0E9EA8FED7AD6E04
:10063000090EE96E21C093F020C092F075D522809A
:1006400063D022B261D07E512A085EE18D6B8D515C
:1006500001080DE3036A8D517F0FE96E000E032040
:10066000EA6E9EAAFED7AECFEFFF8D2BF0D7816B3F
:100670008E6B8E5104080DE3036A8E51820FE96E72
:10068000000E0320EA6E9EAAFED7AECFEFFF8E2BA0
:10069000F0D7876B8F6B8F5103080DE3036A8F517F
:1006A000880FE96E000E0320EA6E9EAAFED7AECF39
:1006B000EFFF8F2BF0D78C6B936B7F0E926F956B48
:1006C000900E946F0A0E966FF0DD02C024F001C008
:1006D00023F0936B820E926F956B900E946F0A0EBF
:1006E000966FE3DD02C026F001C025F0936B880E03
:1006F000926F956B900E946F0A0E966FD6DD02C0C6
:1007000028F001C027F022829E9A30EF00F057496E
:100710005245205452494D4D45520A2050726F6740
:100720002E204176616E7A61646100000C43617233
:10073000726574652045736361736F004E756576ED
:100740006F20436172726574652D3E002020202069
:100750002020202020202020202020000C202020CD
:10076000526563696269656E646F202020002020F5
:1007700020202020202020202020202020200000B9
:100780000C4361626C653A2025356C64206D6D0008
:100790004E75657661204F7264656E20202D3E0097
:1007A0002020202020202020202020202020200069
:1007B0000C2025346C64204361626C652873292009
:1007C000200A2020202025356C64206D6D202020FB
:1007D00020000C4F5244454E2046494E414C495A48
:1007E0004144410A205675656C76612050726F6EE7
:1007F000746F202100000C25730A2D2D2D2D2D2026
:1008000020202020202D2D2D2D2D00000C43616255
:100810006C652025346C75202F25346C75000C43D5
:100820006F6C6F71756520656C204341424C450AC1
:10083000656E20737520706F736963696F6E000059
:100840000C456E726F6C6C617220202020202D3E52
:100850000A446574656E65722020202020203C2D9E
:1008600000000C4361626C6520456E726F6C6C61B8
:10087000646F3F0A436F6E74696E75617220202049
:1008800020202D3E00006651070B006E6631016E80
:10089000013201321F0E011601506825E96E000E6B
:1008A0006921EA6E016A012A002A01D00136002E70
:1008B000FDD7675303E00150EF1203D0011E015032
:1008C000EF161200EA6A740EE96EEF500DE0020EA8
:1008D000016E006A002EFED7012EFBD7970E006E28
:1008E000002EFED7EF2EF3D712007BB102D08A98EC
:1008F00001D08A8893987BB302D08A9A01D08A8AE1
:10090000939A7BB502D08A9C01D08A8C939C7BB74A
:1009100002D08A9E01D08A8E939E00008A8493948E
:1009200000D000D08A94939412007C6B9388000EC0
:1009300081B8010E7C13938A000E81BA010E006EFD
:10094000D890003600507C13938C000E81BC010EB1
:10095000006E00360036FC0E001600507C13938E9D
:10096000000E81BE010E006E003600360036F80E15
:10097000001600507C137CC001F012009388938A0B
:10098000938C938E8A82939200008A8493940000C1
:10099000CCDF01C07BF08A94939400008A84939406
:1009A00000D0C3DF01C07AF08A9493949398939A0D
:1009B000939C939E7B39006EF00E001600507A11C6
:1009C000016EE9EF04F09394939093928A90939040
:1009D000D5D701C07AF001BEFBD7785302E18A90E7
:1009E00001D08A80939000008A92939200008A94AA
:1009F000939479397A6F0F0E7A177AC07BF075DF8E
:100A000079510F0B7A6F7B6F70DF1200280E536ED7
:100A10000C0E546E010E556E060E566E8A9493940B
:100A20008A9093908A9293929398939A939C939E90
:100A30009394939093920F0E746F44DF010E526E55
:100A40005250030808E3030E7B6F4FDF050E746FEF
:100A500039DF522AF5D7020E7B6F47DF050E746F20
:100A600031DF526A525003080DE3036A5250530FAC
:100A7000E96E000E0320EA6EEFCF79F0786BA3DF0A
:100A8000522AF0D744EF0CF0752D01D003D0400E60
:100A9000766F01D0766B010E745D762776518009F2
:100AA000776F786B796F8FDF12007351070A07E059
:100AB0000B0A0AE0060A10E0020A14E018D0010E40
:100AC000746F756FE1DF18D0786B010E796F7BDF83
:100AD000020E746FF7DE10D0010E746F020E756F88
:100AE000D3DF0AD0786B100E796F6DDF05D0010E61
:100AF000786F73C079F067DF12000900F5520CE0DF
:100B0000F6CF59F0F7CF5AF0F5CF73F0CEDF59C0DA
:100B1000F6FF5AC0F7FFF1D71200016A026A006AB5
:100B2000036A6B5102E16A5118E0100E6C6FD890A5
:100B300068376937003603366B51035C02E16A514E
:100B4000005C07E36A51005ED8A003066B51035EA8
:100B5000D880013602366C2FEAD7120068516A033A
:100B6000F3CF01F0F4CF00F06B03F350002669518E
:100B70006A03F3500020026E12005D5205E05CC073
:100B800021F05BC020F004D05B5020265C50212275
:100B90005E6A5E50040855E321C069F020C068F029
:100BA000270E6B6F100E6A6FB8DF02C060F001C0D5
:100BB0005FF002C069F001C068F06B6B050E6A6FF0
:100BC000CDDF02C003F00150035203E101505E5C2F
:100BD0001CE2D8905E34036A57EC00F00900F5CFB0
:100BE00003F05F6E03C060F0666F010E676F0F0E5B
:100BF000696F890E686F47DE5FC066F0676B0F0E26
:100C0000696F920E686F3FDE1AD0D8905E34036A27
:100C100057EC00F00900F5CF03F05F6E03C060F001
:100C2000666F676B0F0E696F890E686F2CDE5FC091
:100C300066F0676B0F0E696F920E686F24DE5E2A96
:100C4000A8D75DEF08F0216A206A1E0EF66E080E26
:100C5000F76E53DFC282C2B2FED7C4CF02F0C3CF59
:100C600001F0C4CF5AF0C3CF59F0C450030807E3D2
:100C700003E15950830803E3036A010E02D0036ABB
:100C8000000E0310E7E0060E006E002EFED70000F7
:100C9000556A546A536A526A400EF66E080EF76E31
:100CA00000012BDF2DC066F0010E676F0F0E696F1C
:100CB000890E686FE8DD2DC066F0676B0F0E696FF7
:100CC000920E686FE0DD29C066F0010E676F0F0EAF
:100CD000696F890E686FD7DD29C066F0676B0F0EEC
:100CE000696F920E686FCFDD5690586A576AC2825C
:100CF000C2B2FED7C4CF02F0C3CF01F0C4CF5AF0C6
:100D0000C3CF59F0C450030807E303E159508308E7
:100D100003E3036A010E02D0036A000E0310D8B485
:100D200072D0958E83AE02D0568004D0958883A869
:100D300001D0569056A064D0575032082CE158523A
:100D40002AE129C066F0010E676F0F0E696F890EE8
:100D5000686F99DD29C066F0676B0F0E696F920EA0
:100D6000686F91DD29C066F0676B0F0E696F890EA1
:100D7000686F89DD29C066F0676B0F0E696F920E90
:100D8000686F81DD010E5226D8B0532AD8B4542A98
:100D9000D8B4552A2ED05750640824E1585222E185
:100DA0002DC066F0010E676F0F0E696F890E686FB8
:100DB0006ADD2DC066F0676B0F0E696F920E686F6B
:100DC00062DD2DC066F0676B0F0E696F890E686F6C
:100DD0005ADD2DC066F0676B0F0E696F920E686F5B
:100DE00052DD07D0585203E15750640802E2586AB6
:100DF000576A010E746F66DD572AD8B4582A02D09C
:100E0000586A576A74D7586A576AC282C2B2FED704
:100E1000C4CF02F0C3CF01F0C4CF5AF0C3CF59F012
:100E2000C450030807E303E15950830803E3036A4E
:100E3000010E02D0036A000E0310D8B46AD05750D6
:100E400032082CE158522AE129C066F0010E676F82
:100E50000F0E696F890E686F16DD29C066F0676B2B
:100E60000F0E696F920E686F0EDD29C066F0676B1A
:100E70000F0E696F890E686F06DD29C066F0676B1B
:100E80000F0E696F920E686FFEDCFF0E5226D8A01F
:100E90005326D8A05426D8A0552626D057506408EB
:100EA00023E1585221E12DC066F0010E676F0F0E4D
:100EB000696F890E686FE7DC2DC066F0676B0F0EF7
:100EC000696F920E686FDFDC2DC066F0676B0F0EE6
:100ED000696F890E686FD7DC2DC066F0676B0F0EE7
:100EE000696F920E686FCFDC010E746FEBDC5852A5
:100EF00003E15750640806E2586A576A58C003F085
:100F0000575006D058C003F05750572AD8B4582A23
:100F10007CD7620EF66E080EF76EEFDD958E83BEFF
:100F20001BD0C282C2B2FED7C4CF02F0C3CF01F041
:100F3000C4CF5AF0C3CF59F0C450030807E303E10C
:100F40005950830803E3036A010E02D0036A000EBE
:100F5000031001E0A1D6E2D72DC066F0676B0F0E3B
:100F6000696F890E686F8FDC2DC066F0676B0F0E9E
:100F7000696F920E686F87DC29C066F0676B0F0E91
:100F8000696F890E686F7FDC29C066F0676B0F0E92
:100F9000696F920E686F77DC586A576AC282C2B274
:100FA000FED7C4CF02F0C3CF01F0C4CF5AF0C3CFF5
:100FB00059F0C450030807E303E15950830803E3E1
:100FC000036A010E02D0036A000E0310D8A46AD08F
:100FD000575032082CE158522AE129C066F0010E20
:100FE000676F0F0E696F890E686F4DDC29C066F060
:100FF000676B0F0E696F920E686F45DC29C066F053
:10100000676B0F0E696F890E686F3DDC29C066F053
:10101000676B0F0E696F920E686F35DCFF0E5226FC
:10102000D8A05326D8A05426D8A0552626D057504D
:10103000640823E1585221E12DC066F0010E676F6C
:101040000F0E696F890E686F1EDC2DC066F0676B2E
:101050000F0E696F920E686F16DC2DC066F0676B1D
:101060000F0E696F890E686F0EDC2DC066F0676B1E
:101070000F0E696F920E686F06DC010E746F22DC32
:10108000585203E15750640806E2586A576A58C03C
:1010900003F0575006D058C003F05750572AD8B421
:1010A000582A7CD753C05AF052C059F053C05CF054
:1010B00052C05BF0010E5D6E60D5A5EF0CF009002B
:1010C000F6CF6BF0F7CF6CF0F5CF73F0EEDC6BC0C2
:1010D000F6FF6CC0F7FF6A2FF2D71200EACF72F06A
:1010E000E9CF71F06B39F0096D6F6D27E20F6E6F0C
:1010F000320F706F6B510F0B6E276E277027E90F41
:101100006F6F6F276F276A390F0B6F2770276F3745
:101110007037701F70376A510F0B70276D37070ECD
:101120006C6F0A0E6F077027FDE36E076F27FDE3F4
:101130006D076E27FDE36C076D27FDE3EA6A6C0E11
:10114000E96E070E7115719DE926000EEA22E9503D
:10115000700803E1EA5201E1718DEF50006E08E181
:1011600071BD06D071B913D071B702D0200E03D073
:1011700071877199300E0026EACF6BF0E9CF6AF0E3
:1011800000C073F092DC6BC0EAFF6AC0E9FFEE506A
:1011900071ADDDD712002FC066F0676B0F0E696F5F
:1011A000890E686F43EC04F02FC066F0676B0F0E7A
:1011B000696F920E686F43EC04F02BC066F0676BAA
:1011C0000F0E696F890E686F43EC04F02BC066F058
:1011D000676B0F0E696F920E686F43EC04F0636BE0
:1011E000626B656B646B5D520AE15C5208E16551AC
:1011F0005B5CD8A072D003E15A50645D6EE262512C
:1012000032082BE1635329E129C066F0010E676FB4
:101210000F0E696F890E686F43EC04F029C066F009
:10122000676B0F0E696F920E686F43EC04F029C074
:1012300066F0676B0F0E696F890E686F43EC04F000
:1012400029C066F0676B0F0E696F920E686F43ECF2
:1012500004F0642BD8B4652B2AD06251640827E1CE
:10126000635325E12DC066F0010E676F0F0E696FA5
:10127000890E686F43EC04F02DC066F0676B0F0EAB
:10128000696F920E686F43EC04F02DC066F0676BD7
:101290000F0E696F890E686F43EC04F02DC066F085
:1012A000676B0F0E696F920E686F43EC04F0010ECE
:1012B000746F62EC04F0635303E16251640806E268
:1012C000636B626B63C003F0625106D063C003F0CE
:1012D0006251622BD8B4632B86D71200596A010E73
:1012E000586E5950575C3AE303E15850565C36E368
:1012F0000C0EF66E080EF76E070E6A6FE0DE010E3A
:10130000E96E59C06BF058C06AF0E8DE200E736FCA
:1013100055EC05F02F0E736F55EC05F0010EE96EDC
:1013200057C06BF056C06AF0D9DE5D6A5C6A53C084
:101330005BF052C05AF02FDF5D6A5C6A55C05BF00B
:1013400054C05AF028DF5D6A5C6A53C05BF052C03B
:101350005AF021DF582AD8B4592AC3D71200EACF4D
:101360005AF0E9CF59F053AE08D0598E59A8592AEE
:10137000521E531E522AD8B4532A5338F009556EC0
:101380005526E20F566E320F586E53500F0B5626ED
:1013900056265826E90F576E5726572652380F0BF8
:1013A0005726582657365836581E583652500F0B67
:1013B00058265536070E546E0A0E57065826FDE37A
:1013C00056065726FDE355065626FDE354065526D8
:1013D000FDE3EA6A540EE96E070E5914599CED526A
:1013E000591407E159B8EE5259B803D0200E006ED7
:1013F00020D0E926000EEA22E950580803E1EA521B
:1014000001E1598CEF50006E08E159BC06D059B883
:101410001CD059B602D0200E0BD059AE06D02D0EDE
:10142000006EED50599C599E04D059865998300E43
:101430000026EACF53F0E9CF52F000C073F055EC2C
:1014400005F053C0EAFF52C0E9FFEE5059ACD4D7C3
:101450001200EF5210E0EACF6BF0E9CF6AF0EFCF65
:1014600073F055EC05F06BC0EAFF6AC0E9FFE92AAA
:10147000D8B4EA2AEED7A8EF0AF05E805E925F6ADF
:10148000606B59C003F058C0E9FF59C0EAFFECCFC8
:1014900069F0ED52EFCF68F069515B5C10E303E156
:1014A0005A50685D0CE259C003F058C0E9FF59C0BA
:1014B000EAFF5BC0ECFFED525A50EF6E1ED059C0F0
:1014C00003F058C0E9FF59C0EAFFECCF69F0ED52D4
:1014D000EFCF68F05D50695D10E303E168515C5C3B
:1014E0000CE258C0E9FF59C0EAFF5DC0ECFFED52C5
:1014F0005CC0EFFF5DC003F05C505DC062F05CC09B
:1015000061F0625303E16151090811E262C069F0C0
:1015100061C068F06B6B0A0E6A6F8DEC05F002C05B
:1015200062F001C061F05F505F2A602BEAD756C0BD
:1015300001F057C003F056C068F057C069F00C0EB8
:10154000736F55EC05F057C0EAFF56C0E9FF81D72D
:10155000F90EF66E070EF76E110E6A6FB0DD646B52
:10156000636B60BF0BD16051800A006E5F50800AD0
:10157000005C02E0D8B002D1666B010E656F010E0F
:10158000746F62EC04F0632BD8B4642B632D06D027
:10159000645304E15E80036A010E11D06351F408C4
:1015A00005E1642D03D05E82010E09D06351E80885
:1015B00006E16451030803E1646B636B63515EA051
:1015C00022D0060E746F020E756F44EC05F059C000
:1015D00003F058C0E9FF59C0EAFFECCF69F0ED52C3
:1015E000EFCF68F0010E6A6F300E736F55EC05F0A7
:1015F0006A2FFAD7080EE96E69C06BF068C06AF00E
:101600006DDD5E9010D05EA20ED00B0ED8806055BE
:10161000686F746F020E756F44EC05F05F0E736FA8
:1016200055EC05F05E92958E83BE03D0958883A815
:1016300011D0958E83AE03D06051600702D0605107
:10164000602B646B636B958E83BEFDD7958883B8E2
:10165000FAD793D0958A83BA03D0958C83AC8DD07A
:10166000676B60BF13D06051675D10E26751672BF5
:1016700066C069F065C068F06B6B0A0E6A6FAEEC0D
:1016800005F002C066F001C065F0EBD7958C83AC25
:101690003BD058C0E9FF59C0EAFFECCF69F0ED52EA
:1016A000EFCF68F06A6B6B6B6551685F6651695B81
:1016B000000E6A5B6B5B6BBF1BD06B5309E16A5317
:1016C00007E15B50695D14E303E15A50685D10E384
:1016D00058C0E9FF59C0EAFF6551EF5C006E6651E2
:1016E000EC58036E0050ED52EF6E03C0ECFF0BD0D0
:1016F00059C003F058C0E9FF59C0EAFF5BC0ECFFD6
:10170000ED525AC0EFFF31D0958A83AA2ED059C02E
:1017100003F058C0E9FF59C0EAFFECCF69F0ED5281
:10172000EFCF68F0655168276651692369515D5CA8
:1017300013E303E168515C5C0FE358C0E9FF59C053
:10174000EAFF6551EF24016E6651EC20036EED5205
:1017500001C0EFFFEC6E09D058C0E9FF59C0EAFFA5
:101760005DC0ECFFED525CC0EFFF646B636B958C6A
:1017700083BCFDD7958A83BAFAD7F3D65F50800A27
:10178000006E6051800A005C04E2010E016E03D01D
:1017900002D0000E016E1200F86AD09E078E700E05
:1017A000D36ED350B8960C0EAF6EA20EAC6E900EE8
:1017B000AB6E216A206A22902292366A356AC15045
:1017C000C00B0F09C16E070EB46E1A6A1B6A236A3A
:1017D000246A256A266A276A286A190E296E7C0EF1
:1017E0002A6E180E2B6E7C0E2C6E110E2D6E7C0E3A
:1017F0002E6E120E2F6E7C0E306E1A0E316E7C0E17
:10180000326E1B0E336E7C0E346E376A375004080E
:101810001EE3D8903734036A57EC00F00900F5CF87
:1018200003F0526E03C053F0666F676B0F0E696F63
:10183000890E686F43EC04F052C066F0676B0F0EC0
:10184000696F920E686F43EC04F0372ADFD7C00E41
:10185000F2129D8AC050C00BC06EC08EC280010EB5
:10186000926EC150C00B1E09C16E000E016EC250B7
:10187000C30B0110C26E060E006E002EFED70000D4
:101880009292899206EF05F0030E746F010E756F48
:1018900044EC05F00E0EF66E070EF76E7DEC05F0CB
:1018A000040E526EFA0E746F62EC04F0522EFAD7E8
:1018B000216A050E206E215249E120501D0846E3A1
:1018C0002C0EF66E070EF76E7DEC05F0396A386A5D
:1018D000958E83BE35D0010E746F020E756F44EC89
:1018E00005F0382C09D0395207E13C0EF66E070E90
:1018F000F76E7DEC05F00BD03850F40808E1392C78
:1019000006D04C0EF66E070EF76E7DEC05F0010E5C
:10191000746F62EC04F0395002080BE2FF0A03E135
:101920003850E80806E2396A386A39C003F038509E
:1019300006D039C003F03850382AD8B4392AC8D76D
:10194000958E83BEFDD723EF06F0B5D722A045D0F4
:101950005C0EF66E070EF76E00017DEC05F0010ED1
:101960003A6E22B223D0010E746F020E756F44ECF2
:1019700005F06E0EF66E070EF76E7DEC05F03AC0C0
:1019800074F0020E756F44EC05F02D0E736F55EC7C
:1019900005F0640E746F62EC04F03A50100803E234
:1019A000010E3A6E02D03A503A2ADBD723C052F0E9
:1019B00024C053F025C054F026C055F027C056F07F
:1019C00028C057F08BDC229022922A0E90EC00F077
:1019D000640E746F62EC04F039D1800EF66E070E5F
:1019E000F76E080E00016A6F5FEC08F0010EE96EF9
:1019F00021C053F020C052F0B2DC8C0EF66E070E00
:101A0000F76E030E6A6F5FEC08F03C6A3B6A958ED6
:101A100083BE38D0010E746F020E756F44EC05F072
:101A20003B2C09D03C5207E1900EF66E070EF76E84
:101A30007DEC05F00BD03B50F40808E13C2C06D0BF
:101A4000A00EF66E070EF76E7DEC05F022A001D019
:101A50007DD7010E746F62EC04F03C5002080BE27B
:101A6000FF0A03E13B50E80806E23C6A3B6A3CC0DF
:101A700003F03B5006D03CC003F03B503B2AD8B4A7
:101A80003C2AC5D7958E83BEFDD7050E3D6E3E6AB6
:101A90003F6A406A416A426AEA6A430EE96E0D0E85
:101AA000016EF76A000E000164EC00F00A00090004
:101AB000F5CFEEFF012EFBD7576A430E566E596ADB
:101AC0003D0E586E5B6A5A6A5D6A140E5C6ED5DC18
:101AD000015201E03BD7EA6A430EE96E0F0E016E38
:101AE000F76A000E000173EC00F00A000900F5CF60
:101AF000EEFF012EFBD7D8903D34026E3E34036ECC
:101B00000250205C546E03502158556E576A430EA4
:101B1000566E596A3F0E586E5B6A0A0E5A6E55C071
:101B20005DF054C05CF0A9DC015201E0B5D7EA6A6F
:101B3000430EE96E0A0E016EF76A000E000183EC97
:101B400000F00A000900F5CFEEFF012EFBD7D89078
:101B50003D34026E3E34036E02503F24016E40500D
:101B6000032201C054F003C055F021C069F020C029
:101B700068F003C06BF001C06AF08DEC05F002C0A4
:101B800055F001C054F0576A430E566E596A410E23
:101B9000586E5B6A010E5A6E02C05DF001C05CF0C7
:101BA0006CDC015201E097D70C0E736F55EC05F019
:101BB000200E736F55EC05F0020EE96E42C053F033
:101BC00041C052F0AFEC09F0B60EF66E070EF76E9C
:101BD000100E6A6F5FEC08F0010EE96E40C053F022
:101BE0003FC052F0AFEC09F0CA0EF66E070EF76E6A
:101BF000070E6A6F5FEC08F0958E83BE08D095885B
:101C000083A804D0958883B8FDD791D7F5D7958E52
:101C100083BEFDD73DC052F03EC053F03FC054F0EC
:101C200040C055F041C056F042C057F06EEC09F08C
:101C3000D20EF66E070EF76E7DEC05F0080E526EB2
:101C4000FA0E746F62EC04F0522EFAD731D603000C
:020000040030CA
:0E00000020C93E1E0087A1000FC00FE00F4078
:00000001FF
;PIC18F4550
;CRC=D4AA  CREATED="14-dic.-23 21:10"
