:040000004BEF08F0CA
:08000800046ED8CF05F0E0CF33
:1000100006F00001E9CF0CF0EACF07F0E1CF08F0DD
:10002000E2CF09F0D9CF0AF0DACF0BF0F3CF12F01C
:10003000F4CF13F0FACF14F0F5CF15F0F6CF16F099
:10004000F7CF17F000C00EF001C00FF002C010F0A3
:1000500003C011F09DAA30EF00F09EBAF8EF02F055
:100060000EC000F00FC001F010C002F011C003F08C
:100070000CC0E9FF07C0EAFF078E08C0E1FF09C016
:10008000E2FF0AC0D9FF0BC0DAFF12C0F3FF13C0B2
:10009000F4FF14C0FAFF15C0F5FF16C0F6FF17C035
:1000A000F7FF045006C0E0FF05C0D8FF1000F76A54
:1000B000BE0FF66E000EF7220900F55012005065D3
:1000C0006C61646F20286D6D293A0000F76ADC0FBF
:1000D000F66E000EF7220900F55012004C6F6E67A5
:1000E0006974756420286D6D293A0000F76AFC0F69
:1000F000F66E000EF7220900F550120043616E748F
:10010000696461643A009EA8FED7AD6E1200EACF22
:1001100099F0E9CF98F092AF08D0988F98A9982BD2
:10012000911F921F912BD8B4922B9239F009946FA2
:100130009427E20F956F320F976F92510F0B95270F
:1001400095279727E90F966F9627962791390F0BDA
:100150009627972796379737971F973791510F0B09
:1001600097279437070E936F0A0E96079727FDE39C
:1001700095079627FDE394079527FDE393079427BA
:10018000FDE3EA6A930EE96E070E9815989DED520D
:10019000981507E198B9EE5298B903D0200E006E79
:1001A00020D0E926000EEA22E950970803E1EA523E
:1001B00001E1988DEF50006E08E198BD06D098B926
:1001C00014D098B702D0200E0BD098AF06D02D0EC9
:1001D000006EED50989D989F04D098879899300EA6
:1001E000002600509EA8FED7AD6EEE5098ADDCD72D
:1001F00012EF03F0C6C0C9F0C5C0CBF0C4C0CAF04E
:10020000C85303E1C751000816E2CBC003F0CAC0CF
:10021000E9FFCBC0EAFFC951EF5C05E1CAC001F0BC
:10022000CBC002F00BD0CA2BD8B4CB2BC751D8B45B
:10023000C807C707E5D7000E016E026E1200C6514F
:10024000C819800BCA6FC6AF05D0C51FC61FC52B06
:10025000D8B4C62BC8AF05D0C71FC81FC72BD8B48A
:10026000C82BC551C703F3CF01F0F4CF00F0C8038A
:10027000F3500026C651C703F3500020026ECAAFE8
:1002800005D0011E021E012AD8B4022A99EF02F0FD
:100290009D6B9C6B300E9F6F310EA06F320EA16F65
:1002A000330EA26F340EA36F350EA46F360EA56FFA
:1002B000370EA66F380EA76F390EA86F610EA96FA3
:1002C000620EAA6F630EAB6F640EAC6F650EAD6FFE
:1002D000660EAE6F670EAF6F680EB06F690EB16FCE
:1002E0006A0EB26F6B0EB36F6C0EB46F6D0EB56F9E
:1002F0006E0EB66F6F0EB76F700EB86F710EB96F6E
:10030000730EBA6F740EBB6F750EBC6F760EBD6F39
:10031000770EBE6F780EBF6F790EC06F7A0EC16F09
:10032000C26B92C097F091C096F097C003F096C050
:10033000E9FF97C0EAFFEF50200804E1962BD8B4FC
:10034000972BF3D797C003F096C0E9FF97C0EAFF59
:10035000EF502D0809E097C003F096C0E9FF97C061
:10036000EAFFEF502B0809E197C0EAFF9651962B60
:10037000D8B4972BE96EEF5001D02B0E9E6F9E5193
:100380002D080AE095BF08D0952D01D005D095BF66
:1003900005D09551240802E209D184D095534CE050
:1003A000955110081FE197C003F096C0E9FF97C070
:1003B000EAFFEF50300816E1010E9625E96E000EB7
:1003C0009721EA6EEF50780809E0010E9625E96E54
:1003D000000E9721EA6EEF50580804E1020E9627AE
:1003E000000E9723955108080DE197C003F096C0C1
:1003F000E9FF97C0EAFFEF50300804E1010E9627AD
:10040000000E97239551020816E197C003F096C09D
:10041000E9FF97C0EAFFEF5030080DE1010E962585
:10042000E96E000E9721EA6EEF50620804E1020EB9
:100430009627000E972336D097C003F096C0E9FFA9
:1004400097C0EAFFEF50300803E00A0E956F2AD0FC
:10045000010E9625E96E000E9721EA6EEF5078089E
:1004600009E0010E9625E96E000E9721EA6EEF5025
:10047000580807E1100E956F020E9627000E97237D
:1004800011D0010E9625E96E000E9721EA6EEF500D
:10049000620806E1020E956F9627000E972302D0A0
:1004A000080E956F97C099F096C098F097C003F02A
:1004B00096C0E9FF97C0EAFFEF50300804E1962BA1
:1004C000D8B4972BF3D797C003F096C0E9FF97C035
:1004D000EAFFEFCFC3F0C351400806E2C3515A0808
:1004E00003E3C351200901D0C351C36FC56B9F0EF5
:1004F000C46FC3C0C6F0C86B95C0C7F0C7BFC807FC
:1005000079DE02C09BF001C09AF09A5302E19B533E
:1005100047E0036A9551006EE8BE0306C36F03C04F
:10052000C4F09DC0C6F09CC0C5F003C0C8F0C76F42
:1005300086D601C0C3F09F0E9A5D006E000E9B59D7
:10054000036E00500124016E0250032201C09CF092
:1005500003C09DF0962BD8B4972B97C003F096C09C
:10056000E9FF97C0EAFFEFCFC3F0C351400806E2AE
:10057000C3515A0803E3C351200901D0C351C36FCB
:10058000C56B9F0EC46FC3C0C6F0C86B95C0C7F0E3
:10059000C7BFC8072FDE02C09BF001C09AF0B5D7D5
:1005A0009651985D14E19751995D11E100019351C5
:1005B000941109E093C0E9FF94C0EAFF92C0ECFFF8
:1005C000ED5291C0EFFF000E016E026E10D09351FC
:1005D000941109E093C0E9FF94C0EAFF97C0ECFFD3
:1005E000ED5296C0EFFF9CC001F09DC002F01200DA
:1005F0009EAAFED7AECF7DF07D512B0815E121528A
:1006000006E12050090803E32D0E7DDD0CD02B0EF2
:100610009EA8FED7AD6E090EE96E21C092F020C0F3
:1006200091F075D5228063D022B261D07D512A0825
:100630005EE18C6B8C5101080DE3036A8C517E0FD7
:10064000E96E000E0320EA6E9EAAFED7AECFEFFF42
:100650008C2BF0D7806B8D6B8D5104080DE3036AF2
:100660008D51810FE96E000E0320EA6E9EAAFED71F
:10067000AECFEFFF8D2BF0D7866B8E6B8E510308BC
:100680000DE3036A8E51870FE96E000E0320EA6EB8
:100690009EAAFED7AECFEFFF8E2BF0D78C6B926B5E
:1006A0007E0E916F946B8F0E936F0A0E956FF0DD37
:1006B00002C024F001C023F0926B810E916F946B05
:1006C0008F0E936F0A0E956FE3DD02C026F001C016
:1006D00025F0926B870E916F946B8F0E936F0A0EBD
:1006E000956FD6DD02C028F001C027F022829E9AC5
:1006F00030EF00F057495245205452494D4D455274
:100700000A2050726F672E204176616E7A616461B3
:1007100000000C53494E204341424C45204449536C
:10072000502E0000436172676172204361626C6504
:10073000202D3E00202020202020202020202020AE
:10074000202020000C202020526563696269656EBC
:10075000646F202020002020202020202020202026
:1007600020202020202000000C4361626C653A208C
:1007700025356C64206D6D004E75657661204F7275
:1007800064656E20202D3E00202020202020202087
:1007900020202020202020000C2025346C642043C1
:1007A00061626C6528732920200A202020202535CD
:1007B0006C64206D6D20202020000C4F5244454E6B
:1007C0002046494E414C495A4144410A20567565DC
:1007D0006C76612050726F6E746F202100000C25C2
:1007E000730A2D2D2D2D2D2020202020202D2D2D64
:1007F0002D2D00000C4361626C652025346C752042
:100800002F25346C75000C436F6C6F717565206516
:100810006C204341424C450A656E20737520706F11
:10082000736963696F6E00000C456E726F6C6C616A
:100830007220202020202D3E0A446574656E65726A
:100840002020202020203C2D0000EA6A730EE96E53
:10085000EF500DE0020E016E006A002EFED7012E51
:10086000FBD7970E006E002EFED7EF2EF3D71200A7
:100870007AB102D08A9801D08A8893987AB302D04C
:100880008A9A01D08A8A939A7AB502D08A9C01D03A
:100890008A8C939C7AB702D08A9E01D08A8E939ECE
:1008A00000008A84939400D000D08A94939412001C
:1008B0007B6B9388000E81B8010E7B13938A000E28
:1008C00081BA010E006ED890003600507B13938CD5
:1008D000000E81BC010E006E00360036FC0E0016C4
:1008E00000507B13938E000E81BE010E006E003609
:1008F00000360036F80E001600507B137BC001F066
:1009000012009388938A938C938E8A82939200002C
:100910008A8493940000CCDF01C07AF08A94939487
:1009200000008A84939400D0C3DF01C079F08A94D8
:1009300093949398939A939C939E7A39006EF00EB9
:10094000001600507911016EACEF04F0939493906F
:1009500093928A909390D5D701C079F001BEFBD7CE
:10096000775302E18A9001D08A80939000008A92A6
:10097000939200008A9493947839796F0F0E7917C7
:1009800079C07AF075DF78510F0B796F7A6F70DF6D
:100990001200280E526E0C0E536E010E546E060E8F
:1009A000556E8A9493948A9093908A929392939896
:1009B000939A939C939E9394939093920F0E736F3C
:1009C00044DF010E516E5150030808E3030E7A6FA5
:1009D0004FDF050E736F39DF512AF5D7020E7A6F9C
:1009E00047DF050E736F31DF516A515003080DE385
:1009F000036A5150520FE96E000E0320EA6EEFCFEA
:100A000078F0776BA3DF512AF0D79EEF08F0742DB2
:100A100001D003D0400E756F01D0756B010E735D70
:100A2000752775518009766F776B786F8FDF1200AD
:100A30007251070A07E00B0A0AE0060A10E0020AF0
:100A400014E018D0010E736F746FE1DF18D0776B6C
:100A5000010E786F7BDF020E736FF7DE10D0010E90
:100A6000736F020E746FD3DF0AD0776B100E786F3E
:100A70006DDF05D0010E776F72C078F067DF12006E
:100A80000900F5520CE0F6CF51F0F7CF52F0F5CF58
:100A900072F0CEDF51C0F6FF52C0F7FFF1D712005F
:100AA000060EF66E080EF76EEBDF080E516EFA0EAC
:100AB000736FCBDE512EFBD7280EF66E080EF76E45
:100AC000DFDF080E516EFA0E736FBFDE512EFBD7BB
:100AD000F8EF08F00900F6CF6AF0F7CF6BF0F5CF2A
:100AE00072F0A6DF6AC0F6FF6BC0F7FF692FF2D77E
:100AF0001200EACF71F0E9CF70F06A39F0096C6F3B
:100B00006C27E20F6D6F320F6F6F6A510F0B6D27FD
:100B10006D276F27E90F6E6F6E276E2769390F0BF0
:100B20006E276F276E376F376F1F6F3769510F0B47
:100B30006F276C37070E6B6F0A0E6E076F27FDE38A
:100B40006D076E27FDE36C076D27FDE36B076C27D0
:100B5000FDE3EA6A6B0EE96E070E7015709DE926DB
:100B6000000EEA22E9506F0803E1EA5201E1708DBC
:100B7000EF50006E08E170BD06D070B913D070B7A9
:100B800002D0200E03D070877099300E0026EACF75
:100B90006AF0E9CF69F000C072F04ADF6AC0EAFF8C
:100BA00069C0E9FFEE5070ADDDD71200586A010E42
:100BB000576E5850565C2AE303E15750555C26E3C4
:100BC000F40EF66E070EF76E070E696F83DF010EE7
:100BD000E96E58C06AF057C069F08BDF200E726F63
:100BE00027DF2F0E726F24DF010EE96E56C06AF008
:100BF00055C069F07EDF0C0E596EFA0E736F25DE5C
:100C0000592EFBD7572AD8B4582AD3D71200EACF87
:100C100059F0E9CF58F052AE08D0588E58A8582A4B
:100C2000511E521E512AD8B4522A5238F009546E1D
:100C30005426E20F556E320F576E52500F0B552649
:100C400055265726E90F566E5626562651380F0B55
:100C50005626572656365736571E573651500F0BC5
:100C600057265436070E536E0A0E56065726FDE3D6
:100C700055065626FDE354065526FDE35306542635
:100C8000FDE3EA6A530EE96E070E5814589CED52C4
:100C9000581407E158B8EE5258B803D0200E006E31
:100CA00020D0E926000EEA22E950570803E1EA5273
:100CB00001E1588CEF50006E08E158BC06D058B8DE
:100CC0001BD058B602D0200E0BD058AE06D02D0E39
:100CD000006EED50589C589E04D058865898300E9F
:100CE0000026EACF52F0E9CF51F000C072F0A0DE4A
:100CF00052C0EAFF51C0E9FFEE5058ACD5D7120000
:100D0000016A026A006A036A6A5102E1695118E0E5
:100D1000100E6B6FD89067376837003603366A510C
:100D2000035C02E16951005C07E36951005ED8A0F1
:100D300003066A51035ED880013602366B2FEAD76C
:100D40001200EF520FE0EACF6AF0E9CF69F0EFCF7F
:100D500072F06EDE6AC0EAFF69C0E9FFE92AD8B422
:100D6000EA2AEFD72DEF07F067516903F3CF01F0BF
:100D7000F4CF00F06A03F350002668516903F35082
:100D80000020026EC0EF07F05D805D925E6A5F6AD0
:100D900058C003F057C0E9FF58C0EAFFECCF68F035
:100DA000ED52EFCF67F068515A5C10E303E1595000
:100DB000675D0CE258C003F057C0E9FF58C0EAFF76
:100DC0005AC0ECFFED525950EF6E1ED058C003F0E0
:100DD00057C0E9FF58C0EAFFECCF68F0ED52EFCF03
:100DE00067F05C50685D10E303E167515B5C0CE207
:100DF00057C0E9FF58C0EAFF5CC0ECFFED525BC092
:100E0000EFFF5CC003F05B505CC061F05BC060F062
:100E1000615303E16051090810E261C068F060C0ED
:100E200067F06A6B0A0E696F6BDF02C061F001C088
:100E300060F05E505E2A5F2AEBD755C001F056C0C5
:100E400003F055C067F056C068F00C0E726FF0DD0D
:100E500056C0EAFF55C0E9FF74D7E10EF66E070EE3
:100E6000F76E110E696F36DE636B626B5FBE05D184
:100E70005F50800A006E5E50800A005C02E0D8B0CD
:100E8000FCD0656B010E646F010E736FDEDC622BAC
:100E9000D8B4632B622D06D0635304E15D80036AEE
:100EA000010E11D06251F40805E1632D03D05D827B
:100EB000010E09D06251E80806E16351030803E11D
:100EC000636B626B62515DA020D0060E736F020EE1
:100ED000746F9DDD58C003F057C0E9FF58C0EAFFAA
:100EE000ECCF68F0ED52EFCF67F0010E696F300E76
:100EF000726F9EDD692FFBD7080EE96E68C06AF03D
:100F000067C069F0F6DD5D900ED05DA20CD00B0ECF
:100F1000D8805F54676F736F020E746F78DD5F0E59
:100F2000726F86DD5D92958E83BE03D0958883A80F
:100F300011D0958E83AE03D05F505F0602D05F5014
:100F40005F2A636B626B958E83BEFDD7958883B8ED
:100F5000FAD792D0958A83BA03D0958C83AC8CD083
:100F6000666B5FBE12D05F50665D0FE26651662B06
:100F700065C068F064C067F06A6B0A0E696FF4D6EA
:100F800002C065F001C064F0ECD7958C83AC3BD017
:100F900057C0E9FF58C0EAFFECCF68F0ED52EFCF41
:100FA00067F0696B6A6B6451675F6551685B000E3F
:100FB000695B6A5B6ABF1BD06A5309E1695307E149
:100FC0005A50685D14E303E15950675D10E357C060
:100FD000E9FF58C0EAFF6451EF5C006E6551EC58C0
:100FE000036E0050ED52EF6E03C0ECFF0BD058C003
:100FF00003F057C0E9FF58C0EAFF5AC0ECFFED52BA
:1010000059C0EFFF31D0958A83AA2ED058C003F083
:1010100057C0E9FF58C0EAFFECCF68F0ED52EFCFC0
:1010200067F0645167276551682368515C5C13E37E
:1010300003E167515B5C0FE357C0E9FF58C0EAFF6B
:101040006451EF24016E6551EC20036EED5201C036
:10105000EFFFEC6E09D057C0E9FF58C0EAFF5CC053
:10106000ECFFED525BC0EFFF636B626B958C83BC52
:10107000FDD7958A83BAFAD7F9D65E50800A006EFA
:101080005F50800A005C04E2010E016E03D002D0C2
:10109000000E016E1200F86AD09E078E700ED36E9D
:1010A000D350B8960C0EAF6EA20EAC6E900EAB6E17
:1010B000216A206A229022922A6A296AC150C00BB2
:1010C0000F09C16E070EB46E1A6A1B6A236A246A7E
:1010D000256A266A276A286AC00EF2129D8AC050C5
:1010E000C00BC06EC08EC280010E926EC150C00B8C
:1010F0000E09C16E000E016EC250C30B0110C26E0C
:10110000060E006E002EFED70000180E2B6E7C0E11
:101110002C6E190E2D6E7C0E2E6E1A0E2F6E7C0EFE
:10112000306E1B0E316E7C0E326E110E336E7C0EE5
:10113000346E120E356E7C0E366E2BD4030E736F2A
:10114000010E746F64DCF40EF66E060EF76E98DC1A
:10115000040E516EFA0E736F25EC04F0512EFAD77F
:10116000216A050E206E215243E12050090840E318
:10117000120EF66E070EF76E83DC386A376A958EAC
:1011800083BE32D0010E736F020E746F40DC372CB9
:1011900008D0385206E1240EF66E070EF76E70DCAA
:1011A0000AD03750F40807E1382C05D0340EF66E1B
:1011B000070EF76E65DC010E736F25EC04F03850F6
:1011C00002080BE2FF0A03E13750E80806E2386A3A
:1011D000376A38C003F0375006D038C003F03750B4
:1011E000372AD8B4382ACBD7958E83BEFDD758D4AA
:1011F00022A042D0440EF66E070EF76E000140DCCE
:10120000010E396E22B221D0010E736F020E746F7F
:1012100007EC05F0560EF66E070EF76E31DC39C09E
:1012200073F0020E746F07EC05F02D0E726F00DC88
:10123000640E736F25EC04F03950100803E2010EC0
:10124000396E02D03950392ADDD723C051F024C07D
:1012500052F025C053F026C054F027C055F028C0E6
:1012600056F0A4DC229022922A0E83EC00F0640E49
:10127000736F25EC04F036D1680EF66E070EF76E2C
:10128000080E0001696F26DC010EE96E21C052F0E4
:1012900020C051F0BCDC740EF66E070EF76E030E24
:1012A000696F18DC3B6A3A6A958E83BE38D0010EAE
:1012B000736F020E746F07EC05F03A2C09D03B52A5
:1012C00007E1780EF66E070EF76E40EC05F00BD0D6
:1012D0003A50F40808E13B2C06D0880EF66E070E53
:1012E000F76E40EC05F022A001D082D7010E736F9B
:1012F00025EC04F03B5002080BE2FF0A03E13A50F0
:10130000E80806E23B6A3A6A3BC003F03A5006D06E
:101310003BC003F03A503A2AD8B43B2AC5D7958E41
:1013200083BEFDD7050E3C6E3D6A3E6A3F6A406A49
:10133000416AEA6A420EE96E0D0E016EF76A000E0E
:10134000000157EC00F00A000900F5CFEEFF012E76
:10135000FBD7566A420E556E586A3C0E576E5A6A53
:10136000596A5C6A140E5B6E0FDD015201E040D7D2
:10137000EA6A420EE96E0F0E016EF76A000E000176
:1013800066EC00F00A000900F5CFEEFF012EFBD756
:10139000D8903C34026E3D34036E0250205C536E94
:1013A00003502158546E566A420E556E586A3E0ECE
:1013B000576E5A6A0A0E596E54C05CF053C05BF007
:1013C000E3DC015201E0B5D7EA6A420EE96E0A0E8B
:1013D000016EF76A000E000176EC00F00A000900C9
:1013E000F5CFEEFF012EFBD7D8903C34026E3D3492
:1013F000036E02503E24016E3F50032201C053F0A1
:1014000003C054F021C068F020C067F003C06AF048
:1014100001C069F075DC02C054F001C053F0566A97
:10142000420E556E586A400E576E5A6A010E596E3A
:1014300002C05CF001C05BF0A7DC015201E098D76C
:101440000C0E726F18EC05F0200E726F18EC05F0A0
:10145000020EE96E41C052F040C051F007EC06F0B8
:101460009E0EF66E070EF76E100E696F6AEC05F0B1
:10147000010EE96E3FC052F03EC051F007EC06F09D
:10148000B20EF66E070EF76E070E696F6AEC05F086
:10149000958E83BE08D0958883A804D0958883B89C
:1014A000FDD792D7F5D7958E83BEFDD73CC051F0BE
:1014B0003DC052F03EC053F03FC054F040C055F024
:1014C00041C056F0D6EC05F0BA0EF66E070EF76E78
:1014D00040EC05F0080E516EFA0E736F25EC04F027
:0814E000512EFAD73DD603009E
:020000040030CA
:0E00000020C93E1E0087A1000FC00FE00F4078
:00000001FF
;PIC18F4550
;CRC=C910  CREATED="13-dic.-23 14:29"
