:040000005EEF03F0BC
:08000800046ED8CF05F0E0CF33
:1000100006F00001E9CF0CF0EACF07F0E1CF08F0DD
:10002000E2CF09F0D9CF0AF0DACF0BF0F3CF12F01C
:10003000F4CF13F0FACF14F0F5CF15F0F6CF16F099
:10004000F7CF17F000C00EF001C00FF002C010F0A3
:1000500003C011F09DAA30EF00F09EBA83EF00F0CC
:100060000EC000F00FC001F010C002F011C003F08C
:100070000CC0E9FF07C0EAFF078E08C0E1FF09C016
:10008000E2FF0AC0D9FF0BC0DAFF12C0F3FF13C0B2
:10009000F4FF14C0FAFF15C0F5FF16C0F6FF17C035
:1000A000F7FF045006C0E0FF05C0D8FF1000F76A54
:1000B000BE0FF66E000EF7220900F55012004361E4
:1000C0006E74696461643A00F76AD80FF66E000EC8
:1000D000F7220900F55012004C6F6E676974756461
:1000E0002028636D293A0000F76AF80FF66E000EBB
:1000F000F7220900F550120050656C61646F2028EA
:100100006D6D293A00009E9A30EF00F05749524534
:10011000205452494D4D45520A2050726F672E208F
:100120004176616E7A61646100000C50726573699A
:100130006F6E6520444552454348410A70617261C3
:1001400020636F6D656E7A6172202D3E00000C2574
:10015000730A2D2D2D2D2D2D202020202D2D2D2DE0
:100160002D2D0000EA6A660EE96EEF500DE0020EDA
:10017000016E006A002EFED7012EFBD7970E006E8F
:10018000002EFED7EF2EF3D712006D39F00B006E64
:100190000F0E8A1400108A6E00008A8000D000D0F2
:1001A0008A9012008150006E00380F0B016E120011
:1001B0000F0E9314F009936E8A8400008A80000069
:1001C000F1DF01C06DF08A9000008A8000D0EADF84
:1001D00001C06CF08A900F0E9314936E6D39006E0F
:1001E000F00E001600506C11016EFCEF00F09390C1
:1001F000939293948A92DCD701C06CF001BEFBD736
:100200008A926AB18A8200008A9400008A906B39CF
:100210006C6F0F0E6C176CC06DF0B7DF6B510F0B6E
:100220006C6F6D6FB2DF1200280E496E0C0E4A6EB5
:10023000010E4B6E060E4C6E8A908A928A940F0EB7
:100240009314936E9390939293940F0E666F8ADF3C
:10025000010E486E4850030808E3030E6D6F95DFEA
:10026000050E666F7FDF482AF5D7020E6D6F8DDFB2
:10027000050E666F77DF486A485003080DE3036A8E
:100280004850490FE96E000E0320EA6EEFCF6BF085
:100290006A6BADDF482AF0D7BAEF03F0672D01D0C3
:1002A00003D0400E686F01D0686B010E665D682751
:1002B00068518009696F6A6B6B6F99DF1200655135
:1002C000070A07E00B0A0AE0060A10E0020A14E037
:1002D00018D0010E666F676FE1DF18D06A6B010EF0
:1002E0006B6F85DF020E666F3DDF10D0010E666F0B
:1002F000020E676FD3DF0AD06A6B100E6B6F77DF69
:1003000005D0010E6A6F65C06BF071DF1200090045
:10031000F5520CE0F6CF48F0F7CF49F0F5CF65F095
:10032000CEDF48C0F6FF49C0F7FFF1D71200016ADF
:10033000026A006A036A5D5002E15C5018E0100E28
:100340005E6ED8905A365B36003603365D50035CDD
:1003500002E15C50005C07E35C50005ED8A003063D
:100360005D50035ED880013602365E2EEAD75FEF1D
:1003700002F0EF520FE0EACF5DF0E9CF5CF0EFCF93
:1003800065F09DDF5DC0EAFF5CC0E9FFE92AD8B4F3
:10039000EA2AEFD777EF02F00900F6CF5DF0F7CF4A
:1003A0005EF0F5CF65F08BDF5DC0F6FF5EC0F7FF56
:1003B0005C2EF2D77EEF02F0EACF64F0E9CF63F073
:1003C0005D38F0095F6E5F26E20F606F320F626F7B
:1003D0005D500F0B602760276227E90F616F61276F
:1003E00061275C380F0B6127622761376237621F14
:1003F00062375C500F0B62275F36070E5E6E0A0E87
:1004000061076227FDE360076127FDE35F06602760
:10041000FDE35E065F26FDE3EA6A5E0EE96E070E07
:100420006315639DE926000EEA22E950620803E1A4
:10043000EA5201E1638DEF50006E08E163BD06D022
:1004400063B913D063B702D0200E03D063876399DA
:10045000300E0026EACF5DF0E9CF5CF000C065F019
:100460002EDF5DC0EAFF5CC0E9FFEE5063ADDDD773
:10047000A1EF02F05A505C02F3CF01F0F4CF00F08C
:100480005D02F35000265B505C02F3500020026EC8
:10049000DDEF02F052805282536A546A51C056F026
:1004A00050C055F0565203E15550090810E256C0AD
:1004B0005BF055C05AF05D6A0A0E5C6E38D702C018
:1004C00056F001C055F05350532A542AEBD74AC076
:1004D00001F04BC003F04AC05AF04BC05BF00C0E69
:1004E000656FEDDE4BC0EAFF4AC0E9FF42D7510E0F
:1004F000F66E010EF76E110E5C6E4ED754BED0D064
:100500005450800A006E5350800A005C02E0D8B05C
:10051000C7D0586A010E576E52A022D0070E666FE0
:10052000020E676FBBDE4DC003F04CC0E9FF4DC04B
:10053000EAFFECCF5DF0ED52EFCF5CF0090EE96E13
:100540003BD7529052A20CD00A0ED88054545A6E07
:10055000666F020E676FA2DE2A0E656FB0DE5292E2
:10056000958E83BE03D0958883A811D0958E83AED7
:1005700003D05450540602D05450542A5280528210
:10058000958E83BEFDD7958883B8FAD788D0958A93
:1005900083BA03D0958C83AC82D0596A54BE12D0F2
:1005A0005450595C0FE25950592A58C05BF057C05B
:1005B0005AF05D6A0A0E5C6E5DD702C058F001C049
:1005C00057F0ECD7958C83AC32D04CC0E9FF4DC0CE
:1005D000EAFFECCF5BF0ED52EFCF5AF057505A5E86
:1005E00058505B5A5BBE17D04F505B5C14E303E17D
:1005F0004E505A5C10E34CC0E9FF4DC0EAFF575023
:10060000EF5C006E5850EC58036E0050ED52EF6EE8
:1006100003C0ECFF0BD04DC003F04CC0E9FF4DC050
:10062000EAFF4FC0ECFFED524EC0EFFF31D0958A8C
:1006300083AA2ED04DC003F04CC0E9FF4DC0EAFFA5
:10064000ECCF5BF0ED52EFCF5AF057505A2658508E
:100650005B225B50515C13E303E15A50505C0FE3A3
:100660004CC0E9FF4DC0EAFF5750EF24016E5850CF
:10067000EC20036EED5201C0EFFFEC6E09D04CC0D0
:10068000E9FF4DC0EAFF51C0ECFFED5250C0EFFF53
:100690005280958C83BCFDD7958A83BAFAD72ED722
:1006A0005350800A006E5450800A005C04E2010E30
:1006B000016E03D002D0000E016E1200F86AD09EC7
:1006C000078E700ED36ED3501A6A320E196E1C6AE2
:1006D0001B6AC150C00B0F09C16E070EB46EC00E6D
:1006E000F2129D8A000E0609CA6E7C0ECB6E94949F
:1006F0008B940C0EBD6EB76AB66A1AC002F019C0B0
:1007000001F00232013202320132023201C0BEFF78
:1007100002320230300B006EBD50CF0B0010BD6EA8
:10072000180E1D6E7C0E1E6E190E1F6E7C0E206E36
:100730001A0E216E7C0E226E1B0E236E7C0E246E12
:10074000256A1C0E266E7C0E276E1D0E286E7C0EF2
:10075000296E1E0E2A6E7C0E2B6E1F0E2C6E7C0ECA
:100760002D6E2E6A5C0E326E3168790E306E880EF8
:100770002F6E5AD5030E666F010E676F8FDD0C0E5C
:10078000F66E010EF76EC3DD040E486EFA0E666F4C
:10079000E9DC482EFBD72A0EF66E010EF76E00013B
:1007A000B6DD958E83AEFDD7958E83BEFDD7010E47
:1007B000336E346A050E356E366A376A386AEA6A0D
:1007C000390EE96E0A0E016EF76A000E00016FDC49
:1007D0000A000900F5CFEEFF012EFBD74B6A390E58
:1007E0004A6E4D6A330E4C6E4F6A010E4E6E516A60
:1007F000640E506E4FDE015201E0CDD7EA6A390E29
:10080000E96E0F0E016EF76A000E00015DDC0A0052
:100810000900F5CFEEFF012EFBD74B6A390E4A6E69
:100820004D6A350E4C6E4F6A050E4E6E516A640E5F
:10083000506E30DE015201E0C2D7EA6A390EE96E2D
:100840000D0E016EF76A000E00014EDC0A00090071
:10085000F5CFEEFF012EFBD74B6A390E4A6E4D6A7B
:10086000370E4C6E4F6A4E6A516A0A0E506E12DE97
:0A087000015201E0C3D78FD7030047
:020000040030CA
:0E00000020C93E1E0087A1000FC00FE00F4078
:00000001FF
;PIC18F4550
;CRC=3870  CREATED="25-nov.-23 20:00"
