:04000000F9EF07F01D
:08000800046ED8CF05F0E0CF33
:1000100006F00001E9CF0CF0EACF07F0E1CF08F0DD
:10002000E2CF09F0D9CF0AF0DACF0BF0F3CF12F01C
:10003000F4CF13F0FACF14F0F5CF15F0F6CF16F099
:10004000F7CF17F000C00EF001C00FF002C010F0A3
:1000500003C011F09DAA30EF00F09EBAF4EF02F059
:100060000EC000F00FC001F010C002F011C003F08C
:100070000CC0E9FF07C0EAFF078E08C0E1FF09C016
:10008000E2FF0AC0D9FF0BC0DAFF12C0F3FF13C0B2
:10009000F4FF14C0FAFF15C0F5FF16C0F6FF17C035
:1000A000F7FF045006C0E0FF05C0D8FF1000F76A54
:1000B000BE0FF66E000EF7220900F55012005065D3
:1000C0006C61646F20286D6D293A0000F76ADC0FBF
:1000D000F66E000EF7220900F55012004C6F6E67A5
:1000E0006974756420286D6D293A0000F76AFC0F69
:1000F000F66E000EF7220900F550120043616E748F
:10010000696461643A00EACF94F0E9CF93F08DAF6F
:1001100008D0938F93A9932B8C1F8D1F8C2BD8B451
:100120008D2B8D39F0098F6F8F27E20F906F320F73
:10013000926F8D510F0B902790279227E90F916FA7
:10014000912791278C390F0B91279227913792375E
:10015000921F92378C510F0B92278F37070E8E6F9D
:100160000A0E91079227FDE390079127FDE38F0781
:100170009027FDE38E078F27FDE3EA6A8E0EE96E76
:10018000070E9315939DED52931507E193B9EE5227
:1001900093B903D0200E006E20D0E926000EEA228B
:1001A000E950920803E1EA5201E1938DEF50006EAD
:1001B00008E193BD06D093B914D093B702D0200EB6
:1001C0000BD093AF06D02D0E006EED50939D939FF4
:1001D00004D093879399300E002600509EA8FED736
:1001E000AD6EEE5093ADDCD706EF03F0C1C0C4F0A6
:1001F000C0C0C6F0BFC0C5F0C35303E1C251000880
:1002000016E2C6C003F0C5C0E9FFC6C0EAFFC4518C
:10021000EF5C05E1C5C001F0C6C002F00BD0C52BF4
:10022000D8B4C62BC251D8B4C307C207E5D7000E55
:10023000016E026E1200C151C319800BC56FC1AFB0
:1002400005D0C01FC11FC02BD8B4C12BC3AF05D070
:10025000C21FC31FC22BD8B4C32BC051C203F3CFDC
:1002600001F0F4CF00F0C303F3500026C151C203E4
:10027000F3500020026EC5AF05D0011E021E012AF8
:10028000D8B4022A95EF02F0986B976B300E9A6FF4
:10029000310E9B6F320E9C6F330E9D6F340E9E6F2E
:1002A000350E9F6F360EA06F370EA16F380EA26FFE
:1002B000390EA36F610EA46F620EA56F630EA66F59
:1002C000640EA76F650EA86F660EA96F670EAA6F02
:1002D000680EAB6F690EAC6F6A0EAD6F6B0EAE6FD2
:1002E0006C0EAF6F6D0EB06F6E0EB16F6F0EB26FA2
:1002F000700EB36F710EB46F730EB56F740EB66F70
:10030000750EB76F760EB86F770EB96F780EBA6F3D
:10031000790EBB6F7A0EBC6FBD6B8DC092F08CC036
:1003200091F092C003F091C0E9FF92C0EAFFEF5054
:10033000200804E1912BD8B4922BF3D792C003F09C
:1003400091C0E9FF92C0EAFFEF502D0809E092C08A
:1003500003F091C0E9FF92C0EAFFEF502B0809E1DA
:1003600092C0EAFF9151912BD8B4922BE96EEF50D5
:1003700001D02B0E996F99512D080AE090BF08D03B
:10038000902D01D005D090BF05D09051240802E2F5
:1003900009D184D090534CE0905110081FE192C0D5
:1003A00003F091C0E9FF92C0EAFFEF50300816E178
:1003B000010E9125E96E000E9221EA6EEF50780849
:1003C00009E0010E9125E96E000E9221EA6EEF50D0
:1003D000580804E1020E9127000E9223905108085C
:1003E0000DE192C003F091C0E9FF92C0EAFFEF5027
:1003F000300804E1010E9127000E9223905102086B
:1004000016E192C003F091C0E9FF92C0EAFFEF50FD
:1004100030080DE1010E9125E96E000E9221EA6E81
:10042000EF50620804E1020E9127000E922336D0AD
:1004300092C003F091C0E9FF92C0EAFFEF5030088C
:1004400003E00A0E906F2AD0010E9125E96E000E8E
:100450009221EA6EEF50780809E0010E9125E96ECD
:10046000000E9221EA6EEF50580807E1100E906FCF
:10047000020E9127000E922311D0010E9125E96EF4
:10048000000E9221EA6EEF50620806E1020E906FB4
:100490009127000E922302D0080E906F92C094F024
:1004A00091C093F092C003F091C0E9FF92C0EAFFBF
:1004B000EF50300804E1912BD8B4922BF3D792C0BF
:1004C00003F091C0E9FF92C0EAFFEFCFBEF0BE514A
:1004D000400806E2BE515A0803E3BE51200901D08C
:1004E000BE51BE6FC06B9A0EBF6FBEC0C1F0C36B72
:1004F00090C0C2F0C2BFC30779DE02C096F001C04F
:1005000095F0955302E1965347E0036A9051006ECF
:10051000E8BE0306BE6F03C0BFF098C0C1F097C02D
:10052000C0F003C0C3F0C26F86D601C0BEF09A0E01
:10053000955D006E000E9659036E00500124016E09
:100540000250032201C097F003C098F0912BD8B459
:10055000922B92C003F091C0E9FF92C0EAFFEFCF67
:10056000BEF0BE51400806E2BE515A0803E3BE5138
:10057000200901D0BE51BE6FC06B9A0EBF6FBEC0C6
:10058000C1F0C36B90C0C2F0C2BFC3072FDE02C070
:1005900096F001C095F0B5D79151935D14E1925159
:1005A000945D11E100018E518F1109E08EC0E9FFC9
:1005B0008FC0EAFF8DC0ECFFED528CC0EFFF000E44
:1005C000016E026E10D08E518F1109E08EC0E9FFCE
:1005D0008FC0EAFF92C0ECFFED5291C0EFFF97C0D1
:1005E00001F098C002F012009EAAFED7AECF78F0BC
:1005F00078512B080DE12B0E9EA8FED7AD6E090E8B
:10060000E96E20C08DF01FC08CF07DD5218063D0B5
:1006100021B261D078512A085EE1876B87510108C9
:100620000DE3036A8751790FE96E000E0320EA6E2D
:100630009EAAFED7AECFEFFF872BF0D77B6B886BE0
:10064000885104080DE3036A88517C0FE96E000E9F
:100650000320EA6E9EAAFED7AECFEFFF882BF0D71D
:10066000816B896B895103080DE3036A8951820FFD
:10067000E96E000E0320EA6E9EAAFED7AECFEFFF12
:10068000892BF0D7876B8D6B790E8C6F8F6B8A0EF1
:100690008E6F0A0E906FF8DD02C023F001C022F0C9
:1006A0008D6B7C0E8C6F8F6B8A0E8E6F0A0E906F27
:1006B000EBDD02C025F001C024F08D6B820E8C6F43
:1006C0008F6B8A0E8E6F0A0E906FDEDD02C027F0F0
:1006D00001C026F021829E9A30EF00F05749524522
:1006E000205452494D4D45520A2050726F672E20BA
:1006F0004176616E7A61646100000C2121204E4FC9
:1007000020534520444554454354410A4341424CFB
:100710004520444953504F4E49424C4500000C205F
:100720002020526563696269656E646F2020200035
:1007300020202020202020202020202020202020B9
:1007400000000C4361626C653A2025356C64206DB5
:100750006D0A4E75657661204F7264656E20202D9E
:100760002D3E00000C2025346C64204361626C65D2
:1007700028732920200A2020202025356C64206D34
:100780006D20202020000C4F5244454E2046494EFB
:10079000414C495A4144410A205675656C766120A6
:1007A00050726F6E746F202100000C25730A2D2D7E
:1007B0002D2D2D2020202020202D2D2D2D2D000011
:1007C0000C4361626C652025346C75202F25346CD8
:1007D0007500EA6A6E0EE96EEF500DE0020E016ED2
:1007E000006A002EFED7012EFBD7970E006E002E5A
:1007F000FED7EF2EF3D7120075B102D08A9801D040
:100800008A88939875B302D08A9A01D08A8A939A7B
:1008100075B502D08A9C01D08A8C939C75B702D0A2
:100820008A9E01D08A8E939E00008A84939400D081
:1008300000D08A9493941200766B9388000E81B84E
:10084000010E7613938A000E81BA010E006ED890C5
:10085000003600507613938C000E81BC010E006EA2
:1008600000360036FC0E001600507613938E000EF4
:1008700081BE010E006E003600360036F80E0016FE
:100880000050761376C001F012009388938A938CFF
:10089000938E8A82939200008A8493940000CCDF26
:1008A00001C075F08A94939400008A84939400D0D8
:1008B000C3DF01C074F08A9493949398939A939CA5
:1008C000939E7539006EF00E001600507411016E83
:1008D00070EF04F09394939093928A909390D5D76D
:1008E00001C074F001BEFBD7725302E18A9001D0BF
:1008F0008A80939000008A92939200008A94939445
:100900007339746F0F0E741774C075F075DF7351FF
:100910000F0B746F756F70DF1200280E4D6E0C0E8A
:100920004E6E010E4F6E060E506E8A9493948A900E
:1009300093908A9293929398939A939C939E939474
:10094000939093920F0E6E6F44DF010E4C6E4C50DD
:10095000030808E3030E756F4FDF050E6E6F39DF76
:100960004C2AF5D7020E756F47DF050E6E6F31DF2B
:100970004C6A4C5003080DE3036A4C504D0FE96E6E
:10098000000E0320EA6EEFCF73F0726BA3DF4C2AE8
:10099000F0D74CEF08F06F2D01D003D0400E706FF0
:1009A00001D0706B010E6E5D702770518009716F00
:1009B000726B736F8FDF12006D51070A07E00B0A2D
:1009C0000AE0060A10E0020A14E018D0010E6E6F69
:1009D0006F6FE1DF18D0726B010E736F7BDF020E59
:1009E0006E6FF7DE10D0010E6E6F020E6F6FD3DFE9
:1009F0000AD0726B100E736F6DDF05D0010E726F2F
:100A00006DC073F067DF12000900F5520CE0F6CFFD
:100A10004CF0F7CF4DF0F5CF6DF0CEDF4CC0F6FFC8
:100A20004DC0F7FFF1D712000900F6CF65F0F7CF00
:100A300066F0F5CF6DF0C0DF65C0F6FF66C0F7FF6A
:100A4000642FF2D71200EACF6CF0E9CF6BF0653972
:100A5000F009676F6727E20F686F320F6A6F6551A1
:100A60000F0B682768276A27E90F696F69276927CD
:100A700064390F0B69276A2769376A376A1F6A3733
:100A800064510F0B6A276737070E666F0A0E6907F6
:100A90006A27FDE368076927FDE367076827FDE329
:100AA00066076727FDE3EA6A660EE96E070E6B15B7
:100AB0006B9DE926000EEA22E9506A0803E1EA523A
:100AC00001E16B8DEF50006E08E16BBD06D06BB994
:100AD00013D06BB702D0200E03D06B876B99300E0A
:100AE0000026EACF65F0E9CF64F000C06DF064DF66
:100AF00065C0EAFF64C0E9FFEE506BADDDD71200C0
:100B0000536A010E526E5350515C2AE303E1525076
:100B1000505C26E3C00EF66E070EF76E070E646F8C
:100B200083DF010EE96E53C065F052C064F08BDFC5
:100B3000200E6D6F41DF2F0E6D6F3EDF010EE96EEF
:100B400051C065F050C064F07EDF0C0E546EFA0E9A
:100B50006E6F3FDE542EFBD7522AD8B4532AD3D718
:100B600012009EA8FED7AD6EC8EF08F0EACF54F091
:100B7000E9CF53F04DAE08D0538E53A8532A4C1EE4
:100B80004D1E4C2AD8B44D2A4D38F0094F6E4F26D1
:100B9000E20F506E320F526E4D500F0B5026502602
:100BA0005226E90F516E512651264C380F0B512613
:100BB000522651365236521E52364C500F0B522688
:100BC0004F36070E4E6E0A0E51065226FDE35006B2
:100BD0005126FDE34F065026FDE34E064F26FDE36A
:100BE000EA6A4E0EE96E070E5314539CED525314ED
:100BF00007E153B8EE5253B803D0200E006E20D058
:100C0000E926000EEA22E950520803E1EA5201E126
:100C1000538CEF50006E08E153BC06D053B81BD084
:100C200053B602D0200E0BD053AE06D02D0E006E60
:100C3000ED50539C539E04D053865398300E00269B
:100C4000EACF4DF0E9CF4CF000C06DF0B5DE4DC0FD
:100C5000EAFF4CC0E9FFEE5053ACD5D71200016A51
:100C6000026A006A036A655102E1645118E0100EDD
:100C7000666FD89062376337003603366551035C80
:100C800002E16451005C07E36451005ED8A00306F2
:100C90006551035ED88001360236662FEAD712000E
:100CA000EF520FE0EACF65F0E9CF64F0EFCF6DF0DF
:100CB00083DE65C0EAFF64C0E9FFE92AD8B4EA2A06
:100CC000EFD7DCEF06F062516403F3CF01F0F4CF0D
:100CD00000F06503F350002663516403F3500020D5
:100CE000026E6EEF07F058805892596A5A6A53C0E4
:100CF00003F052C0E9FF53C0EAFFECCF63F0ED52BE
:100D0000EFCF62F06351555C10E303E15450625D34
:100D10000CE253C003F052C0E9FF53C0EAFF55C0D4
:100D2000ECFFED525450EF6E1ED053C003F052C092
:100D3000E9FF53C0EAFFECCF63F0ED52EFCF62F072
:100D40005750635D10E303E16251565C0CE252C000
:100D5000E9FF53C0EAFF57C0ECFFED5256C0EFFF6A
:100D600057C003F0565057C05CF056C05BF05C5261
:100D700003E15B50090810E25CC063F05BC062F005
:100D8000656B0A0E646F6BDF02C05CF001C05BF044
:100D90005950592A5A2AEBD750C001F051C003F0DC
:100DA00050C062F051C063F00C0E6D6F05DE51C093
:100DB000EAFF50C0E9FF74D7AD0EF66E070EF76E6E
:100DC000110E646F31DE5E6A5D6A5ABE04D15A50FC
:100DD000800A006E5950800A005C02E0D8B0FBD057
:100DE000606B010E5F6E010E6E6FF3DC5D2AD8B48E
:100DF0005E2A5D2C06D05E5204E15880036A010E23
:100E000011D05D50F40805E15E2C03D05882010E2C
:100E100009D05D50E80806E15E50030803E15E6A10
:100E20005D6A5D5058A01FD0060E6E6F020E6F6F88
:100E3000B2DD53C003F052C0E9FF53C0EAFFECCF6C
:100E400063F0ED52EFCF62F0010E646F300E6D6F04
:100E5000B3DD642FFBD7080EE96E63C065F062C096
:100E600064F0F1DD589058A20CD00B0ED8805A5483
:100E7000626F6E6F020E6F6F8EDD5F0E6D6F9CDDA9
:100E80005892958E83BE03D0958883A811D0958EF5
:100E900083AE03D05A505A0602D05A505A2A5E6A7C
:100EA0005D6A958E83BEFDD7958883B8FAD792D0B8
:100EB000958A83BA03D0958C83AC8CD0616B5ABE73
:100EC00012D05A50615D0FE26151612B60C063F036
:100ED0005FC062F0656B0A0E646FF5D602C060F009
:100EE00001C05FF0ECD7958C83AC3BD052C0E9FFDA
:100EF00053C0EAFFECCF63F0ED52EFCF62F0646BCA
:100F0000656B5F50625F6051635B000E645B655BA5
:100F100065BF1BD0655309E1645307E15550635D1C
:100F200014E303E15450625D10E352C0E9FF53C083
:100F3000EAFF5F50EF5C006E6051EC58036E0050AA
:100F4000ED52EF6E03C0ECFF0BD053C003F052C064
:100F5000E9FF53C0EAFF55C0ECFFED5254C0EFFF6C
:100F600031D0958A83AA2ED053C003F052C0E9FF36
:100F700053C0EAFFECCF63F0ED52EFCF62F05F5069
:100F80006227605163236351575C13E303E16251AD
:100F9000565C0FE352C0E9FF53C0EAFF5F50EF24F5
:100FA000016E6051EC20036EED5201C0EFFFEC6E5C
:100FB00009D052C0E9FF53C0EAFF57C0ECFFED5221
:100FC00056C0EFFF5E6A5D6A958C83BCFDD7958A3B
:100FD00083BAFAD7FAD65950800A006E5A50800A5E
:100FE000005C04E2010E016E03D002D0000E016E1F
:100FF0001200F86AD09E078E700ED36ED350B8964A
:101000000C0EAF6EA20EAC6E900EAB6E206A1F6A15
:1010100021902192296A286AC150C00B0F09C16E24
:10102000070EB46E196A1A6A226A236A246A256A4C
:10103000266A276AC00EF2129D8AC050C00BC06E8D
:10104000C08EC280010E926EC150C00B0E09C16EDF
:10105000000E016EC250C30B0110C26E060E006E70
:10106000002EFED70000180E2A6E7C0E2B6E190E75
:101070002C6E7C0E2D6E1A0E2E6E7C0E2F6E1B0E9D
:10108000306E7C0E316E110E326E7C0E336E120E8F
:10109000346E7C0E356E41D4030E6E6F010E6F6F91
:1010A0007ADCDC0EF66E060EF76EAEDC040E4C6ECD
:1010B000FA0E6E6FE9EC03F04C2EFAD7270E206E75
:1010C000100E1F6EC282C2B2FED7C4CF02F0C3CFD1
:1010D00001F0C4CF4DF0C3CF4CF0C450030807E378
:1010E00003E14C50830803E3036A010E02D0036A54
:1010F000000E031005E0205210E11F5009080DE317
:10110000FA0EF66E060EF76E7FDC080E4C6EFA0EC7
:101110006E6FE9EC03F04C2EFAD721A03FD01E0EE3
:10112000F66E070EF76E00016FDC010E366E21B20F
:101130001FD0010E6E6F020E6F6F2DDC300EF66E3B
:10114000070EF76E61DC36C06EF0020E6F6F23DCA7
:101150002D0E6D6F31DC640E6E6FE9EC03F03650CE
:10116000100803E2010E366E02D03650362ADFD761
:1011700022C04CF023C04DF024C04EF025C04FF0EB
:1011800026C050F027C051F0BBDC21922A0EE9D4D2
:101190002190640E6E6FE9EC03F0FED0420EF66E05
:1011A000070EF76E080E0001646F3EDC010EE96E5B
:1011B00020C04DF01FC04CF0D9DC4E0EF66E070E6D
:1011C000F76E140E646F30DC958E83BE04D021A0C0
:1011D00001D0A3D7F9D7958E83BEFDD7050E376E04
:1011E000386A396A3A6A3B6A3C6AEA6A3D0EE96ED5
:1011F0000D0E016EF76A000E000157EC00F00A00B8
:101200000900F5CFEEFF012EFBD7516A3D0E506E5F
:10121000536A370E526E556A546A576A140E566EE8
:1012200062DD015201E079D7EA6A3D0EE96E0F0EE8
:10123000016EF76A000E000166EC00F00A0009007A
:10124000F5CFEEFF012EFBD7D8903734026E38343D
:10125000036E02501F5C4E6E035020584F6E516A51
:101260003D0E506E536A390E526E556A0A0E546E18
:101270004FC057F04EC056F036DD015201E0B5D7F1
:10128000EA6A3D0EE96E0A0E016EF76A000E000171
:1012900076EC00F00A000900F5CFEEFF012EFBD737
:1012A000D8903734026E3834036E02503924016E00
:1012B0003A50032201C04EF003C04FF020C063F04B
:1012C0001FC062F003C065F001C064F0C8DC02C05A
:1012D0004FF001C04EF0516A3D0E506E536A3B0E06
:1012E000526E556A010E546E02C057F001C056F09E
:1012F000FADC015201E098D70C0E6D6FDCEC04F0C3
:10130000200E6D6FDCEC04F0020EE96E3CC04DF077
:101310003BC04CF02BDC6A0EF66E070EF76E100E1B
:10132000646F14EC05F0010EE96E3AC04DF039C05F
:101330004CF01CDC7E0EF66E070EF76E070E646F27
:1013400014EC05F0958E83BE08D0958883A804D050
:10135000958883B8FDD794D7F5D7958E83BEFDD7F2
:1013600037C04CF038C04DF039C04EF03AC04FF0A5
:101370003BC050F03CC051F080EC05F0860EF66E9C
:10138000070EF76E04EC05F0080E4C6EFA0E6E6F49
:0C139000E9EC03F04C2EFAD791D60300D4
:020000040030CA
:0E00000020C93E1E0087A1000FC00FE00F4078
:00000001FF
;PIC18F4550
;CRC=E7C6  CREATED="11-dic.-23 19:35"
