:04000000D4EF07F042
:08000800046ED8CF05F0E0CF33
:1000100006F00001E9CF0CF0EACF07F0E1CF08F0DD
:10002000E2CF09F0D9CF0AF0DACF0BF0F3CF12F01C
:10003000F4CF13F0FACF14F0F5CF15F0F6CF16F099
:10004000F7CF17F000C00EF001C00FF002C010F0A3
:1000500003C011F09DAA30EF00F09EBAF4EF02F059
:100060000EC000F00FC001F010C002F011C003F08C
:100070000CC0E9FF07C0EAFF078E08C0E1FF09C016
:10008000E2FF0AC0D9FF0BC0DAFF12C0F3FF13C0B2
:10009000F4FF14C0FAFF15C0F5FF16C0F6FF17C035
:1000A000F7FF045006C0E0FF05C0D8FF1000F76A54
:1000B000BE0FF66E000EF7220900F55012005065D3
:1000C0006C61646F20286D6D293A0000F76ADC0FBF
:1000D000F66E000EF7220900F55012004C6F6E67A5
:1000E0006974756420286D6D293A0000F76AFC0F69
:1000F000F66E000EF7220900F550120043616E748F
:10010000696461643A00EACF92F0E9CF91F08BAF75
:1001100008D0918F91A9912B8A1F8B1F8A2BD8B45D
:100120008B2B8B39F0098D6F8D27E20F8E6F320F7D
:10013000906F8B510F0B8E278E279027E90F8F6FB3
:100140008F278F278A390F0B8F2790278F3790376C
:10015000901F90378A510F0B90278D37070E8C6FA9
:100160000A0E8F079027FDE38E078F27FDE38D078B
:100170008E27FDE38C078D27FDE3EA6A8C0EE96E7E
:10018000070E9115919DED52911507E191B9EE522F
:1001900091B903D0200E006E20D0E926000EEA228D
:1001A000E950900803E1EA5201E1918DEF50006EB1
:1001B00008E191BD06D091B914D091B702D0200EBC
:1001C0000BD091AF06D02D0E006EED50919D919FFA
:1001D00004D091879199300E002600509EA8FED73A
:1001E000AD6EEE5091ADDCD706EF03F0BFC0C2F0AC
:1001F000BEC0C4F0BDC0C3F0C15303E1C05100088C
:1002000016E2C4C003F0C3C0E9FFC4C0EAFFC25194
:10021000EF5C05E1C3C001F0C4C002F00BD0C32BFA
:10022000D8B4C42BC051D8B4C107C007E5D7000E5D
:10023000016E026E1200BF51C119800BC36FBFAFB8
:1002400005D0BE1FBF1FBE2BD8B4BF2BC1AF05D07A
:10025000C01FC11FC02BD8B4C12BBE51C003F3CFE8
:1002600001F0F4CF00F0C103F3500026BF51C003EA
:10027000F3500020026EC3AF05D0011E021E012AFA
:10028000D8B4022A95EF02F0966B956B300E986FFA
:10029000310E996F320E9A6F330E9B6F340E9C6F36
:1002A000350E9D6F360E9E6F370E9F6F380EA06F06
:1002B000390EA16F610EA26F620EA36F630EA46F61
:1002C000640EA56F650EA66F660EA76F670EA86F0A
:1002D000680EA96F690EAA6F6A0EAB6F6B0EAC6FDA
:1002E0006C0EAD6F6D0EAE6F6E0EAF6F6F0EB06FAA
:1002F000700EB16F710EB26F730EB36F740EB46F78
:10030000750EB56F760EB66F770EB76F780EB86F45
:10031000790EB96F7A0EBA6FBB6B8BC090F08AC042
:100320008FF090C003F08FC0E9FF90C0EAFFEF505C
:10033000200804E18F2BD8B4902BF3D790C003F0A2
:100340008FC0E9FF90C0EAFFEF502D0809E090C090
:1003500003F08FC0E9FF90C0EAFFEF502B0809E1DE
:1003600090C0EAFF8F518F2BD8B4902BE96EEF50DD
:1003700001D02B0E976F97512D080AE08EBF08D041
:100380008E2D01D005D08EBF05D08E51240802E2FB
:1003900009D184D08E534CE08E5110081FE190C0DB
:1003A00003F08FC0E9FF90C0EAFFEF50300816E17C
:1003B000010E8F25E96E000E9021EA6EEF5078084D
:1003C00009E0010E8F25E96E000E9021EA6EEF50D4
:1003D000580804E1020E8F27000E90238E51080862
:1003E0000DE190C003F08FC0E9FF90C0EAFFEF502D
:1003F000300804E1010E8F27000E90238E51020871
:1004000016E190C003F08FC0E9FF90C0EAFFEF5003
:1004100030080DE1010E8F25E96E000E9021EA6E85
:10042000EF50620804E1020E8F27000E902336D0B1
:1004300090C003F08FC0E9FF90C0EAFFEF50300892
:1004400003E00A0E8E6F2AD0010E8F25E96E000E92
:100450009021EA6EEF50780809E0010E8F25E96ED1
:10046000000E9021EA6EEF50580807E1100E8E6FD3
:10047000020E8F27000E902311D0010E8F25E96EFA
:10048000000E9021EA6EEF50620806E1020E8E6FB8
:100490008F27000E902302D0080E8E6F90C092F02E
:1004A0008FC091F090C003F08FC0E9FF90C0EAFFC9
:1004B000EF50300804E18F2BD8B4902BF3D790C0C5
:1004C00003F08FC0E9FF90C0EAFFEFCFBCF0BC5152
:1004D000400806E2BC515A0803E3BC51200901D090
:1004E000BC51BC6FBE6B980EBD6FBCC0BFF0C16B82
:1004F0008EC0C0F0C0BFC10779DE02C094F001C059
:1005000093F0935302E1945347E0036A8E51006ED7
:10051000E8BE0306BC6F03C0BDF096C0BFF095C037
:10052000BEF003C0C1F0C06F86D601C0BCF0980E0B
:10053000935D006E000E9459036E00500124016E0D
:100540000250032201C095F003C096F08F2BD8B45F
:10055000902B90C003F08FC0E9FF90C0EAFFEFCF6F
:10056000BCF0BC51400806E2BC515A0803E3BC5140
:10057000200901D0BC51BC6FBE6B980EBD6FBCC0D2
:10058000BFF0C16B8EC0C0F0C0BFC1072FDE02C07C
:1005900094F001C093F0B5D78F51915D14E1905163
:1005A000925D11E100018C518D1109E08CC0E9FFD1
:1005B0008DC0EAFF8BC0ECFFED528AC0EFFF000E4A
:1005C000016E026E10D08C518D1109E08CC0E9FFD4
:1005D0008DC0EAFF90C0ECFFED528FC0EFFF95C0D9
:1005E00001F096C002F012009EAAFED7AECF76F0C0
:1005F00076512B080DE12B0E9EA8FED7AD6E090E8D
:10060000E96E20C08BF01FC08AF07DD5218063D0B9
:1006100021B261D076512A085EE1856B85510108CF
:100620000DE3036A8551770FE96E000E0320EA6E31
:100630009EAAFED7AECFEFFF852BF0D7796B866BE6
:10064000865104080DE3036A86517A0FE96E000EA5
:100650000320EA6E9EAAFED7AECFEFFF862BF0D71F
:100660007F6B876B875103080DE3036A8751800F07
:10067000E96E000E0320EA6E9EAAFED7AECFEFFF12
:10068000872BF0D7856B8B6B770E8A6F8D6B880EFF
:100690008C6F0A0E8E6FF8DD02C023F001C022F0CD
:1006A0008B6B7A0E8A6F8D6B880E8C6F0A0E8E6F35
:1006B000EBDD02C025F001C024F08B6B800E8A6F49
:1006C0008D6B880E8C6F0A0E8E6FDEDD02C027F0F8
:1006D00001C026F021829E9A30EF00F05749524522
:1006E000205452494D4D45520A2050726F672E20BA
:1006F0004176616E7A61646100000C2121204E4FC9
:1007000020534520444554454354410A4341424CFB
:100710004520444953504F4E49424C4500000C205F
:100720002020526563696269656E646F2020200035
:1007300020202020202020202020202020202020B9
:1007400000000C4361626C653A2025356C64206DB5
:100750006D0A4E75657661204F7264656E20202D9E
:100760002D3E00000C2025346C64204361626C65D2
:1007700028732920200A2020202025356C64206D34
:100780006D20202020000C4F5244454E2046494EFB
:10079000414C495A4144410A205675656C766120A6
:1007A00050726F6E746F202100000C25730A2D2D7E
:1007B0002D2D2D2020202020202D2D2D2D2D000011
:1007C0000C4361626C652025346C75202F25346CD8
:1007D0007500EA6A6C0EE96EEF500DE0020E016ED4
:1007E000006A002EFED7012EFBD7970E006E002E5A
:1007F000FED7EF2EF3D7120073B102D08A9801D042
:100800008A88939873B302D08A9A01D08A8A939A7D
:1008100073B502D08A9C01D08A8C939C73B702D0A6
:100820008A9E01D08A8E939E00008A84939400D081
:1008300000D08A9493941200746B9388000E81B850
:10084000010E7413938A000E81BA010E006ED890C7
:10085000003600507413938C000E81BC010E006EA4
:1008600000360036FC0E001600507413938E000EF6
:1008700081BE010E006E003600360036F80E0016FE
:100880000050741374C001F012009388938A938C03
:10089000938E8A82939200008A8493940000CCDF26
:1008A00001C073F08A94939400008A84939400D0DA
:1008B000C3DF01C072F08A9493949398939A939CA7
:1008C000939E7339006EF00E001600507211016E87
:1008D00070EF04F09394939093928A909390D5D76D
:1008E00001C072F001BEFBD7705302E18A9001D0C3
:1008F0008A80939000008A92939200008A94939445
:100900007139726F0F0E721772C073F075DF71510B
:100910000F0B726F736F70DF1200280E4D6E0C0E8E
:100920004E6E010E4F6E060E506E8A9493948A900E
:1009300093908A9293929398939A939C939E939474
:10094000939093920F0E6C6F44DF010E4C6E4C50DF
:10095000030808E3030E736F4FDF050E6C6F39DF7A
:100960004C2AF5D7020E736F47DF050E6C6F31DF2F
:100970004C6A4C5003080DE3036A4C504D0FE96E6E
:10098000000E0320EA6EEFCF71F0706BA3DF4C2AEC
:10099000F0D727EF08F06D2D01D003D0400E6E6F19
:1009A00001D06E6B010E6C5D6E276E5180096F6F0A
:1009B000706B716F8FDF12006B51070A07E00B0A33
:1009C0000AE0060A10E0020A14E018D0010E6C6F6B
:1009D0006D6FE1DF18D0706B010E716F7BDF020E5F
:1009E0006C6FF7DE10D0010E6C6F020E6D6FD3DFEF
:1009F0000AD0706B100E716F6DDF05D0010E706F35
:100A00006BC071F067DF12000900F5520CE0F6CF01
:100A10004CF0F7CF4DF0F5CF6BF0CEDF4CC0F6FFCA
:100A20004DC0F7FFF1D712000900F6CF63F0F7CF02
:100A300064F0F5CF6BF0C0DF63C0F6FF64C0F7FF72
:100A4000622FF2D71200EACF6AF0E9CF69F063397A
:100A5000F009656F6527E20F666F320F686F6351AB
:100A60000F0B662766276827E90F676F67276727D9
:100A700062390F0B6727682767376837681F683741
:100A800062510F0B68276537070E646F0A0E670700
:100A90006827FDE366076727FDE365076627FDE333
:100AA00064076527FDE3EA6A640EE96E070E6915BF
:100AB000699DE926000EEA22E950680803E1EA523E
:100AC00001E1698DEF50006E08E169BD06D069B99A
:100AD00013D069B702D0200E03D069876999300E10
:100AE0000026EACF63F0E9CF62F000C06BF064DF6C
:100AF00063C0EAFF62C0E9FFEE5069ADDDD71200C6
:100B0000536A010E526E5350515C2AE303E1525076
:100B1000505C26E3C00EF66E070EF76E070E626F8E
:100B200083DF010EE96E53C063F052C062F08BDFC9
:100B3000200E6B6F41DF2F0E6B6F3EDF010EE96EF3
:100B400051C063F050C062F07EDF0C0E546EFA0E9E
:100B50006C6F3FDE542EFBD7522AD8B4532AD3D71A
:100B600012009EA8FED7AD6EA3EF08F0EACF54F0B6
:100B7000E9CF53F04DAE08D0538E53A8532A4C1EE4
:100B80004D1E4C2AD8B44D2A4D38F0094F6E4F26D1
:100B9000E20F506E320F526E4D500F0B5026502602
:100BA0005226E90F516E512651264C380F0B512613
:100BB000522651365236521E52364C500F0B522688
:100BC0004F36070E4E6E0A0E51065226FDE35006B2
:100BD0005126FDE34F065026FDE34E064F26FDE36A
:100BE000EA6A4E0EE96E070E5314539CED525314ED
:100BF00007E153B8EE5253B803D0200E006E20D058
:100C0000E926000EEA22E950520803E1EA5201E126
:100C1000538CEF50006E08E153BC06D053B81BD084
:100C200053B602D0200E0BD053AE06D02D0E006E60
:100C3000ED50539C539E04D053865398300E00269B
:100C4000EACF4DF0E9CF4CF000C06BF0B5DE4DC0FF
:100C5000EAFF4CC0E9FFEE5053ACD5D71200016A51
:100C6000026A006A036A635102E1625118E0100EE1
:100C7000646FD89060376137003603366351035C88
:100C800002E16251005C07E36251005ED8A00306F6
:100C90006351035ED88001360236642FEAD7120012
:100CA000EF520FE0EACF63F0E9CF62F0EFCF6BF0E5
:100CB00083DE63C0EAFF62C0E9FFE92AD8B4EA2A0A
:100CC000EFD7D9EF06F060516203F3CF01F0F4CF14
:100CD00000F06303F350002661516203F3500020DB
:100CE000026E4AEF07F058805882596A5A6A53C018
:100CF00003F052C0E9FF53C0EAFFECCF61F0ED52C0
:100D0000EFCF60F06151555C10E303E15450605D3A
:100D10000CE253C003F052C0E9FF53C0EAFF55C0D4
:100D2000ECFFED5254C0EFFF1BD053C003F052C094
:100D3000E9FF53C0EAFFECCF61F0ED52EFCF60F076
:100D40005750615D0DE303E16051565C09E252C00A
:100D5000E9FF53C0EAFF57C0ECFFED5256C0EFFF6A
:100D600057C05CF056C05BF05C5203E15B50090871
:100D700010E25CC061F05BC060F0636B0A0E626FF2
:100D80006EDF02C05CF001C05BF05950592A5A2A4C
:100D9000EBD750C001F051C003F050C060F051C01B
:100DA00061F00C0E6B6F08DE51C0EAFF50C0E9FF26
:100DB00077D7AD0EF66E070EF76E110E626F34DE4A
:100DC0005ABEE4D05A50800A006E5950800A005C26
:100DD00002E0D8B0DBD05E6A010E5D6E58A02DD067
:100DE000060E6C6F020E6D6FD6DD53C003F052C05D
:100DF000E9FF53C0EAFFECCF61F0ED52EFCF60F0B6
:100E0000010E626F300E6B6FD7DD622FFBD7080EBD
:100E1000E96E61C063F060C062F015DE589058A2C0
:100E20000CD00B0ED8805A54606F6C6F020E6D6F31
:100E3000B2DD2A0E6B6FC0DD5892958E83BE03D053
:100E4000958883A811D0958E83AE03D05A505A0648
:100E500002D05A505A2A58805882958E83BEFDD7A8
:100E6000958883B8FAD791D0958A83BA03D0958CA8
:100E700083AC8BD05F6A5ABE12D05A505F5C0FE2CF
:100E80005F505F2A5EC061F05DC060F0636B0A0E68
:100E9000626F19D702C05EF001C05DF0ECD7958C8F
:100EA00083AC3BD052C0E9FF53C0EAFFECCF61F006
:100EB000ED52EFCF60F0626B636B5D50605F5E5030
:100EC000615B000E625B635B63BF1BD0635309E130
:100ED000625307E15550615D14E303E15450605DD6
:100EE00010E352C0E9FF53C0EAFF5D50EF5C006EB3
:100EF0005E50EC58036E0050ED52EF6E03C0ECFFF5
:100F00000BD053C003F052C0E9FF53C0EAFF55C0F5
:100F1000ECFFED5254C0EFFF31D0958A83AA2ED05A
:100F200053C003F052C0E9FF53C0EAFFECCF61F0B9
:100F3000ED52EFCF60F05D5060275E50612361514C
:100F4000575C13E303E16051565C0FE352C0E9FFC5
:100F500053C0EAFF5D50EF24016E5E50EC20036E3B
:100F6000ED5201C0EFFFEC6E09D052C0E9FF53C053
:100F7000EAFF57C0ECFFED5256C0EFFF5880958C4A
:100F800083BCFDD7958A83BAFAD71AD75950800AFD
:100F9000006E5A50800A005C04E2010E016E03D01C
:100FA00002D0000E016E1200F86AD09E078E700EFD
:100FB000D36ED350B8960C0EAF6EA20EAC6E900EE0
:100FC000AB6E206A1F6A21902192296A286AC1505B
:100FD000C00B0F09C16E070EB46E196A1A6A226A35
:100FE000236A246A256A266A276AC00EF2129D8A3D
:100FF000C050C00BC06EC08EC280010E926EC15038
:10100000C00B0E09C16E000E016EC250C30B011061
:10101000C26E060E006E002EFED70000180E2A6E5D
:101020007C0E2B6E190E2C6E7C0E2D6E1A0E2E6EF3
:101030007C0E2F6E1B0E306E7C0E316E110E326EDA
:101040007C0E336E120E346E7C0E356E66D4030E3B
:101050006C6F010E6D6F9FDCDC0EF66E060EF76E88
:10106000D3DC040E4C6EFA0E6C6FE9EC03F04C2EE0
:10107000FAD7270E206E100E1F6EC282C2B2FED7A4
:10108000C4CF02F0C3CF01F0C4CF4DF0C3CF4CF0BA
:10109000C450030807E303E14C50830803E3036AE9
:1010A000010E02D0036A000E031005E0205210E189
:1010B0001F5009080DE3FA0EF66E060EF76EA4DC5B
:1010C000080E4C6EFA0E6C6FE9EC03F04C2EFAD75A
:1010D00021A03AD01E0EF66E070EF76E000194DCCA
:1010E000010E366E21B21FD0010E6C6F020E6D6FB5
:1010F00052DC300EF66E070EF76E86DC36C06CF0F2
:10110000020E6D6F48DC2D0E6B6F56DC640E6C6F3B
:10111000E9EC03F03650100803E2010E366E02D0FF
:101120003650362ADFD722C04CF023C04DF024C001
:101130004EF025C04FF026C050F027C051F0E0DC43
:1011400021922A0E0ED5FED0420EF66E070EF76ED5
:10115000080E0001626F68DC010EE96E20C04DF0E0
:101160001FC04CF003DD4E0EF66E070EF76E140E28
:10117000626F5ADC958E83BE04D021A001D0A8D71F
:10118000F9D7958E83BEFDD7050E376E386A396A5A
:101190003A6A3B6A3C6AEA6A3D0EE96E0D0E016EE0
:1011A000F76A000E000157EC00F00A000900F5CFC5
:1011B000EEFF012EFBD7516A3D0E506E536A370E7B
:1011C000526E556A546A576A140E566E8CDD01527F
:1011D00001E07ED7EA6A3D0EE96E0F0E016EF76AF6
:1011E000000E000166EC00F00A000900F5CFEEFFEA
:1011F000012EFBD7D8903734026E3834036E02507C
:101200001F5C4E6E035020584F6E516A3D0E506E5B
:10121000536A390E526E556A0A0E546E4FC057F01B
:101220004EC056F060DD015201E0B5D7EA6A3D0ECE
:10123000E96E0A0E016EF76A000E000176EC00F00E
:101240000A000900F5CFEEFF012EFBD7D890373406
:10125000026E3834036E02503924016E3A50032274
:1012600001C04EF003C04FF020C061F01FC060F01D
:1012700003C063F001C062F0F2DC02C04FF001C0B5
:101280004EF0516A3D0E506E536A3B0E526E556AD7
:10129000010E546E02C057F001C056F024DD015219
:1012A00001E098D70C0E6B6FDCEC04F0200E6B6F36
:1012B000DCEC04F0020EE96E3CC04DF03BC04CF09B
:1012C00055DC6A0EF66E070EF76E100E626F14ECA8
:1012D00005F0010EE96E3AC04DF039C04CF046DC25
:1012E0007E0EF66E070EF76E070E626F14EC05F0B9
:1012F000958E83BE08D0958883A804D0958883B83E
:10130000FDD794D7F5D7958E83BEFDD737C04CF067
:1013100038C04DF039C04EF03AC04FF03BC050F0ED
:101320003CC051F080EC05F0860EF66E070EF76EAD
:1013300004EC05F0080E4C6EFA0E6C6FE9EC03F04D
:081340004C2EFAD796D60300EB
:020000040030CA
:0E00000020C93E1E0087A1000FC00FE00F4078
:00000001FF
;PIC18F4550
;CRC=9200  CREATED="11-dic.-23 17:41"
