:04000000ABEF03F06F
:08000800046ED8CF05F0E0CF33
:1000100006F00001E9CF0CF0EACF07F0E1CF08F0DD
:10002000E2CF09F0D9CF0AF0DACF0BF0F3CF12F01C
:10003000F4CF13F0FACF14F0F5CF15F0F6CF16F099
:10004000F7CF17F000C00EF001C00FF002C010F0A3
:1000500003C011F09DAA30EF00F09EBA83EF00F0CC
:100060000EC000F00FC001F010C002F011C003F08C
:100070000CC0E9FF07C0EAFF078E08C0E1FF09C016
:10008000E2FF0AC0D9FF0BC0DAFF12C0F3FF13C0B2
:10009000F4FF14C0FAFF15C0F5FF16C0F6FF17C035
:1000A000F7FF045006C0E0FF05C0D8FF1000F76A54
:1000B000BE0FF66E000EF7220900F55012004361E4
:1000C0006E74696461643A00F76AD80FF66E000EC8
:1000D000F7220900F55012004C6F6E676974756461
:1000E00020286D6D293A0000F76AF80FF66E000EB1
:1000F000F7220900F550120050656C61646F2028EA
:100100006D6D293A00009E9A30EF00F05749524534
:10011000205452494D4D45520A2050726F672E208F
:100120004176616E7A61646100000C50726573699A
:100130006F6E6520444552454348410A70617261C3
:1001400020636F6D656E7A6172202D3E00000C2D6C
:100150003E20494D5052494D49520A3C2D20564FA0
:100160004C56455200000C446973667275746520E4
:100170006465207375730A6361626C6573203A2944
:1001800000000C25730A2D2D2D2D2D2D2020202033
:100190002D2D2D2D2D2D00000C494D5052494D492E
:1001A000454E444F2025346C750A2D00EA6A5C0EDA
:1001B000E96EEF500DE0020E016E006A002EFED7D0
:1001C000012EFBD7970E006E002EFED7EF2EF3D731
:1001D00012006339F00B006E0F0E8A1400108A6E45
:1001E00000008A8000D000D08A9012008150006EFA
:1001F00000380F0B016E12000F0E9314F009936E6E
:100200008A8400008A800000F1DF01C063F08A90D8
:1002100000008A8000D0EADF01C062F08A900F0EF1
:100220009314936E6339006EF00E00160050621145
:10023000016E20EF01F09390939293948A92DCD711
:1002400001C062F001BEFBD78A9260B18A820000D1
:100250008A9400008A906139626F0F0E621762C043
:1002600063F0B7DF61510F0B626F636FB2DF120093
:10027000280E3F6E0C0E406E010E416E060E426E51
:100280008A908A928A940F0E9314936E939093920D
:1002900093940F0E5C6E8ADF010E3E6E3E50030893
:1002A00008E3030E636F95DF050E5C6E7FDF3E2A69
:1002B000F5D7020E636F8DDF050E5C6E77DF3E6A49
:1002C0003E5003080DE3036A3E503F0FE96E000EF7
:1002D0000320EA6EEFCF61F0606BADDF3E2AF0D70E
:1002E000F5EF03F05D2C01D003D0400E5E6E01D01F
:1002F0005E6A010E5C5C5E265E5080095F6E606B1C
:10030000616F99DF12005B50070A07E00B0A0AE0F1
:10031000060A10E0020A14E018D0010E5C6E5D6E51
:10032000E1DF18D0606B010E616F85DF020E5C6E3D
:100330003DDF10D0010E5C6E020E5D6ED3DF0AD081
:10034000606B100E616F77DF05D0010E606F5BC0D0
:1003500061F071DF12000900F5520CE0F6CF3EF0BB
:10036000F7CF3FF0F5CF5BF0CEDF3EC0F6FF3FC0EA
:10037000F7FFF1D71200016A026A006A036A53505C
:1003800002E1525018E0100E546ED890503651369B
:10039000003603365350035C02E15250005C07E321
:1003A0005250005ED8A003065350035ED880013639
:1003B0000236542EEAD781EF02F0EF520FE0EACF77
:1003C00053F0E9CF52F0EFCF5BF09DDF53C0EAFF6F
:1003D00052C0E9FFE92AD8B4EA2AEFD799EF02F030
:1003E0000900F6CF53F0F7CF54F0F5CF5BF08BDF79
:1003F00053C0F6FF54C0F7FF522EF2D71200EACFD7
:100400005AF0E9CF59F05338F009556E5526E20FEE
:10041000566E320F586E53500F0B562656265826DE
:10042000E90F576E5726572652380F0B5726582676
:1004300057365836581E583652500F0B58265536D8
:10044000070E546E0A0E57065826FDE35606572629
:10045000FDE355065626FDE354065526FDE3EA6AFC
:10046000540EE96E070E5914599CE926000EEA2233
:10047000E950580803E1EA5201E1598CEF50006E4F
:1004800008E159BC06D059B813D059B602D0200E95
:1004900003D059865998300E0026EACF53F0E9CFA1
:1004A00052F000C05BF02FDF53C0EAFF52C0E9FFFB
:1004B000EE5059ACDDD7120050505202F3CF01F08C
:1004C000F4CF00F05302F350002651505202F35083
:1004D0000020026EFFEF02F048804882496A4A6AB3
:1004E00047C04CF046C04BF04C5203E14B5009085A
:1004F00010E24CC051F04BC050F0536A0A0E526EDD
:100500003AD702C04CF001C04BF04950492A4A2A60
:10051000EBD740C001F041C003F040C050F041C0F3
:1005200051F00C0E5B6EEFDE41C0EAFF40C0E9FF08
:1005300044D7850EF66E010EF76E110E526E50DF27
:100540004ABED0D04A50800A006E4950800A005CF2
:1005500002E0D8B0C7D04E6A010E4D6E48A022D03E
:10056000070E5C6E020E5D6EBDDE43C003F042C03E
:10057000E9FF43C0EAFFECCF53F0ED52EFCF52F06A
:10058000090EE96E3CDF489048A20CD00A0ED880D4
:100590004A54506E5C6E020E5D6EA4DE2A0E5B6ED7
:1005A000B2DE4892958E83BE03D0958883A811D081
:1005B000958E83AE03D04A504A0602D04A504A2A4A
:1005C00048804882958E83BEFDD7958883B8FAD738
:1005D00088D0958A83BA03D0958C83AC82D04F6A39
:1005E0004ABE12D04A504F5C0FE24F504F2A4EC0C5
:1005F00051F04DC050F0536A0A0E526E5DD702C0E2
:100600004EF001C04DF0ECD7958C83AC32D042C097
:10061000E9FF43C0EAFFECCF51F0ED52EFCF50F0CD
:100620004D50505E4E50515A51BE17D04550515CFE
:1006300014E303E14450505C10E342C0E9FF43C0BF
:10064000EAFF4D50EF5C006E4E50EC58036E0050C8
:10065000ED52EF6E03C0ECFF0BD043C003F042C07D
:10066000E9FF43C0EAFF45C0ECFFED5244C0EFFF95
:1006700031D0958A83AA2ED043C003F042C0E9FF4F
:1006800043C0EAFFECCF51F0ED52EFCF50F04D50A8
:1006900050264E5051225150475C13E303E1505015
:1006A000465C0FE342C0E9FF43C0EAFF4D50EF2430
:1006B000016E4E50EC20036EED5201C0EFFFEC6E68
:1006C00009D042C0E9FF43C0EAFF47C0ECFFED524A
:1006D00046C0EFFF4880958C83BCFDD7958A83BACE
:1006E000FAD72ED74950800A006E4A50800A005C23
:1006F00004E2010E016E03D002D0000E016E120062
:10070000456A010E446E45503F5C23E303E14450CB
:100710003E5C1FE3980EF66E010EF76E0D0E526EE4
:100720005FDE010EE96E45C053F044C052F067DE53
:100730000A0E5B6EE8DD2D0E5B6EE5DD0C0E466E7F
:10074000FA0E5C6E33DD462EFBD7442AD8B4452A18
:10075000DAD797EF04F0F86AD09E078E700ED36E4A
:10076000D3501A6A320E196E1C6A1B6AC150C00B34
:100770000F09C16E070EB46EC00EF2129D8A180EDC
:100780001D6E7C0E1E6E190E1F6E7C0E206E1A0ED4
:10079000216E7C0E226E1B0E236E7C0E246E000ECC
:1007A0000609CA6E7C0ECB6E94948B940C0EBD6EB3
:1007B000B76AB66A1AC002F019C001F002320132FB
:1007C00002320132023201C0BEFF02320230300B6F
:1007D000006EBD50CF0B0010BD6E5C0E286E2768FA
:1007E000790E266E880E256E43D5030E5C6E010EC3
:1007F0005D6E78DD0C0EF66E010EF76EACDD040E4C
:100800003E6EFA0E5C6ED2DC3E2EFBD72A0EF66EE2
:10081000010EF76E00019FDD958E83AEFDD7958E9C
:1008200083BEFDD7010E296E2A6A050E2B6E2C6A37
:100830002D6A2E6AEA6A2F0EE96E0A0E016EF76AB9
:10084000000E000134DC0A000900F5CFEEFF012E96
:10085000FBD7416A2F0E406E436A290E426E456AED
:10086000010E446E476A630E466E36DE015201E0A9
:10087000CDD7EA6A2F0EE96E0F0E016EF76A000EF1
:10088000000122DC0A000900F5CFEEFF012EFBD7A4
:10089000416A2F0E406E436A2B0E426E456A1E0E51
:1008A000446E270E476E0F0E466E16DE015201E0B3
:1008B000C1D7EA6A2F0EE96E0D0E016EF76A000EBF
:1008C000000112DC0A000900F5CFEEFF012EFBD774
:1008D000416A2F0E406E436A2D0E426E456A446A8D
:1008E000476A0A0E466EF8DD015201E0C2D74E0E8D
:1008F000F66E010EF76E2FDD958E83BE08D09588BB
:1009000083A804D0958883B8FDD7D3D7F5D7958E23
:1009100083BEFDD729C03EF02AC03FF02BC040F077
:100920002CC041F02DC042F02EC043F0E9D6660E37
:10093000F66E010EF76E0FDD080E3E6EFA0E5C6E5F
:0A09400035DC3E2EFBD762D7030022
:020000040030CA
:0E00000020C93E1E0087A1000FC00FE00F4078
:00000001FF
;PIC18F4550
;CRC=88B2  CREATED="26-nov.-23 20:23"
