:04000000A1EF0DF06F
:08000800046ED8CF05F0E0CF33
:1000100006F00001E9CF0CF0EACF07F0E1CF08F0DD
:10002000E2CF09F0D9CF0AF0DACF0BF0F3CF12F01C
:10003000F4CF13F0FACF14F0F5CF15F0F6CF16F099
:10004000F7CF17F000C00EF001C00FF002C010F0A3
:1000500003C011F09DAA30EF00F09EBA0DEF03F03F
:100060000EC000F00FC001F010C002F011C003F08C
:100070000CC0E9FF07C0EAFF078E08C0E1FF09C016
:10008000E2FF0AC0D9FF0BC0DAFF12C0F3FF13C0B2
:10009000F4FF14C0FAFF15C0F5FF16C0F6FF17C035
:1000A000F7FF045006C0E0FF05C0D8FF1000F76A54
:1000B000BE0FF66E000EF7220900F5501200107CFC
:1000C000117C127C187C197CF76AD80FF66E000E32
:1000D000F7220900F5501200057C207C217C227C4F
:1000E000F76AF00FF66E000EF7220900F5501200C5
:1000F00050656C61646F20286D6D293A0000F76AC5
:100100000E0FF66E010EF7220900F55012004C6F2B
:100110006E676974756420286D6D293A0000F76A6E
:100120002E0FF66E010EF7220900F5501200436102
:100130006E74696461643A00EACF96F0E9CF95F095
:100140008FAF08D0958F95A9952B8E1F8F1F8E2B63
:10015000D8B48F2B8F39F009916F9127E20F926FEE
:10016000320F946F8F510F0B922792279427E90F2C
:10017000936F932793278E390F0B932794279337E9
:100180009437941F94378E510F0B94279137070E95
:10019000906F0A0E93079427FDE392079327FDE3E0
:1001A00091079227FDE390079127FDE3EA6A900EFD
:1001B000E96E070E9515959DED52951507E195B9D8
:1001C000EE5295B903D0200E006E20D0E926000E25
:1001D000EA22E950940803E1EA5201E1958DEF50DB
:1001E000006E08E195BD06D095B914D095B702D040
:1001F000200E0BD095AF06D02D0E006EED50959DC4
:10020000959F04D095879599300E002600509EA8A2
:10021000FED7AD6EEE5095ADDCD724EF03F0C3C032
:10022000C6F0C2C0C8F0C1C0C7F0C55303E1C45195
:10023000000816E2C8C003F0C7C0E9FFC8C0EAFF63
:10024000C651EF5C05E1C7C001F0C8C002F00BD099
:10025000C72BD8B4C82BC451D8B4C507C407E5D739
:10026000000E016E026E1200C351C519800BC76FDC
:10027000C3AF05D0C21FC31FC22BD8B4C32BC5AF99
:1002800005D0C41FC51FC42BD8B4C52BC251C4038D
:10029000F3CF01F0F4CF00F0C503F3500026C351B3
:1002A000C403F3500020026EC7AF05D0011E021E2A
:1002B000012AD8B4022AAEEF02F09A6B996B300E85
:1002C0009C6F310E9D6F320E9E6F330E9F6F340EFA
:1002D000A06F350EA16F360EA26F370EA36F380ECA
:1002E000A46F390EA56F610EA66F620EA76F630E25
:1002F000A86F640EA96F650EAA6F660EAB6F670ECE
:10030000AC6F680EAD6F690EAE6F6A0EAF6F6B0E9D
:10031000B06F6C0EB16F6D0EB26F6E0EB36F6F0E6D
:10032000B46F700EB56F710EB66F730EB76F740E3B
:10033000B86F750EB96F760EBA6F770EBB6F780E09
:10034000BC6F790EBD6F7A0EBE6FBF6B8FC094F01D
:100350008EC093F094C003F093C0E9FF94C0EAFF0D
:10036000EF50200804E1932BD8B4942BF3D794C01A
:1003700003F093C0E9FF94C0EAFFEF502D0809E0B5
:1003800094C003F093C0E9FF94C0EAFFEF502B083C
:1003900009E194C0EAFF9351932BD8B4942BE96EF2
:1003A000EF5001D02B0E9B6F9B512D080AE092BF9E
:1003B00008D0922D01D005D092BF05D092512408CB
:1003C00002E209D184D092534CE0925110081FE10F
:1003D00094C003F093C0E9FF94C0EAFFEF503008E7
:1003E00016E1010E9325E96E000E9421EA6EEF509E
:1003F000780809E0010E9325E96E000E9421EA6E5B
:10040000EF50580804E1020E9327000E94239251F6
:1004100008080DE194C003F093C0E9FF94C0EAFF1F
:10042000EF50300804E1010E9327000E94239251FF
:10043000020816E194C003F093C0E9FF94C0EAFFFC
:10044000EF5030080DE1010E9325E96E000E942166
:10045000EA6EEF50620804E1020E9327000E942327
:1004600036D094C003F093C0E9FF94C0EAFFEF5088
:10047000300803E00A0E926F2AD0010E9325E96E30
:10048000000E9421EA6EEF50780809E0010E9325E2
:10049000E96E000E9421EA6EEF50580807E1100E45
:1004A000926F020E9327000E942311D0010E932514
:1004B000E96E000E9421EA6EEF50620806E1020E2A
:1004C000926F9327000E942302D0080E926F94C06F
:1004D00096F093C095F094C003F093C0E9FF94C0E8
:1004E000EAFFEF50300804E1932BD8B4942BF3D7F4
:1004F00094C003F093C0E9FF94C0EAFFEFCFC0F0CF
:10050000C051400806E2C0515A0803E3C051200917
:1005100001D0C051C06FC26B9C0EC16FC0C0C3F090
:10052000C56B92C0C4F0C4BFC50779DE02C098F0A5
:1005300001C097F0975302E1985347E0036A925144
:10054000006EE8BE0306C06F03C0C1F09AC0C3F0DE
:1005500099C0C2F003C0C5F0C46F86D601C0C0F018
:100560009C0E975D006E000E9859036E005001249A
:10057000016E0250032201C099F003C09AF0932B40
:10058000D8B4942B94C003F093C0E9FF94C0EAFF61
:10059000EFCFC0F0C051400806E2C0515A0803E353
:1005A000C051200901D0C051C06FC26B9C0EC16FF9
:1005B000C0C0C3F0C56B92C0C4F0C4BFC5072FDE76
:1005C00002C098F001C097F0B5D79351955D14E142
:1005D0009451965D11E100019051911109E090C094
:1005E000E9FF91C0EAFF8FC0ECFFED528EC0EFFF34
:1005F000000E016E026E10D09051911109E090C072
:10060000E9FF91C0EAFF94C0ECFFED5293C0EFFF09
:1006100099C001F09AC002F012009EAAFED7AECF98
:100620007AF07A512B0A05E0060A14E0070A14E072
:1006300071D02B0E9EA8FED7AD6E090EE96E20C0BC
:100640008FF01FC08EF078D50A0E9EA8FED7AD6E33
:10065000218060D021905ED0896B895103080DE321
:10066000036A89517B0FE96E000E0320EA6E9EAA91
:10067000FED7AECFEFFF892BF0D77F6B8A6B8A5105
:1006800004080DE3036A8A51800FE96E000E03200F
:10069000EA6E9EAAFED7AECFEFFF8A2BF0D7856B0E
:1006A0008B6B8B5101080DE3036A8B51860FE96E4A
:1006B000000E0320EA6E9EAAFED7AECFEFFF8B2B73
:1006C000F0D7886B8F6B860E8E6F916B8C0E906F50
:1006D0000A0E926FF2DD02C023F001C022F08F6B90
:1006E000800E8E6F916B8C0E906F0A0E926FE5DD0F
:1006F00002C025F001C024F08F6B7B0E8E6F916BD2
:100700008C0E906F0A0E926FD8DD02C027F001C0E8
:1007100026F021829E9A30EF00F00C20205749529B
:1007200045205452494D4D45520A2050726F672E54
:10073000204176616E7A616461000C43617272657A
:1007400074652045736361736F004E7565766F2025
:10075000436172726574652D3E00202020202020A8
:10076000202020202020202020000C202020526546
:1007700063696269656E646F20202000202020205C
:1007800020202020202020202020202000000C20BD
:1007900025346C75204361626C6528732920200A1A
:1007A0002025326C75206D6D2025356C75206D6DA2
:1007B00020000C4361626C653A2025356C75206D14
:1007C0006D004E75657661204F7264656E20202D38
:1007D0003E0020202020202020202020202020201B
:1007E00020000C2025346C75204361626C652873F1
:1007F0002920200A2025326C75206D6D2025356C4E
:1008000075206D6D20000C4F5244454E2046494ED8
:10081000414C495A4144410A205675656C76612025
:1008200050726F6E746F202100000C4361626C6522
:100830002025346C75202F25346C750A00003D3D51
:100840003D003D3D3D000C4D4F444F20444520525E
:100850004543415247410A456E726F6C6C6172208C
:1008600020202020202D3E00456E726F6C6C61723E
:100870002020202020202D3E000020202020253573
:100880006C75206D6D2020202000446574656E65B8
:1008900072202020202020203C2D00000C566F6C60
:1008A00076657220202020202020203C2D0A4669D9
:1008B0006E616C697A617220202020202D3E00003C
:1008C0006451070B006E6431016E013201321F0E5C
:1008D000011601506625E96E000E6721EA6E016A75
:1008E000012A002A01D00136002EFDD7655303E00E
:1008F0000150EF1203D0011E0150EF161200F2CF8B
:1009000050F0F29EA96AA69CA69EA680A85050BE52
:10091000F28E4E6EF2CF51F0F29E010EA96EA69CA1
:10092000A69EA680A85051BEF28E4F6E506A5050BF
:100930004E104FC003F0016E4FC002F0F8EF0DF003
:10094000EA6A700EE96EEF500DE0020E016E006A69
:10095000002EFED7012EFBD7970E006E002EFED77D
:10096000EF2EF3D7120077B102D08A9801D08A888F
:10097000939877B302D08A9A01D08A8A939A77B5EE
:1009800002D08A9C01D08A8C939C77B702D08A9E31
:1009900001D08A8E939E00008A84939400D000D068
:1009A0008A9493941200786B9388000E81B8010E9C
:1009B0007813938A000E81BA010E006ED89000362B
:1009C00000507813938C000E81BC010E006E00362F
:1009D0000036FC0E001600507813938E000E81BE78
:1009E000010E006E003600360036F80E001600507C
:1009F000781378C001F012009388938A938C938EB9
:100A00008A82939200008A8493940000CCDF01C014
:100A100077F08A94939400008A84939400D0C3DF83
:100A200001C076F08A9493949398939A939C939EA2
:100A30007739006EF00E001600507611016E27EF28
:100A400005F09394939093928A909390D5D701C098
:100A500076F001BEFBD7745302E18A9001D08A8000
:100A6000939000008A92939200008A94939475392F
:100A7000766F0F0E761776C077F075DF75510F0B16
:100A8000766F776F70DF1200280E4F6E0C0E506E6F
:100A9000010E516E060E526E8A9493948A90939032
:100AA0008A9293929398939A939C939E9394939003
:100AB00093920F0E706F44DF010E4E6E4E5003087E
:100AC00008E3030E776F4FDF050E706F39DF4E2A94
:100AD000F5D7020E776F47DF050E706F31DF4E6A74
:100AE0004E5003080DE3036A4E504F0FE96E000E9F
:100AF0000320EA6EEFCF75F0746BA3DF4E2AF0D7B8
:100B000023EF0EF0712D01D003D0400E726F01D093
:100B1000726B010E705D722772518009736F746B76
:100B2000756F8FDF12006F51070A07E00B0A0AE0AA
:100B3000060A10E0020A14E018D0010E706F716FFF
:100B4000E1DF18D0746B010E756F7BDF020E706FE2
:100B5000F7DE10D0010E706F020E716FD3DF0AD076
:100B6000746B100E756F6DDF05D0010E746F6FC062
:100B700075F067DF12000900F5520CE0F6CF56F071
:100B8000F7CF57F0F5CF6FF0CEDF56C0F6FF57C066
:100B9000F7FFF1D71200706B716B010E726FDA6A9A
:100BA000D96A756B680E746FEA6A6C0EE96E75C06F
:100BB000E2FF74C0E1FF72C073F0D890E550EE021E
:100BC000F3507023F4507123732FF7D770C0DEFFFA
:100BD00071C070F0716BD8B0712B742BD8B4752BB9
:100BE000722B72510508E0E11200D8B203D0EA6A14
:100BF000700EE96E006A016A026A036A706B716BBB
:100C0000726B736B6F516E116D116C112CE0200EB5
:100C1000746FD890683769376A376B3770377137B8
:100C2000723773376F51735D08E16E51725D05E184
:100C30006D51715D02E16C51705D0FE36C51705F3D
:100C40006D51D8A06D3D715F6E51D8A06E3D725F41
:100C50006F51D8A06F3D735FD880003601360236E1
:100C60000336742FD6D770C0EFFF71C0ECFF72C08F
:100C7000ECFF73C0ECFF12000900F6CF5AF0F7CF7B
:100C80005BF0F5CF6FF04FDF5AC0F6FF5BC0F7FFA8
:100C9000592EF2D71200E9505D6E3B0E646F9A0E2A
:100CA000636FCA0E626F616B0A0E5F6ED882EA6A6A
:100CB000590EE96E5CC06BF05BC06AF05AC069F017
:100CC00059C068F064C06FF063C06EF062C06DF030
:100CD00061C06CF08ADF015000520FE15F50010AE1
:100CE0000CE05D500BE00F0B5F5C01E00CE25DBEC1
:100CF0000AD05DBC03D0200E02D05D6A300E002603
:100D000000C06FF010DFD89264C06BF063C06AF06F
:100D100062C069F061C068F06F6B6E6B6D6B0A0E3C
:100D20006C6F63DF03C064F002C063F001C062F067
:100D300000C061F05F2EBAD744EF08F0016A026A82
:100D4000006A036A675102E1665118E0100E686F8D
:100D5000D89064376537003603366751035C02E18B
:100D60006651005C07E36651005ED8A00306675138
:100D7000035ED88001360236682FEAD712005C0E77
:100D80005F6A5E6E010E5E24606F000E5F20616F11
:100D90005FC003F05E50E96E03C0EAFFEFCF62F080
:100DA000F250006EF29EA96A62C0A8FFA69CA69EA1
:100DB000A6840F01550EA76EAA0EA76EA682A6B234
:100DC000FED7A6940050F21261C003F000016051FA
:100DD000E96E03C0EAFFEFCF62F0F250006EF29EC0
:100DE000010EA96E62C0A8FFA69CA69EA6840F0154
:100DF000550EA76EAA0EA76EA682A6B2FED7A6941F
:100E00000050F212000128EF07F064516603F3CF9F
:100E100001F0F4CF00F06703F3500026655166033C
:100E2000F3500020026E1200585202E1595210E0B5
:100E30005A5205E059C020F058C01FF004D0585055
:100E40001F5E5950205A20C05DF01FC05CF097D73C
:100E50005B6A5B50040855E320C065F01FC064F076
:100E6000676B050E666FD1DF02C05DF001C05CF0FC
:100E700002C065F001C064F0270E676F100E666F48
:100E80005DDF02C003F00150035203E101505B5CDF
:100E90001CE2D8905B34036A57EC00F00900F5CFF0
:100EA00003F05C6E03C05DF0646F010E656F0F0EA2
:100EB000676F890E666F04DD5CC064F0656B0F0EB2
:100EC000676F920E666FFCDC1AD0D8905B34036AB1
:100ED00057EC00F00900F5CF03F05C6E03C05DF045
:100EE000646F656B0F0E676F890E666FE9DC5CC01F
:100EF00064F0656B0F0E676F920E666FE1DC5B2A24
:100F0000A8D71200206A1F6A516A506A4F6A4E6A57
:100F1000460EF66E080EF76E00012DDE28C064F056
:100F2000010E656F0F0E676F890E666FC9DC28C0F2
:100F300064F0656B0F0E676F920E666FC1DC2CC09C
:100F400064F0010E656F0F0E676F890E666FB8DC77
:100F50002CC064F0656B0F0E676F920E666FB0DC8D
:100F60005290546A536A546A010E536E958A83BA3A
:100F7000EFD0958E83AE02D052800ED0958883A894
:100F80000BD05290010E706F020E716FBBDD680EB8
:100F9000F66E080EF76EEFDD5350030B556E566A72
:100FA0005552D8A482D05652D8A47FD02AC064F01B
:100FB000010E656F0F0E676F890E666F81DC2AC0A8
:100FC00064F0656B0F0E676F920E666F79DC2AC056
:100FD00064F0656B0F0E676F890E666F71DC2AC057
:100FE00064F0656B0F0E676F920E666F69DC010E21
:100FF000706F716F87DD010E4E26D8B04F2AD8B4BE
:10100000502AD8B4512A51C06BF050C06AF04FC07A
:1010100069F04EC068F06F6B6E6B030E6D6F0C0E57
:101020006C6FB9DD03C058F002C057F001C056F034
:1010300000C055F0D89203C06BF002C06AF001C046
:1010400069F000C068F06F6B6E6B030E6D6FB70ECA
:101050006C6FCBDD03C058F002C057F001C056F0F2
:1010600000C055F07A0EF66E080EF76E040E596E3B
:1010700003DE050EE96E58C05CF057C05BF056C049
:101080005AF055C059F007D6820EF66E080EF76E6C
:10109000070E596EF1DD010E706F020E716F32DDB9
:1010A0008A0EF66E080EF76E66DD54C065F053C00A
:1010B00064F0676B030E666F41DE00C055F003C03D
:1010C00056F0555227E1565225E12EC064F0010E2C
:1010D000656F0F0E676F890E666F60EC04F02EC0AF
:1010E00064F0656B0F0E676F920E666F60EC04F034
:1010F0002EC064F0656B0F0E676F890E666F60EC33
:1011000004F02EC064F0656B0F0E676F920E666F71
:1011100060EC04F0010E706F13DC5450740805E2AB
:10112000FF0A08E153502F0805E352B00AD0958C0E
:1011300083BC07D0546A010E536E54C003F0535061
:1011400006D054C003F05350532AD8B4542A0ED7B3
:10115000958A83BAFDD79C0EF66E080EF76E0BDDEE
:10116000958E83BE08D0958883A804D0958883B8CF
:10117000FDD7CED6F5D7958E83BEFDD751C06BF087
:1011800050C06AF04FC069F04EC068F06F6B6E6B74
:10119000030E6D6F0C0E6C6FFEDC03C058F002C0C6
:1011A00057F001C056F000C055F0D89203C06BF064
:1011B00002C06AF001C069F000C068F06F6B6E6B2E
:1011C000030E6D6FB70E6C6F10DD01C056F000C0DE
:1011D00055F001C059F000C058F0010E5A6E24DEDF
:1011E00083EF0EF0EACF6EF0E9CF6DF06739F009CA
:1011F000696F6927E20F6A6F320F6C6F67510F0BCF
:101200006A276A276C27E90F6B6F6B276B27663994
:101210000F0B6B276C276B376C376C1F6C37665165
:101220000F0B6C276937070E686F0A0E6B076C2768
:10123000FDE36A076B27FDE369076A27FDE368079B
:101240006927FDE3EA6A680EE96E070E6D156D9D6C
:10125000E926000EEA22E9506C0803E1EA5201E1B6
:101260006D8DEF50006E08E16DBD06D06DB913D0E5
:101270006DB702D0200E03D06D876D99300E002619
:10128000EACF67F0E9CF66F000C06FF04CDC67C0D2
:10129000EAFF66C0E9FFEE506DADDDD712006B6B63
:1012A0006A6B57C069F056C068F06F6B6E6B030EC7
:1012B0006D6FB70E6C6F6FDC03C067F002C066F035
:1012C00001C065F000C064F0D89203C06BF002C0AA
:1012D0006AF001C069F000C068F06F6B6E6B030EBE
:1012E0006D6F0C0E6C6F81DC03C05BF002C05AF0B6
:1012F00001C059F000C058F028C064F0656B0F0EB3
:10130000676F890E666F60EC04F028C064F0656B4F
:101310000F0E676F920E666F60EC04F02CC064F0E5
:10132000656B0F0E676F890E666F60EC04F02CC062
:1013300064F0656B0F0E676F920E666F60EC04F0E1
:10134000616B010E606F636B626B5B520BE15A5213
:1013500009E16351595CD8A08BD004E15850625D1B
:10136000D8B086D061C065F060C064F0676B140EC1
:10137000666FE4DC00C064F003C065F064532AE1EA
:10138000655328E12AC064F0010E656F0F0E676F88
:10139000890E666F60EC04F02AC064F0656B0F0E76
:1013A000676F920E666F60EC04F02AC064F0656BA4
:1013B0000F0E676F890E666F60EC04F02AC064F050
:1013C000656B0F0E676F920E666F60EC04F0622B18
:1013D000D8B4632B61C065F060C064F0676B090E20
:1013E000666FACDC00C064F003C065F0645327E1B5
:1013F000655325E12EC064F0010E656F0F0E676F17
:10140000890E666F60EC04F02EC064F0656B0F0E01
:10141000676F920E666F60EC04F02EC064F0656B2F
:101420000F0E676F890E666F60EC04F02EC064F0DB
:10143000656B0F0E676F920E666F60EC04F0010E25
:10144000706FA0EC04F0615174080BE2FF0A03E135
:1014500060512F0806E2616B606B61C003F0605160
:1014600006D061C003F06051602BD8B4612B6DD7FA
:101470001200576A010E586E565202E0910E01D0CA
:101480003C0E596E5A6A59505A5CD8B089D0D890DF
:101490005734036A64EC00F00900F5CF03F05C6E8A
:1014A00003C05DF0646F010E656F0F0E676F890EEC
:1014B000666F60EC04F05CC064F0656B0F0E676FE4
:1014C000920E666F60EC04F0D8905834036A64ECB6
:1014D00000F00900F5CF03F05C6E03C05DF0646FAF
:1014E000010E656F0F0E676F890E666F60EC04F07A
:1014F0005CC064F0656B0F0E676F920E666F60ECF8
:1015000004F0050E706FA0EC04F0D8905734036A15
:1015100064EC00F00900F5CF03F05C6E03C05DF0F1
:10152000646F656B0F0E676F890E666F60EC04F079
:101530005CC064F0656B0F0E676F920E666F60ECB7
:1015400004F0D8905834036A64EC00F00900F5CF39
:1015500003F05C6E03C05DF0646F656B0F0E676F28
:10156000890E666F60EC04F05CC064F0656B0F0E72
:10157000676F920E666F60EC04F05A505A2A57500B
:10158000030803E1576A575002D05750572A585062
:10159000030803E1586A585002D05850582A73D7AC
:1015A000575203E1030E576E02D057505706575259
:1015B00003E1030E576E02D057505706585203E10D
:1015C000030E586E02D058505806585203E1030ECD
:1015D000586E02D0585058065B6A59505B5CD8B0C0
:1015E00087D0D8905734036A64EC00F00900F5CF37
:1015F00003F05C6E03C05DF0646F010E656F0F0E4B
:10160000676F890E666F60EC04F05CC064F0656B18
:101610000F0E676F920E666F60EC04F0D89058342E
:10162000036A64EC00F00900F5CF03F05C6E03C0C0
:101630005DF0646F010E656F0F0E676F890E666F48
:1016400060EC04F05CC064F0656B0F0E676F920E87
:10165000666F60EC04F0050E706FA0EC04F0D8909B
:101660005734036A64EC00F00900F5CF03F05C6EB8
:1016700003C05DF0646F656B0F0E676F890E666F58
:1016800060EC04F05CC064F0656B0F0E676F920E47
:10169000666F60EC04F0D8905834036A64EC00F094
:1016A0000900F5CF03F05C6E03C05DF0646F656BFD
:1016B0000F0E676F890E666F60EC04F05CC064F01B
:1016C000656B0F0E676F920E666F60EC04F05B50F7
:1016D0005B2A575203E1030E576E02D0575057064C
:1016E000585203E1030E586E02D05850580675D771
:1016F0001200556A010E546E5550535CD8A07BD031
:1017000004E15450525CD8A076D02A0EF66E080E32
:10171000F76E070E596E3CEC06F0010EE96E55C0EF
:1017200067F054C066F05EDD200E6F6F93EC05F03D
:101730002F0E6F6F93EC05F0010EE96E53C067F04A
:1017400052C066F04FDD0A0E6F6F93EC05F03E0E4F
:10175000F66E080EF76EBBEC05F04FC057F04EC0AA
:1017600056F09DDD566A85DE6F6993EC05F06F6972
:1017700093EC05F06F6993EC05F06F6993EC05F05D
:101780006F6993EC05F06F6993EC05F06F6993EC6A
:1017900005F06F6993EC05F06F6993EC05F06F69E4
:1017A00093EC05F051C057F050C056F078DD566A02
:1017B00060DE420EF66E080EF76EBBEC05F04FC011
:1017C00057F04EC056F06BDD010E566E52DED890CB
:1017D0004E34566E4F34576E505056265150572245
:1017E00057C059F056C058F05A6A14EC07F0542A02
:1017F000D8B4552A81D712009EA8FED7AD6E0CEF43
:101800000FF0EF5210E0EACF67F0E9CF66F0EFCFCC
:101810006FF093EC05F067C0EAFF66C0E9FFE92AC4
:10182000D8B4EA2AEED780EF0CF05A805A925B6A5D
:101830005C6A55C003F054C0E9FF55C0EAFFECCF25
:1018400065F0ED52EFCF64F06551575C10E303E1B2
:101850005650645D0CE255C003F054C0E9FF55C01A
:10186000EAFF57C0ECFFED525650EF6E1ED055C048
:1018700003F054C0E9FF55C0EAFFECCF65F0ED522C
:10188000EFCF64F05950655D10E303E16451585C9B
:101890000CE254C0E9FF55C0EAFF59C0ECFFED521D
:1018A00058C0EFFF59C003F0585059C05EF058C0FF
:1018B0005DF05E5203E15D50090811E25EC065F023
:1018C0005DC064F0676B0A0E666F9EEC06F002C0A6
:1018D0005EF001C05DF05B505B2A5C2AEAD752C023
:1018E00001F053C003F052C064F053C065F00C0E19
:1018F0006F6F93EC05F053C0EAFF52C0E9FF81D748
:101900000A0E6F6F93EC05F0606B5F6A5CBE0BD1E3
:101910005C50800A006E5B50800A005C02E0D8B028
:1019200002D1626B010E616F010E706FA0EC04F0CA
:101930005F2AD8B4602B5F2C06D0605304E15A8034
:10194000036A010E11D05F50F40805E1602D03D049
:101950005A82010E09D05F50E80806E16051030881
:1019600003E1606B5F6A5F505AA022D0060E706F71
:10197000020E716F82EC05F055C003F054C0E9FF10
:1019800055C0EAFFECCF65F0ED52EFCF64F0010EE9
:10199000666F300E6F6F93EC05F0662FFAD7080E66
:1019A000E96E65C067F064C066F01CDC5A9010D028
:1019B0005AA20ED00B0ED8805C54646F706F020E6A
:1019C000716F82EC05F05F0E6F6F93EC05F05A9229
:1019D000958E83BE03D0958883A811D0958E83AE53
:1019E00003D05C505C0602D05C505C2A606B5F6A7E
:1019F000958E83BEFDD7958883B8FAD793D0958A04
:101A000083BA03D0958C83AC8DD0636B5CBE13D04E
:101A10005C50635D10E26351632B62C065F061C08E
:101A200064F0676B0A0E666F05EC07F002C062F0A7
:101A300001C061F0EBD7958C83AC3BD054C0E9FF7B
:101A400055C0EAFFECCF65F0ED52EFCF64F0666B66
:101A5000676B6151645F6251655B000E665B675B3B
:101A600067BF1BD0675309E1665307E15750655DB7
:101A700014E303E15650645D10E354C0E9FF55C020
:101A8000EAFF6151EF5C006E6251EC58036E00504A
:101A9000ED52EF6E03C0ECFF0BD055C003F054C005
:101AA000E9FF55C0EAFF57C0ECFFED5256C0EFFF0B
:101AB00031D0958A83AA2ED055C003F054C0E9FFD7
:101AC00055C0EAFFECCF65F0ED52EFCF64F0615105
:101AD0006427625165236551595C13E303E1645146
:101AE000585C0FE354C0E9FF55C0EAFF6151EF2491
:101AF000016E6251EC20036EED5201C0EFFFEC6EFF
:101B000009D054C0E9FF55C0EAFF59C0ECFFED52BF
:101B100058C0EFFF606B5F6A958C83BCFDD7958AD8
:101B200083BAFAD7F3D65B50800A006E5C50800A05
:101B3000005C04E2010E016E03D002D0000E016EC3
:101B40001200F86AD09E078E700ED36ED350B896EE
:101B50000C0EAF6EA20EAC6E900EAB6E206A1F6ABA
:101B600021902192316A306AC150C00B0F09C16EB9
:101B7000070EB46E196A1A6A226A236A246A256AF1
:101B8000266A276A010E286E7C0E296E020E2A6EC6
:101B90007C0E2B6E030E2C6E7C0E2D6E040E2E6EA4
:101BA0007C0E2F6E000E926E326A325003081EE3D6
:101BB000D8903234036A64EC00F00900F5CF03F0EA
:101BC0004E6E03C04FF0646F656B0F0E676F890E2A
:101BD000666F60EC04F04EC064F0656B0F0E676FCB
:101BE000920E666F60EC04F0322ADFD77FEF04F0CC
:101BF00002C020F001C01FF0336A335004081EE316
:101C0000D8903334036A57EC00F00900F5CF03F0A5
:101C10004E6E03C04FF0646F656B0F0E676F890ED9
:101C2000666F60EC04F04EC064F0656B0F0E676F7A
:101C3000920E666F60EC04F0332ADFD7C00EF2120A
:101C40009D8A44EF05F01A0EF66E070EF76EBBEC98
:101C500005F0040E4E6EFA0E706FA0EC04F04E2EDE
:101C6000FAD7205203E11F501D0808E22050260831
:101C70004BE2FF0A03E11F50100846E23A0EF66EEF
:101C8000070EF76EBBEC05F0356A346A958E83BE9D
:101C900035D0010E706F020E716F82EC05F0342C9E
:101CA00009D0355207E14A0EF66E070EF76EBBEC0F
:101CB00005F00BD03450F40808E1352C06D05A0E4C
:101CC000F66E070EF76EBBEC05F0010E706FA0EC20
:101CD00004F0355002080BE2FF0A03E13450E80833
:101CE00006E2356A346A35C003F0345006D035C098
:101CF00003F03450342AD8B4352AC8D7958E83BE21
:101D0000FDD782EF07F0ADD7596A586A5A6A14ECCA
:101D100007F021A086D06A0EF66E070EF76E00015E
:101D2000BBEC05F0010E366E21B225D0010E706FAE
:101D3000020E716F82EC05F07C0EF66E070EF76EE8
:101D4000BBEC05F036C070F0020E716F82EC05F04E
:101D50006F6993EC05F0640E706FA0EC04F021B095
:101D600001D0D7D73650100803E2010E366E02D0EC
:101D70003650362AD9D70C0E6F6F93EC05F0200E33
:101D80006F6F93EC05F0010EE96E27C067F026C077
:101D900066F0F2EC08F0940EF66E070EF76E0D0E7C
:101DA000596E3CEC06F0030EE96E23C067F022C0CA
:101DB00066F0F2EC08F0A50EF66E070EF76E040E54
:101DC000596E3CEC06F0000EE96E25C067F024C0A9
:101DD00066F0F2EC08F0AD0EF66E070EF76E040E2C
:101DE000596E3CEC06F0040E4E6EFA0E706FA0ECCD
:101DF00004F04E2EFAD722C04EF023C04FF024C07C
:101E000050F025C051F026C052F027C053F071DCCD
:101E1000219021922A0EF0D4640E706FA0EC04F091
:101E20004AD1B20EF66E070EF76E080E596E00011B
:101E30003CEC06F0000EE96E20C067F01FC066F0B3
:101E4000F2EC08F0BE0EF66E070EF76E030E596E3A
:101E50003CEC06F0386A376A958E83BE38D0010EA6
:101E6000706F020E716F82EC05F0372C09D038527A
:101E700007E1C20EF66E070EF76EBBEC05F00BD055
:101E80003750F40808E1382C06D0D20EF66E070E53
:101E9000F76EBBEC05F021A001D03BD7010E706FAF
:101EA000A0EC04F0385002080BE2FF0A03E13750BF
:101EB000E80806E2386A376A38C003F0375006D0BF
:101EC00038C003F03750372AD8B4382AC5D7958E92
:101ED00083BEFDD7050E396E3A6A3B6A3C6A3D6A9D
:101EE0003E6AEA6A3F0EE96E0D0E016EF76A000E59
:101EF000000170EC00F00A000900F5CFEEFF012EA2
:101F0000FBD7536A3F0E526E556A390E546E576AAC
:101F1000566A596A140E586E88DC015201E0F9D6EF
:101F2000EA6A3F0EE96E0F0E016EF76A000E0001BD
:101F30007FEC00F00A000900F5CFEEFF012EFBD781
:101F4000D8903934026E3A34036E02501F5C506EE2
:101F500003502058516E536A3F0E526E556A3B0E25
:101F6000546E576A0A0E566E51C059F050C058F060
:101F70005CDC015201E0B5D7EA6A3F0EE96E0A0E59
:101F8000016EF76A000E00018FEC00F00A000900F4
:101F9000F5CFEEFF012EFBD7D8903934026E3A34DC
:101FA000036E02503B24016E3C50032201C050F0EE
:101FB00003C051F020C065F01FC064F003C067F09B
:101FC00001C066F09EEC06F002C051F001C050F076
:101FD000536A3F0E526E556A3D0E546E576A010E9B
:101FE000566E02C059F001C058F01FDC015201E0EA
:101FF00097D70C0E6F6F93EC05F0200E6F6F93EC7C
:1020000005F0010EE96E3EC067F03DC066F0F2ECEF
:1020100008F0E80EF66E070EF76E0D0E596E3CECEA
:1020200006F0030EE96E3AC067F039C066F0F2ECD4
:1020300008F0F90EF66E070EF76E040E596E3CECC2
:1020400006F0000EE96E3CC067F03BC066F0F2ECB3
:1020500008F0010EF66E080EF76E040E596E3CEC99
:1020600006F0958E83BE08D0958883A804D0958805
:1020700083B8FDD781D7F5D7958E83BEFDD739C0FC
:102080004EF03AC04FF03BC050F03CC051F03DC064
:1020900052F03EC053F079EC0BF0060EF66E080ECF
:1020A000F76EBBEC05F0080E4E6EFA0E706FA0ECEA
:0A20B00004F04E2EFAD7D5D5030038
:020000040030CA
:0E00000020C93E1E0087A1000FC00FE00F4078
:00000001FF
;PIC18F4550
;CRC=7555  CREATED="16-ene.-24 09:57"
