:040000001DEF02F0FE
:08000800046ED8CF05F0E0CF33
:1000100006F00001E9CF0CF0EACF07F0E1CF08F0DD
:10002000E2CF09F0D9CF0AF0DACF0BF0F3CF12F01C
:10003000F4CF13F0FACF14F0F5CF15F0F6CF16F099
:10004000F7CF17F000C00EF001C00FF002C010F0A3
:1000500003C011F09DAA30EF00F09EBA57EF00F0F8
:100060000EC000F00FC001F010C002F011C003F08C
:100070000CC0E9FF07C0EAFF078E08C0E1FF09C016
:10008000E2FF0AC0D9FF0BC0DAFF12C0F3FF13C0B2
:10009000F4FF14C0FAFF15C0F5FF16C0F6FF17C035
:1000A000F7FF045006C0E0FF05C0D8FF10009E9A7D
:1000B00030EF00F057495245205452494D4D4552BA
:1000C0000A2050726F672E204176616E7A616461FA
:1000D0000000EA6A760EE96EEF500DE0020E016E46
:1000E000006A002EFED7012EFBD7970E006E002E61
:1000F000FED7EF2EF3D712007D39F00B006E0F0EF6
:100100008C1400108C6E00008C8000D000D08C907D
:1001100012008350006E00380F0B016E12000F0E9C
:100120009514F009956E8C8400008C800000F1DF3E
:1001300001C07DF08C9000008C8000D0EADF01C00F
:100140007CF08C900F0E9514956E7D39006EF00E3C
:10015000001600507C11016EB3EF00F0959095925F
:1001600095948C92DCD701C07CF001BEFBD78C92B9
:100170007AB18C8200008C9400008C907B397C6F6B
:100180000F0E7C177CC07DF0B7DF7B510F0B7C6FAF
:100190007D6FB2DF1200280E6F6F0C0E706F010EB4
:1001A000716F060E726F8C908C928C940F0E95145A
:1001B000956E9590959295940F0E766F8ADF010E4D
:1001C0006E6F6E51030808E3030E7D6F95DF050E19
:1001D000766F7FDF6E2BF5D7020E7D6F8DDF050EFC
:1001E000766F77DF6E6B6E5103080DE3036A6E5115
:1001F0006F0FE96E000E0320EA6EEFCF7BF07A6B93
:10020000ADDF6E2BF0D7B2EF02F0772D01D003D027
:10021000400E786F01D0786B010E765D78277851AB
:100220008009796F7A6B7B6F99DF12007551070A2D
:1002300007E00B0A0AE0060A10E0020A14E018D0F0
:10024000010E766F776FE1DF18D07A6B010E7B6F4E
:1002500085DF020E766F3DDF10D0010E766F020E45
:10026000776FD3DF0AD07A6B100E7B6F77DF05D004
:10027000010E7A6F75C07BF071DF12000900F55234
:100280000CE0F6CF6EF0F7CF6FF0F5CF75F0CEDF64
:100290006EC0F6FF6FC0F7FFF1D7BCEF02F07451EC
:1002A0007619800B786F74AF05D0731F741F732B92
:1002B000D8B4742B76AF05D0751F761F752BD8B4C4
:1002C000762B73517503F3CF01F0F4CF00F0760372
:1002D000F350002674517503F3500020026E78AF7E
:1002E00005D0011E021E012AD8B4022A04EF02F032
:1002F000EF520FE0EACF74F0E9CF73F0EFCF75F073
:1003000095DF74C0EAFF73C0E9FFE92AD8B4EA2A8E
:10031000EFD719EF02F07081210E6E25E96E000E05
:100320006F21EA6EEF6A948482B485D0948082A0B3
:100330000CD0948082B0FDD7210E6E25E96E000EA0
:100340006F21EA6EEF0670810ED0948282A20BD0EC
:10035000948282B2FDD7210E6E25E96E000E6F21C8
:10036000EA6EEF2A7081210E6E25E96E000E6F2174
:10037000EA6EEFAE18D0210E6E25016E000E6F21D1
:10038000036E01C071F0726F200E6E25E96E000ED3
:100390006F21EA6EEFCF73F003C0EAFF01C0E9FFFF
:1003A0007351EF6E1CD0210E6E25E96E000E6F2189
:1003B000EA6EEFCF71F0200E6E25E96E000E6F2110
:1003C000EA6EEF5071BF0BD0715D09E008E3210EBA
:1003D0006E25E96E000E6F21EA6EEF6A000E70A1C5
:1003E00029D0210E6E25E96E000E6F21EA6E726B28
:1003F000EFCF71F071BF720772C074F071C073F00B
:10040000766B020E756F4BD702C003F001506E255C
:10041000E96E6F510220EA6EECCF72F0ED52EFCF31
:1004200071F00C0E756F02DF72C0EAFF71C0E9FF58
:100430005FD7709178D7C7EF02F0F86AD09E078E29
:10044000700ED36ED3501A6A196AC150C00B0F09CF
:10045000C16E070EB46EC00EF2129D8A520E3D6E32
:10046000650E3E6E610E3F6E6C0E406E690E416E03
:100470007A0E426E610E436E720E446E200E456E11
:10048000430E466E6F0E476E720E486E740E496EC6
:10049000650E4A6E4B6A430E4C6E6F0E4D6E6E0EBD
:1004A0004E6E660E4F6E690E506E670E516E750E73
:1004B000526E720E536E610E546E630E556E690E5F
:1004C000566E6F0E576E6E0E586E650E596E730E29
:1004D0005A6E5B6A1C6A3D0E1B6E1E6A4C0E1D6EC8
:1004E0001F6A206A216A226A236A246A256A266AA8
:1004F000276A286A296A2A6A2B6A2C6A2D6A2E6A58
:100500002F6A306A316A326A336A346A356A366A07
:10051000376A386A396A3A6A010E3B6E3C6A080EDD
:100520005C6E7C0E5D6E090E5E6E7C0E5F6E0A0E5A
:10053000606F7C0E616F0B0E626F7C0E636F646B7D
:100540000C0E656F7C0E666F0D0E676F7C0E686F0C
:100550000E0E696F7C0E6A6F0F0E6B6F7C0E6C6FE8
:100560006D6B19D6030E766F010E776F4EDEB40EEB
:10057000F66E000EF76E82D6040E6E6FFA0E766F70
:10058000A8DD6E2FFBD76F6B1B0E6E6FC4D63C5071
:1005900003E0010A02E002D001D000D0F4D703004A
:020000040030CA
:0E00000020C93E1E0087A1000FC00FE00F4078
:00000001FF
;PIC18F4550
;CRC=3715  CREATED="17-nov.-23 10:22"
