:0400000078EF02F0A3
:08000800046ED8CF05F0E0CF33
:1000100006F00001E9CF0CF0EACF07F0E1CF08F0DD
:10002000E2CF09F0D9CF0AF0DACF0BF0F3CF12F01C
:10003000F4CF13F0FACF14F0F5CF15F0F6CF16F099
:10004000F7CF17F000C00EF001C00FF002C010F0A3
:1000500003C011F09DAA30EF00F09EBA57EF00F0F8
:100060000EC000F00FC001F010C002F011C003F08C
:100070000CC0E9FF07C0EAFF078E08C0E1FF09C016
:10008000E2FF0AC0D9FF0BC0DAFF12C0F3FF13C0B2
:10009000F4FF14C0FAFF15C0F5FF16C0F6FF17C035
:1000A000F7FF045006C0E0FF05C0D8FF10009E9A7D
:1000B00030EF00F057495245205452494D4D4552BA
:1000C0000A2050726F672E204176616E7A616461FA
:1000D00000000C4C6F6E676974756420286D6D2983
:1000E0003A000C50656C61646F20286D6D293A00F0
:1000F0000A2D2D2D2D2D2D303030302D2D2D2D2D47
:100100002D00EA6A4B0EE96EEF500DE0020E016E13
:10011000006A002EFED7012EFBD7970E006E002E30
:10012000FED7EF2EF3D712005238F00B006E0F0EF1
:100130008C1400108C6E00008C8000D000D08C904D
:1001400012008350006E00380F0B016E12000F0E6C
:100150009514F009956E8C8400008C800000F1DF0E
:1001600001C052F08C9000008C8000D0EADF01C00A
:1001700051F08C900F0E9514956E5238006EF00E63
:10018000001600505110016ECBEF00F09590959243
:1001900095948C92DCD701C051F001BEFBD78C92B4
:1001A0004FB08C8200008C9400008C905038516EBF
:1001B0000F0E511651C052F0B7DF50500F0B516E59
:1001C000526EB2DF1200280E376E0C0E386E010E22
:1001D000396E060E3A6E8C908C928C940F0E95149C
:1001E000956E9590959295940F0E4B6E8ADF010E49
:1001F000366E3650030808E3030E526E95DF050E87
:100200004B6E7FDF362AF5D7020E526E8DDF050E5C
:100210004B6E77DF366A365003080DE3036A3650BB
:10022000370FE96E000E0320EA6EEFCF50F04F6AF1
:10023000ADDF362AF0D7B3EF02F04C2C01D003D05B
:10024000400E4D6E01D04D6A010E4B5C4D264D5057
:1002500080094E6E4F6A506E99DF12004A50070AAD
:1002600007E00B0A0AE0060A10E0020A14E018D0C0
:10027000010E4B6E4C6EE1DF18D04F6A010E506ECE
:1002800085DF020E4B6E3DDF10D0010E4B6E020E6D
:100290004C6ED3DF0AD04F6A100E506E77DF05D058
:1002A000010E4F6E4AC050F071DF12000900F55286
:1002B0000CE0F6CF41F0F7CF42F0F5CF4AF0CEDFB9
:1002C00041C0F6FF42C0F7FFF1D71200EACF49F074
:1002D000E9CF48F04238F009446E4426E20F456EFB
:1002E000320F476E42500F0B452645264726E90F31
:1002F000466E4626462641380F0B4626472646368A
:100300004736471E473641500F0B47264436070EE7
:10031000436E0A0E46064726FDE345064626FDE3E4
:1003200044064526FDE343064426FDE3EA6A430E00
:10033000E96E070E4814489CE926000EEA22E950AF
:10034000470803E1EA5201E1488CEF50006E08E1F2
:1003500048BC06D048B813D048B602D0200E03D00F
:1003600048864898300E0026EACF42F0E9CF41F0A7
:1003700000C04AF073DF42C0EAFF41C0E9FFEE501F
:1003800048ACDDD7120041504302F3CF01F0F4CF67
:1003900000F04402F350002642504302F350002084
:1003A000026E120039903B6A3A6A38C03CF0F00E97
:1003B000F66E000EF76E7ADF0A0ED8803854416E62
:1003C0004B6E020E4C6E39DF2A0E4A6E47DF38BE86
:1003D0008AD03E6A010E3D6E39A00DD0070E4B6EDD
:1003E000020E4C6E2ADF090EE96E3BC042F03AC0A5
:1003F00041F06CDF3990948482A41CD0948482B440
:10040000FDD73806070E4B6E020E4C6E16DF090E36
:10041000E96E3BC042F03AC041F058DF0A0ED88086
:100420003854416E4B6E020E4C6E07DF2A0E4A6E38
:1004300015DF58D0948082A027D0948082B0FDD759
:100440003F6A38BE12D038503F5C0FE23F503F2A1F
:100450003EC042F03DC041F0446A0A0E436E93DF55
:1004600002C03EF001C03DF0ECD73E503B5C0BE3D8
:1004700003E13D503A5C07E33D503A5E3E503B5A43
:100480003980036A010E2ED0948282A22BD09482EE
:1004900082B2FDD7406A38BE12D03850405C0FE2BD
:1004A0004050402A3EC042F03DC041F0446A0A0E2E
:1004B000436E69DF02C03EF001C03DF0ECD73D5015
:1004C0003A24416E3E503B20426E375C0BE303E121
:1004D0004150365C07E33D503A263E503B2239807E
:1004E000036A010E74D73AC001F03BC002F012005B
:1004F000F86AD09E078E700ED36ED3501A6A196AAE
:10050000C150C00B0F09C16E070EB46EC00EF212BF
:100510009D8A080E1B6E7C0E1C6E090E1D6E7C0ED5
:100520001E6E0A0E1F6E7C0E206E0B0E216E7C0E50
:10053000226E236A0C0E246E7C0E256E0D0E266E26
:100540007C0E276E0E0E286E7C0E296E0F0E2A6E04
:100550007C0E2B6E2C6A5C0E306E2F68790E2E6E20
:10056000880E2D6E30D6030E4B6E010E4C6E65DE7E
:10057000B40EF66E000EF76E99DE040E366EFA0EAD
:100580004B6EBFDD362EFBD7316A326A336A346A6E
:10059000356AD20EF66E000EF76E88DE030E376EE9
:1005A000E80E366E030E386EFDDE02C032F001C07A
:1005B00031F0E20EF66E000EF76E78DE376A0A0E44
:1005C000366E010E386EEEDE02C032F001C031F040
:0405D000DBD7030072
:020000040030CA
:0E00000020C93E1E0087A1000FC00FE00F4078
:00000001FF
;PIC18F4550
;CRC=35C5  CREATED="20-nov.-23 02:47"
